{
  "_format": "hh-sol-artifact-1",
  "contractName": "Charity",
  "sourceName": "contracts/CIP.sol",
  "abi": [
    {
      "inputs": [
        {
          "internalType": "uint256",
          "name": "reqId",
          "type": "uint256"
        }
      ],
      "name": "approveRequest",
      "outputs": [],
      "stateMutability": "nonpayable",
      "type": "function"
    },
    {
      "inputs": [
        {
          "internalType": "string",
          "name": "d",
          "type": "string"
        },
        {
          "internalType": "string",
          "name": "t",
          "type": "string"
        }
      ],
      "name": "createProject",
      "outputs": [],
      "stateMutability": "nonpayable",
      "type": "function"
    },
    {
      "inputs": [
        {
          "internalType": "string",
          "name": "r",
          "type": "string"
        },
        {
          "internalType": "uint256",
          "name": "amount",
          "type": "uint256"
        },
        {
          "internalType": "uint256",
          "name": "projId",
          "type": "uint256"
        }
      ],
      "name": "createRequest",
      "outputs": [],
      "stateMutability": "nonpayable",
      "type": "function"
    },
    {
      "inputs": [],
      "name": "getProjects",
      "outputs": [
        {
          "components": [
            {
              "internalType": "string",
              "name": "title",
              "type": "string"
            },
            {
              "internalType": "string",
              "name": "description",
              "type": "string"
            },
            {
              "internalType": "address",
              "name": "creator",
              "type": "address"
            },
            {
              "internalType": "uint256",
              "name": "investorCount",
              "type": "uint256"
            }
          ],
          "internalType": "struct Charity.Project[]",
          "name": "",
          "type": "tuple[]"
        }
      ],
      "stateMutability": "view",
      "type": "function"
    },
    {
      "inputs": [],
      "name": "getRequests",
      "outputs": [
        {
          "components": [
            {
              "internalType": "string",
              "name": "reason",
              "type": "string"
            },
            {
              "internalType": "string",
              "name": "requestor",
              "type": "string"
            },
            {
              "internalType": "uint256",
              "name": "amount",
              "type": "uint256"
            },
            {
              "internalType": "uint256",
              "name": "reqId",
              "type": "uint256"
            },
            {
              "internalType": "bool",
              "name": "verified",
              "type": "bool"
            },
            {
              "components": [
                {
                  "internalType": "string",
                  "name": "title",
                  "type": "string"
                },
                {
                  "internalType": "string",
                  "name": "description",
                  "type": "string"
                },
                {
                  "internalType": "address",
                  "name": "creator",
                  "type": "address"
                },
                {
                  "internalType": "uint256",
                  "name": "investorCount",
                  "type": "uint256"
                }
              ],
              "internalType": "struct Charity.Project",
              "name": "proj",
              "type": "tuple"
            }
          ],
          "internalType": "struct Charity.Request[]",
          "name": "",
          "type": "tuple[]"
        }
      ],
      "stateMutability": "view",
      "type": "function"
    },
    {
      "inputs": [
        {
          "internalType": "address",
          "name": "_wallet",
          "type": "address"
        }
      ],
      "name": "getUser",
      "outputs": [
        {
          "components": [
            {
              "internalType": "address",
              "name": "wallet",
              "type": "address"
            },
            {
              "internalType": "string",
              "name": "name",
              "type": "string"
            },
            {
              "internalType": "string",
              "name": "username",
              "type": "string"
            },
            {
              "internalType": "string",
              "name": "usertype",
              "type": "string"
            }
          ],
          "internalType": "struct Charity.User",
          "name": "",
          "type": "tuple"
        }
      ],
      "stateMutability": "view",
      "type": "function"
    },
    {
      "inputs": [],
      "name": "getValidatorSecret",
      "outputs": [
        {
          "internalType": "string",
          "name": "",
          "type": "string"
        }
      ],
      "stateMutability": "pure",
      "type": "function"
    },
    {
      "inputs": [
        {
          "internalType": "uint256",
          "name": "",
          "type": "uint256"
        }
      ],
      "name": "projects",
      "outputs": [
        {
          "internalType": "string",
          "name": "title",
          "type": "string"
        },
        {
          "internalType": "string",
          "name": "description",
          "type": "string"
        },
        {
          "internalType": "address",
          "name": "creator",
          "type": "address"
        },
        {
          "internalType": "uint256",
          "name": "investorCount",
          "type": "uint256"
        }
      ],
      "stateMutability": "view",
      "type": "function"
    },
    {
      "inputs": [
        {
          "internalType": "string",
          "name": "_username",
          "type": "string"
        },
        {
          "internalType": "string",
          "name": "_name",
          "type": "string"
        },
        {
          "internalType": "string",
          "name": "_usertype",
          "type": "string"
        }
      ],
      "name": "register",
      "outputs": [],
      "stateMutability": "nonpayable",
      "type": "function"
    },
    {
      "inputs": [
        {
          "internalType": "uint256",
          "name": "reqId",
          "type": "uint256"
        }
      ],
      "name": "rejectRequest",
      "outputs": [],
      "stateMutability": "nonpayable",
      "type": "function"
    },
    {
      "inputs": [
        {
          "internalType": "uint256",
          "name": "",
          "type": "uint256"
        }
      ],
      "name": "requests",
      "outputs": [
        {
          "internalType": "string",
          "name": "reason",
          "type": "string"
        },
        {
          "internalType": "string",
          "name": "requestor",
          "type": "string"
        },
        {
          "internalType": "uint256",
          "name": "amount",
          "type": "uint256"
        },
        {
          "internalType": "uint256",
          "name": "reqId",
          "type": "uint256"
        },
        {
          "internalType": "bool",
          "name": "verified",
          "type": "bool"
        },
        {
          "components": [
            {
              "internalType": "string",
              "name": "title",
              "type": "string"
            },
            {
              "internalType": "string",
              "name": "description",
              "type": "string"
            },
            {
              "internalType": "address",
              "name": "creator",
              "type": "address"
            },
            {
              "internalType": "uint256",
              "name": "investorCount",
              "type": "uint256"
            }
          ],
          "internalType": "struct Charity.Project",
          "name": "proj",
          "type": "tuple"
        }
      ],
      "stateMutability": "view",
      "type": "function"
    },
    {
      "inputs": [
        {
          "internalType": "address",
          "name": "",
          "type": "address"
        }
      ],
      "name": "usernames",
      "outputs": [
        {
          "internalType": "string",
          "name": "",
          "type": "string"
        }
      ],
      "stateMutability": "view",
      "type": "function"
    },
    {
      "inputs": [
        {
          "internalType": "string",
          "name": "",
          "type": "string"
        }
      ],
      "name": "users",
      "outputs": [
        {
          "internalType": "address",
          "name": "wallet",
          "type": "address"
        },
        {
          "internalType": "string",
          "name": "name",
          "type": "string"
        },
        {
          "internalType": "string",
          "name": "username",
          "type": "string"
        },
        {
          "internalType": "string",
          "name": "usertype",
          "type": "string"
        }
      ],
      "stateMutability": "view",
      "type": "function"
    }
  ],
  "bytecode": "0x608060405234801561001057600080fd5b50612ec8806100206000396000f3fe608060405234801561001057600080fd5b50600436106100cf5760003560e01c806381d12c581161008c578063dcc6012811610066578063dcc601281461022d578063ee91877c1461024b578063f97cbe231461027b578063fbccc84114610299576100cf565b806381d12c58146101be5780638813ce12146101f3578063d7d1bbdb14610211576100cf565b8063107046bd146100d45780632d7788db146101075780634cd08d0314610123578063689e1c031461013f5780636bd06204146101725780636f77926b1461018e575b600080fd5b6100ee60048036038101906100e99190612364565b6102b5565b6040516100fe949392919061299b565b60405180910390f35b610121600480360381019061011c9190612364565b610425565b005b61013d60048036038101906101389190612266565b6104e4565b005b610159600480360381019061015491906121b9565b61076f565b60405161016994939291906128db565b60405180910390f35b61018c600480360381019061018791906121fa565b61096d565b005b6101a860048036038101906101a39190612190565b610b1a565b6040516101b59190612aa4565b60405180910390f35b6101d860048036038101906101d39190612364565b610d9b565b6040516101ea969594939291906129ee565b60405180910390f35b6101fb611092565b6040516102089190612957565b60405180910390f35b61022b60048036038101906102269190612364565b6113dc565b005b6102356114f6565b6040516102429190612935565b60405180910390f35b61026560048036038101906102609190612190565b6116d9565b6040516102729190612979565b60405180910390f35b610283611779565b6040516102909190612979565b60405180910390f35b6102b360048036038101906102ae91906122fd565b6117b6565b005b600281815481106102c557600080fd5b90600052602060002090600402016000915090508060000180546102e890612c99565b80601f016020809104026020016040519081016040528092919081815260200182805461031490612c99565b80156103615780601f1061033657610100808354040283529160200191610361565b820191906000526020600020905b81548152906001019060200180831161034457829003601f168201915b50505050509080600101805461037690612c99565b80601f01602080910402602001604051908101604052809291908181526020018280546103a290612c99565b80156103ef5780601f106103c4576101008083540402835291602001916103ef565b820191906000526020600020905b8154815290600101906020018083116103d257829003601f168201915b5050505050908060020160009054906101000a900473ffffffffffffffffffffffffffffffffffffffff16908060030154905084565b604051602001610434906128b1565b6040516020818303038152906040528051906020012060016000803373ffffffffffffffffffffffffffffffffffffffff1673ffffffffffffffffffffffffffffffffffffffff168152602001908152602001600020604051610497919061289a565b90815260200160405180910390206003016040516020016104b8919061289a565b60405160208183030381529060405280519060200120146104d857600080fd5b6104e181611c71565b50565b60008060003373ffffffffffffffffffffffffffffffffffffffff1673ffffffffffffffffffffffffffffffffffffffff168152602001908152602001600020805461052f90612c99565b905014610571576040517f08c379a000000000000000000000000000000000000000000000000000000000815260040161056890612a84565b60405180910390fd5b600073ffffffffffffffffffffffffffffffffffffffff166001846040516105999190612883565b908152602001604051809103902060000160009054906101000a900473ffffffffffffffffffffffffffffffffffffffff1673ffffffffffffffffffffffffffffffffffffffff1614610621576040517f08c379a000000000000000000000000000000000000000000000000000000000815260040161061890612a64565b60405180910390fd5b60405180608001604052803373ffffffffffffffffffffffffffffffffffffffff168152602001838152602001848152602001828152506001846040516106689190612883565b908152602001604051809103902060008201518160000160006101000a81548173ffffffffffffffffffffffffffffffffffffffff021916908373ffffffffffffffffffffffffffffffffffffffff16021790555060208201518160010190805190602001906106d9929190611f50565b5060408201518160020190805190602001906106f6929190611f50565b506060820151816003019080519060200190610713929190611f50565b50905050826000803373ffffffffffffffffffffffffffffffffffffffff1673ffffffffffffffffffffffffffffffffffffffff1681526020019081526020016000209080519060200190610769929190611f50565b50505050565b6001818051602081018201805184825260208301602085012081835280955050505050506000915090508060000160009054906101000a900473ffffffffffffffffffffffffffffffffffffffff16908060010180546107ce90612c99565b80601f01602080910402602001604051908101604052809291908181526020018280546107fa90612c99565b80156108475780601f1061081c57610100808354040283529160200191610847565b820191906000526020600020905b81548152906001019060200180831161082a57829003601f168201915b50505050509080600201805461085c90612c99565b80601f016020809104026020016040519081016040528092919081815260200182805461088890612c99565b80156108d55780601f106108aa576101008083540402835291602001916108d5565b820191906000526020600020905b8154815290600101906020018083116108b857829003601f168201915b5050505050908060030180546108ea90612c99565b80601f016020809104026020016040519081016040528092919081815260200182805461091690612c99565b80156109635780601f1061093857610100808354040283529160200191610963565b820191906000526020600020905b81548152906001019060200180831161094657829003601f168201915b5050505050905084565b60405160200161097c906128c6565b6040516020818303038152906040528051906020012060016000803373ffffffffffffffffffffffffffffffffffffffff1673ffffffffffffffffffffffffffffffffffffffff1681526020019081526020016000206040516109df919061289a565b9081526020016040518091039020600301604051602001610a00919061289a565b6040516020818303038152906040528051906020012014610a2057600080fd5b600060405180608001604052808381526020018481526020013373ffffffffffffffffffffffffffffffffffffffff1681526020016000815250905060028190806001815401808255809150506001900390600052602060002090600402016000909190919091506000820151816000019080519060200190610aa4929190611f50565b506020820151816001019080519060200190610ac1929190611f50565b5060408201518160020160006101000a81548173ffffffffffffffffffffffffffffffffffffffff021916908373ffffffffffffffffffffffffffffffffffffffff160217905550606082015181600301555050505050565b610b22611fd6565b60016000808473ffffffffffffffffffffffffffffffffffffffff1673ffffffffffffffffffffffffffffffffffffffff168152602001908152602001600020604051610b6f919061289a565b90815260200160405180910390206040518060800160405290816000820160009054906101000a900473ffffffffffffffffffffffffffffffffffffffff1673ffffffffffffffffffffffffffffffffffffffff1673ffffffffffffffffffffffffffffffffffffffff168152602001600182018054610bee90612c99565b80601f0160208091040260200160405190810160405280929190818152602001828054610c1a90612c99565b8015610c675780601f10610c3c57610100808354040283529160200191610c67565b820191906000526020600020905b815481529060010190602001808311610c4a57829003601f168201915b50505050508152602001600282018054610c8090612c99565b80601f0160208091040260200160405190810160405280929190818152602001828054610cac90612c99565b8015610cf95780601f10610cce57610100808354040283529160200191610cf9565b820191906000526020600020905b815481529060010190602001808311610cdc57829003601f168201915b50505050508152602001600382018054610d1290612c99565b80601f0160208091040260200160405190810160405280929190818152602001828054610d3e90612c99565b8015610d8b5780601f10610d6057610100808354040283529160200191610d8b565b820191906000526020600020905b815481529060010190602001808311610d6e57829003601f168201915b5050505050815250509050919050565b60038181548110610dab57600080fd5b9060005260206000209060090201600091509050806000018054610dce90612c99565b80601f0160208091040260200160405190810160405280929190818152602001828054610dfa90612c99565b8015610e475780601f10610e1c57610100808354040283529160200191610e47565b820191906000526020600020905b815481529060010190602001808311610e2a57829003601f168201915b505050505090806001018054610e5c90612c99565b80601f0160208091040260200160405190810160405280929190818152602001828054610e8890612c99565b8015610ed55780601f10610eaa57610100808354040283529160200191610ed5565b820191906000526020600020905b815481529060010190602001808311610eb857829003601f168201915b5050505050908060020154908060030154908060040160009054906101000a900460ff169080600501604051806080016040529081600082018054610f1990612c99565b80601f0160208091040260200160405190810160405280929190818152602001828054610f4590612c99565b8015610f925780601f10610f6757610100808354040283529160200191610f92565b820191906000526020600020905b815481529060010190602001808311610f7557829003601f168201915b50505050508152602001600182018054610fab90612c99565b80601f0160208091040260200160405190810160405280929190818152602001828054610fd790612c99565b80156110245780601f10610ff957610100808354040283529160200191611024565b820191906000526020600020905b81548152906001019060200180831161100757829003601f168201915b505050505081526020016002820160009054906101000a900473ffffffffffffffffffffffffffffffffffffffff1673ffffffffffffffffffffffffffffffffffffffff1673ffffffffffffffffffffffffffffffffffffffff168152602001600382015481525050905086565b60606003805480602002602001604051908101604052809291908181526020016000905b828210156113d357838290600052602060002090600902016040518060c00160405290816000820180546110e990612c99565b80601f016020809104026020016040519081016040528092919081815260200182805461111590612c99565b80156111625780601f1061113757610100808354040283529160200191611162565b820191906000526020600020905b81548152906001019060200180831161114557829003601f168201915b5050505050815260200160018201805461117b90612c99565b80601f01602080910402602001604051908101604052809291908181526020018280546111a790612c99565b80156111f45780601f106111c9576101008083540402835291602001916111f4565b820191906000526020600020905b8154815290600101906020018083116111d757829003601f168201915b5050505050815260200160028201548152602001600382015481526020016004820160009054906101000a900460ff161515151581526020016005820160405180608001604052908160008201805461124c90612c99565b80601f016020809104026020016040519081016040528092919081815260200182805461127890612c99565b80156112c55780601f1061129a576101008083540402835291602001916112c5565b820191906000526020600020905b8154815290600101906020018083116112a857829003601f168201915b505050505081526020016001820180546112de90612c99565b80601f016020809104026020016040519081016040528092919081815260200182805461130a90612c99565b80156113575780601f1061132c57610100808354040283529160200191611357565b820191906000526020600020905b81548152906001019060200180831161133a57829003601f168201915b505050505081526020016002820160009054906101000a900473ffffffffffffffffffffffffffffffffffffffff1673ffffffffffffffffffffffffffffffffffffffff1673ffffffffffffffffffffffffffffffffffffffff16815260200160038201548152505081525050815260200190600101906110b6565b50505050905090565b6040516020016113eb906128b1565b6040516020818303038152906040528051906020012060016000803373ffffffffffffffffffffffffffffffffffffffff1673ffffffffffffffffffffffffffffffffffffffff16815260200190815260200160002060405161144e919061289a565b908152602001604051809103902060030160405160200161146f919061289a565b604051602081830303815290604052805190602001201461148f57600080fd5b6001600382815481106114cb577f4e487b7100000000000000000000000000000000000000000000000000000000600052603260045260246000fd5b906000526020600020906009020160040160006101000a81548160ff02191690831515021790555050565b60606002805480602002602001604051908101604052809291908181526020016000905b828210156116d0578382906000526020600020906004020160405180608001604052908160008201805461154d90612c99565b80601f016020809104026020016040519081016040528092919081815260200182805461157990612c99565b80156115c65780601f1061159b576101008083540402835291602001916115c6565b820191906000526020600020905b8154815290600101906020018083116115a957829003601f168201915b505050505081526020016001820180546115df90612c99565b80601f016020809104026020016040519081016040528092919081815260200182805461160b90612c99565b80156116585780601f1061162d57610100808354040283529160200191611658565b820191906000526020600020905b81548152906001019060200180831161163b57829003601f168201915b505050505081526020016002820160009054906101000a900473ffffffffffffffffffffffffffffffffffffffff1673ffffffffffffffffffffffffffffffffffffffff1673ffffffffffffffffffffffffffffffffffffffff1681526020016003820154815250508152602001906001019061151a565b50505050905090565b600060205280600052604060002060009150905080546116f890612c99565b80601f016020809104026020016040519081016040528092919081815260200182805461172490612c99565b80156117715780601f1061174657610100808354040283529160200191611771565b820191906000526020600020905b81548152906001019060200180831161175457829003601f168201915b505050505081565b60606040518060400160405280600481526020017f4155435a00000000000000000000000000000000000000000000000000000000815250905090565b6040516020016117c5906128c6565b6040516020818303038152906040528051906020012060016000803373ffffffffffffffffffffffffffffffffffffffff1673ffffffffffffffffffffffffffffffffffffffff168152602001908152602001600020604051611828919061289a565b9081526020016040518091039020600301604051602001611849919061289a565b604051602081830303815290604052805190602001201461186957600080fd5b60006040518060c001604052808581526020016000803373ffffffffffffffffffffffffffffffffffffffff1673ffffffffffffffffffffffffffffffffffffffff16815260200190815260200160002080546118c590612c99565b80601f01602080910402602001604051908101604052809291908181526020018280546118f190612c99565b801561193e5780601f106119135761010080835404028352916020019161193e565b820191906000526020600020905b81548152906001019060200180831161192157829003601f168201915b5050505050815260200184815260200143815260200160001515815260200160028481548110611997577f4e487b7100000000000000000000000000000000000000000000000000000000600052603260045260246000fd5b90600052602060002090600402016040518060800160405290816000820180546119c090612c99565b80601f01602080910402602001604051908101604052809291908181526020018280546119ec90612c99565b8015611a395780601f10611a0e57610100808354040283529160200191611a39565b820191906000526020600020905b815481529060010190602001808311611a1c57829003601f168201915b50505050508152602001600182018054611a5290612c99565b80601f0160208091040260200160405190810160405280929190818152602001828054611a7e90612c99565b8015611acb5780601f10611aa057610100808354040283529160200191611acb565b820191906000526020600020905b815481529060010190602001808311611aae57829003601f168201915b505050505081526020016002820160009054906101000a900473ffffffffffffffffffffffffffffffffffffffff1673ffffffffffffffffffffffffffffffffffffffff1673ffffffffffffffffffffffffffffffffffffffff168152602001600382015481525050815250905060038190806001815401808255809150506001900390600052602060002090600902016000909190919091506000820151816000019080519060200190611b81929190611f50565b506020820151816001019080519060200190611b9e929190611f50565b50604082015181600201556060820151816003015560808201518160040160006101000a81548160ff02191690831515021790555060a0820151816005016000820151816000019080519060200190611bf8929190611f50565b506020820151816001019080519060200190611c15929190611f50565b5060408201518160020160006101000a81548173ffffffffffffffffffffffffffffffffffffffff021916908373ffffffffffffffffffffffffffffffffffffffff160217905550606082015181600301555050505050505050565b6003805490508110611c8257600080fd5b60036001600380549050611c969190612bdb565b81548110611ccd577f4e487b7100000000000000000000000000000000000000000000000000000000600052603260045260246000fd5b906000526020600020906009020160038281548110611d15577f4e487b7100000000000000000000000000000000000000000000000000000000600052603260045260246000fd5b90600052602060002090600902016000820181600001908054611d3790612c99565b611d42929190612014565b506001820181600101908054611d5790612c99565b611d62929190612014565b5060028201548160020155600382015481600301556004820160009054906101000a900460ff168160040160006101000a81548160ff02191690831515021790555060058201816005016000820181600001908054611dc090612c99565b611dcb929190612014565b506001820181600101908054611de090612c99565b611deb929190612014565b506002820160009054906101000a900473ffffffffffffffffffffffffffffffffffffffff168160020160006101000a81548173ffffffffffffffffffffffffffffffffffffffff021916908373ffffffffffffffffffffffffffffffffffffffff1602179055506003820154816003015550509050506003805480611e9a577f4e487b7100000000000000000000000000000000000000000000000000000000600052603160045260246000fd5b600190038181906000526020600020906009020160008082016000611ebf91906120a1565b600182016000611ecf91906120a1565b600282016000905560038201600090556004820160006101000a81549060ff02191690556005820160008082016000611f0891906120a1565b600182016000611f1891906120a1565b6002820160006101000a81549073ffffffffffffffffffffffffffffffffffffffff0219169055600382016000905550505050905550565b828054611f5c90612c99565b90600052602060002090601f016020900481019282611f7e5760008555611fc5565b82601f10611f9757805160ff1916838001178555611fc5565b82800160010185558215611fc5579182015b82811115611fc4578251825591602001919060010190611fa9565b5b509050611fd291906120e1565b5090565b6040518060800160405280600073ffffffffffffffffffffffffffffffffffffffff1681526020016060815260200160608152602001606081525090565b82805461202090612c99565b90600052602060002090601f0160209004810192826120425760008555612090565b82601f106120535780548555612090565b8280016001018555821561209057600052602060002091601f016020900482015b8281111561208f578254825591600101919060010190612074565b5b50905061209d91906120e1565b5090565b5080546120ad90612c99565b6000825580601f106120bf57506120de565b601f0160209004906000526020600020908101906120dd91906120e1565b5b50565b5b808211156120fa5760008160009055506001016120e2565b5090565b600061211161210c84612aeb565b612ac6565b90508281526020810184848401111561212957600080fd5b612134848285612c57565b509392505050565b60008135905061214b81612e64565b92915050565b600082601f83011261216257600080fd5b81356121728482602086016120fe565b91505092915050565b60008135905061218a81612e7b565b92915050565b6000602082840312156121a257600080fd5b60006121b08482850161213c565b91505092915050565b6000602082840312156121cb57600080fd5b600082013567ffffffffffffffff8111156121e557600080fd5b6121f184828501612151565b91505092915050565b6000806040838503121561220d57600080fd5b600083013567ffffffffffffffff81111561222757600080fd5b61223385828601612151565b925050602083013567ffffffffffffffff81111561225057600080fd5b61225c85828601612151565b9150509250929050565b60008060006060848603121561227b57600080fd5b600084013567ffffffffffffffff81111561229557600080fd5b6122a186828701612151565b935050602084013567ffffffffffffffff8111156122be57600080fd5b6122ca86828701612151565b925050604084013567ffffffffffffffff8111156122e757600080fd5b6122f386828701612151565b9150509250925092565b60008060006060848603121561231257600080fd5b600084013567ffffffffffffffff81111561232c57600080fd5b61233886828701612151565b93505060206123498682870161217b565b925050604061235a8682870161217b565b9150509250925092565b60006020828403121561237657600080fd5b60006123848482850161217b565b91505092915050565b60006123998383612689565b905092915050565b60006123ad838361275d565b905092915050565b6123be81612c0f565b82525050565b6123cd81612c0f565b82525050565b60006123de82612b51565b6123e88185612b8c565b9350836020820285016123fa85612b1c565b8060005b858110156124365784840389528151612417858261238d565b945061242283612b72565b925060208a019950506001810190506123fe565b50829750879550505050505092915050565b600061245382612b5c565b61245d8185612b9d565b93508360208202850161246f85612b2c565b8060005b858110156124ab578484038952815161248c85826123a1565b945061249783612b7f565b925060208a01995050600181019050612473565b50829750879550505050505092915050565b6124c681612c21565b82525050565b6124d581612c21565b82525050565b60006124e682612b67565b6124f08185612bae565b9350612500818560208601612c66565b61250981612d89565b840191505092915050565b600061251f82612b67565b6125298185612bbf565b9350612539818560208601612c66565b61254281612d89565b840191505092915050565b600061255882612b67565b6125628185612bd0565b9350612572818560208601612c66565b80840191505092915050565b6000815461258b81612c99565b6125958186612bd0565b945060018216600081146125b057600181146125c1576125f4565b60ff198316865281860193506125f4565b6125ca85612b3c565b60005b838110156125ec578154818901526001820191506020810190506125cd565b838801955050505b50505092915050565b600061260a602683612bbf565b915061261582612d9a565b604082019050919050565b600061262d601383612bbf565b915061263882612de9565b602082019050919050565b6000612650600983612bd0565b915061265b82612e12565b600982019050919050565b6000612673600b83612bd0565b915061267e82612e3b565b600b82019050919050565b600060808301600083015184820360008601526126a682826124db565b915050602083015184820360208601526126c082826124db565b91505060408301516126d560408601826123b5565b5060608301516126e86060860182612865565b508091505092915050565b6000608083016000830151848203600086015261271082826124db565b9150506020830151848203602086015261272a82826124db565b915050604083015161273f60408601826123b5565b5060608301516127526060860182612865565b508091505092915050565b600060c083016000830151848203600086015261277a82826124db565b9150506020830151848203602086015261279482826124db565b91505060408301516127a96040860182612865565b5060608301516127bc6060860182612865565b5060808301516127cf60808601826124bd565b5060a083015184820360a08601526127e78282612689565b9150508091505092915050565b600060808301600083015161280c60008601826123b5565b506020830151848203602086015261282482826124db565b9150506040830151848203604086015261283e82826124db565b9150506060830151848203606086015261285882826124db565b9150508091505092915050565b61286e81612c4d565b82525050565b61287d81612c4d565b82525050565b600061288f828461254d565b915081905092915050565b60006128a6828461257e565b915081905092915050565b60006128bc82612643565b9150819050919050565b60006128d182612666565b9150819050919050565b60006080820190506128f060008301876123c4565b81810360208301526129028186612514565b905081810360408301526129168185612514565b9050818103606083015261292a8184612514565b905095945050505050565b6000602082019050818103600083015261294f81846123d3565b905092915050565b600060208201905081810360008301526129718184612448565b905092915050565b600060208201905081810360008301526129938184612514565b905092915050565b600060808201905081810360008301526129b58187612514565b905081810360208301526129c98186612514565b90506129d860408301856123c4565b6129e56060830184612874565b95945050505050565b600060c0820190508181036000830152612a088189612514565b90508181036020830152612a1c8188612514565b9050612a2b6040830187612874565b612a386060830186612874565b612a4560808301856124cc565b81810360a0830152612a5781846126f3565b9050979650505050505050565b60006020820190508181036000830152612a7d816125fd565b9050919050565b60006020820190508181036000830152612a9d81612620565b9050919050565b60006020820190508181036000830152612abe81846127f4565b905092915050565b6000612ad0612ae1565b9050612adc8282612ccb565b919050565b6000604051905090565b600067ffffffffffffffff821115612b0657612b05612d5a565b5b612b0f82612d89565b9050602081019050919050565b6000819050602082019050919050565b6000819050602082019050919050565b60008190508160005260206000209050919050565b600081519050919050565b600081519050919050565b600081519050919050565b6000602082019050919050565b6000602082019050919050565b600082825260208201905092915050565b600082825260208201905092915050565b600082825260208201905092915050565b600082825260208201905092915050565b600081905092915050565b6000612be682612c4d565b9150612bf183612c4d565b925082821015612c0457612c03612cfc565b5b828203905092915050565b6000612c1a82612c2d565b9050919050565b60008115159050919050565b600073ffffffffffffffffffffffffffffffffffffffff82169050919050565b6000819050919050565b82818337600083830152505050565b60005b83811015612c84578082015181840152602081019050612c69565b83811115612c93576000848401525b50505050565b60006002820490506001821680612cb157607f821691505b60208210811415612cc557612cc4612d2b565b5b50919050565b612cd482612d89565b810181811067ffffffffffffffff82111715612cf357612cf2612d5a565b5b80604052505050565b7f4e487b7100000000000000000000000000000000000000000000000000000000600052601160045260246000fd5b7f4e487b7100000000000000000000000000000000000000000000000000000000600052602260045260246000fd5b7f4e487b7100000000000000000000000000000000000000000000000000000000600052604160045260246000fd5b6000601f19601f8301169050919050565b7f557365726e616d6520697320616c72656164792074616b656e2c20547279206160008201527f6e6f746865720000000000000000000000000000000000000000000000000000602082015250565b7f5573657220616c72656164792065786973747300000000000000000000000000600082015250565b7f76616c696461746f720000000000000000000000000000000000000000000000600082015250565b7f62656e6566696369617279000000000000000000000000000000000000000000600082015250565b612e6d81612c0f565b8114612e7857600080fd5b50565b612e8481612c4d565b8114612e8f57600080fd5b5056fea264697066735822122002ed6a369d2cad4ef40e3ad111cc57b7d036c3af54c41ca1c5ef8b4eadd1208164736f6c63430008040033",
  "linkReferences": {},
  "deployedLinkReferences": {}
}