{
  "_format": "hh-sol-artifact-1",
  "contractName": "Charity",
  "sourceName": "contracts/CIP.sol",
  "abi": [
    {
      "inputs": [
        {
          "internalType": "uint256",
          "name": "reqId",
          "type": "uint256"
        }
      ],
      "name": "approveRequest",
      "outputs": [],
      "stateMutability": "nonpayable",
      "type": "function"
    },
    {
      "inputs": [
        {
          "internalType": "string",
          "name": "d",
          "type": "string"
        },
        {
          "internalType": "string",
          "name": "t",
          "type": "string"
        }
      ],
      "name": "createProject",
      "outputs": [],
      "stateMutability": "nonpayable",
      "type": "function"
    },
    {
      "inputs": [
        {
          "internalType": "string",
          "name": "r",
          "type": "string"
        },
        {
          "internalType": "uint256",
          "name": "amount",
          "type": "uint256"
        },
        {
          "internalType": "uint256",
          "name": "projId",
          "type": "uint256"
        },
        {
          "internalType": "string",
          "name": "phno",
          "type": "string"
        }
      ],
      "name": "createRequest",
      "outputs": [],
      "stateMutability": "nonpayable",
      "type": "function"
    },
    {
      "inputs": [
        {
          "internalType": "uint256",
          "name": "",
          "type": "uint256"
        }
      ],
      "name": "delRequests",
      "outputs": [
        {
          "internalType": "string",
          "name": "reason",
          "type": "string"
        },
        {
          "internalType": "address payable",
          "name": "recepient",
          "type": "address"
        },
        {
          "internalType": "string",
          "name": "requestor",
          "type": "string"
        },
        {
          "internalType": "uint256",
          "name": "amount",
          "type": "uint256"
        },
        {
          "internalType": "uint256",
          "name": "reqId",
          "type": "uint256"
        },
        {
          "internalType": "string",
          "name": "reqLink",
          "type": "string"
        },
        {
          "components": [
            {
              "internalType": "string",
              "name": "title",
              "type": "string"
            },
            {
              "internalType": "string",
              "name": "description",
              "type": "string"
            },
            {
              "internalType": "address",
              "name": "creator",
              "type": "address"
            },
            {
              "internalType": "uint256",
              "name": "donorCount",
              "type": "uint256"
            },
            {
              "internalType": "uint256",
              "name": "projectId",
              "type": "uint256"
            }
          ],
          "internalType": "struct Charity.Project",
          "name": "proj",
          "type": "tuple"
        },
        {
          "internalType": "string",
          "name": "phno",
          "type": "string"
        }
      ],
      "stateMutability": "view",
      "type": "function"
    },
    {
      "inputs": [
        {
          "internalType": "uint256",
          "name": "projId",
          "type": "uint256"
        }
      ],
      "name": "donate",
      "outputs": [],
      "stateMutability": "payable",
      "type": "function"
    },
    {
      "inputs": [],
      "name": "getDelRequests",
      "outputs": [
        {
          "components": [
            {
              "internalType": "string",
              "name": "reason",
              "type": "string"
            },
            {
              "internalType": "address payable",
              "name": "recepient",
              "type": "address"
            },
            {
              "internalType": "string",
              "name": "requestor",
              "type": "string"
            },
            {
              "internalType": "uint256",
              "name": "amount",
              "type": "uint256"
            },
            {
              "internalType": "uint256",
              "name": "reqId",
              "type": "uint256"
            },
            {
              "internalType": "string",
              "name": "reqLink",
              "type": "string"
            },
            {
              "components": [
                {
                  "internalType": "string",
                  "name": "title",
                  "type": "string"
                },
                {
                  "internalType": "string",
                  "name": "description",
                  "type": "string"
                },
                {
                  "internalType": "address",
                  "name": "creator",
                  "type": "address"
                },
                {
                  "internalType": "uint256",
                  "name": "donorCount",
                  "type": "uint256"
                },
                {
                  "internalType": "uint256",
                  "name": "projectId",
                  "type": "uint256"
                }
              ],
              "internalType": "struct Charity.Project",
              "name": "proj",
              "type": "tuple"
            },
            {
              "internalType": "string",
              "name": "phno",
              "type": "string"
            }
          ],
          "internalType": "struct Charity.Request[]",
          "name": "",
          "type": "tuple[]"
        }
      ],
      "stateMutability": "view",
      "type": "function"
    },
    {
      "inputs": [],
      "name": "getProjects",
      "outputs": [
        {
          "components": [
            {
              "internalType": "string",
              "name": "title",
              "type": "string"
            },
            {
              "internalType": "string",
              "name": "description",
              "type": "string"
            },
            {
              "internalType": "address",
              "name": "creator",
              "type": "address"
            },
            {
              "internalType": "uint256",
              "name": "donorCount",
              "type": "uint256"
            },
            {
              "internalType": "uint256",
              "name": "projectId",
              "type": "uint256"
            }
          ],
          "internalType": "struct Charity.Project[]",
          "name": "",
          "type": "tuple[]"
        }
      ],
      "stateMutability": "view",
      "type": "function"
    },
    {
      "inputs": [],
      "name": "getRequests",
      "outputs": [
        {
          "components": [
            {
              "internalType": "string",
              "name": "reason",
              "type": "string"
            },
            {
              "internalType": "address payable",
              "name": "recepient",
              "type": "address"
            },
            {
              "internalType": "string",
              "name": "requestor",
              "type": "string"
            },
            {
              "internalType": "uint256",
              "name": "amount",
              "type": "uint256"
            },
            {
              "internalType": "uint256",
              "name": "reqId",
              "type": "uint256"
            },
            {
              "internalType": "string",
              "name": "reqLink",
              "type": "string"
            },
            {
              "components": [
                {
                  "internalType": "string",
                  "name": "title",
                  "type": "string"
                },
                {
                  "internalType": "string",
                  "name": "description",
                  "type": "string"
                },
                {
                  "internalType": "address",
                  "name": "creator",
                  "type": "address"
                },
                {
                  "internalType": "uint256",
                  "name": "donorCount",
                  "type": "uint256"
                },
                {
                  "internalType": "uint256",
                  "name": "projectId",
                  "type": "uint256"
                }
              ],
              "internalType": "struct Charity.Project",
              "name": "proj",
              "type": "tuple"
            },
            {
              "internalType": "string",
              "name": "phno",
              "type": "string"
            }
          ],
          "internalType": "struct Charity.Request[]",
          "name": "",
          "type": "tuple[]"
        }
      ],
      "stateMutability": "view",
      "type": "function"
    },
    {
      "inputs": [
        {
          "internalType": "address",
          "name": "_wallet",
          "type": "address"
        }
      ],
      "name": "getUser",
      "outputs": [
        {
          "components": [
            {
              "internalType": "address",
              "name": "wallet",
              "type": "address"
            },
            {
              "internalType": "string",
              "name": "name",
              "type": "string"
            },
            {
              "internalType": "string",
              "name": "username",
              "type": "string"
            },
            {
              "internalType": "string",
              "name": "usertype",
              "type": "string"
            }
          ],
          "internalType": "struct Charity.User",
          "name": "",
          "type": "tuple"
        }
      ],
      "stateMutability": "view",
      "type": "function"
    },
    {
      "inputs": [],
      "name": "getValRequests",
      "outputs": [
        {
          "components": [
            {
              "internalType": "string",
              "name": "reason",
              "type": "string"
            },
            {
              "internalType": "address payable",
              "name": "recepient",
              "type": "address"
            },
            {
              "internalType": "string",
              "name": "requestor",
              "type": "string"
            },
            {
              "internalType": "uint256",
              "name": "amount",
              "type": "uint256"
            },
            {
              "internalType": "uint256",
              "name": "reqId",
              "type": "uint256"
            },
            {
              "internalType": "string",
              "name": "reqLink",
              "type": "string"
            },
            {
              "components": [
                {
                  "internalType": "string",
                  "name": "title",
                  "type": "string"
                },
                {
                  "internalType": "string",
                  "name": "description",
                  "type": "string"
                },
                {
                  "internalType": "address",
                  "name": "creator",
                  "type": "address"
                },
                {
                  "internalType": "uint256",
                  "name": "donorCount",
                  "type": "uint256"
                },
                {
                  "internalType": "uint256",
                  "name": "projectId",
                  "type": "uint256"
                }
              ],
              "internalType": "struct Charity.Project",
              "name": "proj",
              "type": "tuple"
            },
            {
              "internalType": "string",
              "name": "phno",
              "type": "string"
            }
          ],
          "internalType": "struct Charity.Request[]",
          "name": "",
          "type": "tuple[]"
        }
      ],
      "stateMutability": "view",
      "type": "function"
    },
    {
      "inputs": [],
      "name": "getValidatorSecret",
      "outputs": [
        {
          "internalType": "string",
          "name": "",
          "type": "string"
        }
      ],
      "stateMutability": "pure",
      "type": "function"
    },
    {
      "inputs": [
        {
          "internalType": "uint256",
          "name": "",
          "type": "uint256"
        }
      ],
      "name": "projects",
      "outputs": [
        {
          "internalType": "string",
          "name": "title",
          "type": "string"
        },
        {
          "internalType": "string",
          "name": "description",
          "type": "string"
        },
        {
          "internalType": "address",
          "name": "creator",
          "type": "address"
        },
        {
          "internalType": "uint256",
          "name": "donorCount",
          "type": "uint256"
        },
        {
          "internalType": "uint256",
          "name": "projectId",
          "type": "uint256"
        }
      ],
      "stateMutability": "view",
      "type": "function"
    },
    {
      "inputs": [
        {
          "internalType": "string",
          "name": "_username",
          "type": "string"
        },
        {
          "internalType": "string",
          "name": "_name",
          "type": "string"
        },
        {
          "internalType": "string",
          "name": "_usertype",
          "type": "string"
        }
      ],
      "name": "register",
      "outputs": [],
      "stateMutability": "nonpayable",
      "type": "function"
    },
    {
      "inputs": [
        {
          "internalType": "string",
          "name": "_username",
          "type": "string"
        },
        {
          "internalType": "string",
          "name": "_name",
          "type": "string"
        },
        {
          "internalType": "string",
          "name": "_usertype",
          "type": "string"
        },
        {
          "internalType": "string",
          "name": "link",
          "type": "string"
        }
      ],
      "name": "registerB",
      "outputs": [],
      "stateMutability": "nonpayable",
      "type": "function"
    },
    {
      "inputs": [
        {
          "internalType": "uint256",
          "name": "reqId",
          "type": "uint256"
        }
      ],
      "name": "rejectRequest",
      "outputs": [],
      "stateMutability": "nonpayable",
      "type": "function"
    },
    {
      "inputs": [
        {
          "internalType": "uint256",
          "name": "",
          "type": "uint256"
        }
      ],
      "name": "requests",
      "outputs": [
        {
          "internalType": "string",
          "name": "reason",
          "type": "string"
        },
        {
          "internalType": "address payable",
          "name": "recepient",
          "type": "address"
        },
        {
          "internalType": "string",
          "name": "requestor",
          "type": "string"
        },
        {
          "internalType": "uint256",
          "name": "amount",
          "type": "uint256"
        },
        {
          "internalType": "uint256",
          "name": "reqId",
          "type": "uint256"
        },
        {
          "internalType": "string",
          "name": "reqLink",
          "type": "string"
        },
        {
          "components": [
            {
              "internalType": "string",
              "name": "title",
              "type": "string"
            },
            {
              "internalType": "string",
              "name": "description",
              "type": "string"
            },
            {
              "internalType": "address",
              "name": "creator",
              "type": "address"
            },
            {
              "internalType": "uint256",
              "name": "donorCount",
              "type": "uint256"
            },
            {
              "internalType": "uint256",
              "name": "projectId",
              "type": "uint256"
            }
          ],
          "internalType": "struct Charity.Project",
          "name": "proj",
          "type": "tuple"
        },
        {
          "internalType": "string",
          "name": "phno",
          "type": "string"
        }
      ],
      "stateMutability": "view",
      "type": "function"
    },
    {
      "inputs": [
        {
          "internalType": "uint256",
          "name": "projId",
          "type": "uint256"
        }
      ],
      "name": "showDonations",
      "outputs": [
        {
          "internalType": "uint256",
          "name": "",
          "type": "uint256"
        }
      ],
      "stateMutability": "view",
      "type": "function"
    },
    {
      "inputs": [
        {
          "internalType": "address",
          "name": "",
          "type": "address"
        }
      ],
      "name": "usernames",
      "outputs": [
        {
          "internalType": "string",
          "name": "",
          "type": "string"
        }
      ],
      "stateMutability": "view",
      "type": "function"
    },
    {
      "inputs": [
        {
          "internalType": "string",
          "name": "",
          "type": "string"
        }
      ],
      "name": "users",
      "outputs": [
        {
          "internalType": "address",
          "name": "wallet",
          "type": "address"
        },
        {
          "internalType": "string",
          "name": "name",
          "type": "string"
        },
        {
          "internalType": "string",
          "name": "username",
          "type": "string"
        },
        {
          "internalType": "string",
          "name": "usertype",
          "type": "string"
        }
      ],
      "stateMutability": "view",
      "type": "function"
    },
    {
      "inputs": [
        {
          "internalType": "uint256",
          "name": "",
          "type": "uint256"
        }
      ],
      "name": "valRequests",
      "outputs": [
        {
          "internalType": "string",
          "name": "reason",
          "type": "string"
        },
        {
          "internalType": "address payable",
          "name": "recepient",
          "type": "address"
        },
        {
          "internalType": "string",
          "name": "requestor",
          "type": "string"
        },
        {
          "internalType": "uint256",
          "name": "amount",
          "type": "uint256"
        },
        {
          "internalType": "uint256",
          "name": "reqId",
          "type": "uint256"
        },
        {
          "internalType": "string",
          "name": "reqLink",
          "type": "string"
        },
        {
          "components": [
            {
              "internalType": "string",
              "name": "title",
              "type": "string"
            },
            {
              "internalType": "string",
              "name": "description",
              "type": "string"
            },
            {
              "internalType": "address",
              "name": "creator",
              "type": "address"
            },
            {
              "internalType": "uint256",
              "name": "donorCount",
              "type": "uint256"
            },
            {
              "internalType": "uint256",
              "name": "projectId",
              "type": "uint256"
            }
          ],
          "internalType": "struct Charity.Project",
          "name": "proj",
          "type": "tuple"
        },
        {
          "internalType": "string",
          "name": "phno",
          "type": "string"
        }
      ],
      "stateMutability": "view",
      "type": "function"
    }
  ],
  "bytecode": "0x608060405234801561001057600080fd5b5061533f806100206000396000f3fe60806040526004361061011f5760003560e01c80638813ce12116100a0578063dcc6012811610064578063dcc601281461041e578063ee91877c14610449578063f14faf6f14610486578063f97cbe23146104a2578063fdbb33c2146104cd5761011f565b80638813ce121461034d578063b78c89ff14610378578063bb326613146103a1578063d1d396db146103ca578063d7d1bbdb146103f55761011f565b8063689e1c03116100e7578063689e1c031461021f5780636bd062041461025f5780636d6277aa146102885780636f77926b146102cc57806381d12c58146103095761011f565b8063107046bd146101245780631ad8de85146101655780632d7788db146101905780633c7d88fa146101b95780634cd08d03146101f6575b600080fd5b34801561013057600080fd5b5061014b6004803603810190610146919061466f565b610511565b60405161015c959493929190614dda565b60405180910390f35b34801561017157600080fd5b5061017a610687565b6040516101879190614cf5565b60405180910390f35b34801561019c57600080fd5b506101b760048036038101906101b2919061466f565b610b3b565b005b3480156101c557600080fd5b506101e060048036038101906101db919061466f565b610e2f565b6040516101ed9190614e9d565b60405180910390f35b34801561020257600080fd5b5061021d60048036038101906102189190614482565b610e89565b005b34801561022b57600080fd5b50610246600480360381019061024191906143d5565b611114565b6040516102569493929190614c79565b60405180910390f35b34801561026b57600080fd5b5061028660048036038101906102819190614416565b611312565b005b34801561029457600080fd5b506102af60048036038101906102aa919061466f565b6114cf565b6040516102c3989796959493929190614d39565b60405180910390f35b3480156102d857600080fd5b506102f360048036038101906102ee91906143ac565b6118ff565b6040516103009190614e7b565b60405180910390f35b34801561031557600080fd5b50610330600480360381019061032b919061466f565b611b80565b604051610344989796959493929190614d39565b60405180910390f35b34801561035957600080fd5b50610362611fb0565b60405161036f9190614cf5565b60405180910390f35b34801561038457600080fd5b5061039f600480360381019061039a9190614519565b612464565b005b3480156103ad57600080fd5b506103c860048036038101906103c391906145dc565b6127f7565b005b3480156103d657600080fd5b506103df612e0f565b6040516103ec9190614cf5565b60405180910390f35b34801561040157600080fd5b5061041c6004803603810190610417919061466f565b6132c3565b005b34801561042a57600080fd5b506104336135b7565b6040516104409190614cd3565b60405180910390f35b34801561045557600080fd5b50610470600480360381019061046b91906143ac565b6137a4565b60405161047d9190614d17565b60405180910390f35b6104a0600480360381019061049b919061466f565b613844565b005b3480156104ae57600080fd5b506104b7613961565b6040516104c49190614d17565b60405180910390f35b3480156104d957600080fd5b506104f460048036038101906104ef919061466f565b61399e565b604051610508989796959493929190614d39565b60405180910390f35b6003818154811061052157600080fd5b9060005260206000209060050201600091509050806000018054610544906150e7565b80601f0160208091040260200160405190810160405280929190818152602001828054610570906150e7565b80156105bd5780601f10610592576101008083540402835291602001916105bd565b820191906000526020600020905b8154815290600101906020018083116105a057829003601f168201915b5050505050908060010180546105d2906150e7565b80601f01602080910402602001604051908101604052809291908181526020018280546105fe906150e7565b801561064b5780601f106106205761010080835404028352916020019161064b565b820191906000526020600020905b81548152906001019060200180831161062e57829003601f168201915b5050505050908060020160009054906101000a900473ffffffffffffffffffffffffffffffffffffffff16908060030154908060040154905085565b60606007805480602002602001604051908101604052809291908181526020016000905b82821015610b3257838290600052602060002090600c0201604051806101000160405290816000820180546106df906150e7565b80601f016020809104026020016040519081016040528092919081815260200182805461070b906150e7565b80156107585780601f1061072d57610100808354040283529160200191610758565b820191906000526020600020905b81548152906001019060200180831161073b57829003601f168201915b505050505081526020016001820160009054906101000a900473ffffffffffffffffffffffffffffffffffffffff1673ffffffffffffffffffffffffffffffffffffffff1673ffffffffffffffffffffffffffffffffffffffff1681526020016002820180546107c7906150e7565b80601f01602080910402602001604051908101604052809291908181526020018280546107f3906150e7565b80156108405780601f1061081557610100808354040283529160200191610840565b820191906000526020600020905b81548152906001019060200180831161082357829003601f168201915b50505050508152602001600382015481526020016004820154815260200160058201805461086d906150e7565b80601f0160208091040260200160405190810160405280929190818152602001828054610899906150e7565b80156108e65780601f106108bb576101008083540402835291602001916108e6565b820191906000526020600020905b8154815290600101906020018083116108c957829003601f168201915b50505050508152602001600682016040518060a001604052908160008201805461090f906150e7565b80601f016020809104026020016040519081016040528092919081815260200182805461093b906150e7565b80156109885780601f1061095d57610100808354040283529160200191610988565b820191906000526020600020905b81548152906001019060200180831161096b57829003601f168201915b505050505081526020016001820180546109a1906150e7565b80601f01602080910402602001604051908101604052809291908181526020018280546109cd906150e7565b8015610a1a5780601f106109ef57610100808354040283529160200191610a1a565b820191906000526020600020905b8154815290600101906020018083116109fd57829003601f168201915b505050505081526020016002820160009054906101000a900473ffffffffffffffffffffffffffffffffffffffff1673ffffffffffffffffffffffffffffffffffffffff1673ffffffffffffffffffffffffffffffffffffffff168152602001600382015481526020016004820154815250508152602001600b82018054610aa1906150e7565b80601f0160208091040260200160405190810160405280929190818152602001828054610acd906150e7565b8015610b1a5780601f10610aef57610100808354040283529160200191610b1a565b820191906000526020600020905b815481529060010190602001808311610afd57829003601f168201915b505050505081525050815260200190600101906106ab565b50505050905090565b604051602001610b4a90614c3a565b6040516020818303038152906040528051906020012060016000803373ffffffffffffffffffffffffffffffffffffffff1673ffffffffffffffffffffffffffffffffffffffff168152602001908152602001600020604051610bad9190614c23565b9081526020016040518091039020600301604051602001610bce9190614c23565b6040516020818303038152906040528051906020012014610bee57600080fd5b600660058281548110610c2a577f4e487b7100000000000000000000000000000000000000000000000000000000600052603260045260246000fd5b90600052602060002090600c020190806001815401808255809150506001900390600052602060002090600c02016000909190919091506000820181600001908054610c75906150e7565b610c8092919061416c565b506001820160009054906101000a900473ffffffffffffffffffffffffffffffffffffffff168160010160006101000a81548173ffffffffffffffffffffffffffffffffffffffff021916908373ffffffffffffffffffffffffffffffffffffffff1602179055506002820181600201908054610cfc906150e7565b610d0792919061416c565b5060038201548160030155600482015481600401556005820181600501908054610d30906150e7565b610d3b92919061416c565b5060068201816006016000820181600001908054610d58906150e7565b610d6392919061416c565b506001820181600101908054610d78906150e7565b610d8392919061416c565b506002820160009054906101000a900473ffffffffffffffffffffffffffffffffffffffff168160020160006101000a81548173ffffffffffffffffffffffffffffffffffffffff021916908373ffffffffffffffffffffffffffffffffffffffff16021790555060038201548160030155600482015481600401555050600b820181600b01908054610e15906150e7565b610e2092919061416c565b505050610e2c81613dce565b50565b60006004600083815260200190815260200160002060003373ffffffffffffffffffffffffffffffffffffffff1673ffffffffffffffffffffffffffffffffffffffff168152602001908152602001600020549050919050565b60008060003373ffffffffffffffffffffffffffffffffffffffff1673ffffffffffffffffffffffffffffffffffffffff1681526020019081526020016000208054610ed4906150e7565b905014610f16576040517f08c379a0000000000000000000000000000000000000000000000000000000008152600401610f0d90614e5b565b60405180910390fd5b600073ffffffffffffffffffffffffffffffffffffffff16600184604051610f3e9190614c0c565b908152602001604051809103902060000160009054906101000a900473ffffffffffffffffffffffffffffffffffffffff1673ffffffffffffffffffffffffffffffffffffffff1614610fc6576040517f08c379a0000000000000000000000000000000000000000000000000000000008152600401610fbd90614e3b565b60405180910390fd5b60405180608001604052803373ffffffffffffffffffffffffffffffffffffffff1681526020018381526020018481526020018281525060018460405161100d9190614c0c565b908152602001604051809103902060008201518160000160006101000a81548173ffffffffffffffffffffffffffffffffffffffff021916908373ffffffffffffffffffffffffffffffffffffffff160217905550602082015181600101908051906020019061107e9291906141f9565b50604082015181600201908051906020019061109b9291906141f9565b5060608201518160030190805190602001906110b89291906141f9565b50905050826000803373ffffffffffffffffffffffffffffffffffffffff1673ffffffffffffffffffffffffffffffffffffffff168152602001908152602001600020908051906020019061110e9291906141f9565b50505050565b6001818051602081018201805184825260208301602085012081835280955050505050506000915090508060000160009054906101000a900473ffffffffffffffffffffffffffffffffffffffff1690806001018054611173906150e7565b80601f016020809104026020016040519081016040528092919081815260200182805461119f906150e7565b80156111ec5780601f106111c1576101008083540402835291602001916111ec565b820191906000526020600020905b8154815290600101906020018083116111cf57829003601f168201915b505050505090806002018054611201906150e7565b80601f016020809104026020016040519081016040528092919081815260200182805461122d906150e7565b801561127a5780601f1061124f5761010080835404028352916020019161127a565b820191906000526020600020905b81548152906001019060200180831161125d57829003601f168201915b50505050509080600301805461128f906150e7565b80601f01602080910402602001604051908101604052809291908181526020018280546112bb906150e7565b80156113085780601f106112dd57610100808354040283529160200191611308565b820191906000526020600020905b8154815290600101906020018083116112eb57829003601f168201915b5050505050905084565b60405160200161132190614c4f565b6040516020818303038152906040528051906020012060016000803373ffffffffffffffffffffffffffffffffffffffff1673ffffffffffffffffffffffffffffffffffffffff1681526020019081526020016000206040516113849190614c23565b90815260200160405180910390206003016040516020016113a59190614c23565b60405160208183030381529060405280519060200120146113c557600080fd5b60006040518060a001604052808381526020018481526020013373ffffffffffffffffffffffffffffffffffffffff168152602001600081526020014381525090506003819080600181540180825580915050600190039060005260206000209060050201600090919091909150600082015181600001908051906020019061144f9291906141f9565b50602082015181600101908051906020019061146c9291906141f9565b5060408201518160020160006101000a81548173ffffffffffffffffffffffffffffffffffffffff021916908373ffffffffffffffffffffffffffffffffffffffff16021790555060608201518160030155608082015181600401555050505050565b600781815481106114df57600080fd5b90600052602060002090600c0201600091509050806000018054611502906150e7565b80601f016020809104026020016040519081016040528092919081815260200182805461152e906150e7565b801561157b5780601f106115505761010080835404028352916020019161157b565b820191906000526020600020905b81548152906001019060200180831161155e57829003601f168201915b5050505050908060010160009054906101000a900473ffffffffffffffffffffffffffffffffffffffff16908060020180546115b6906150e7565b80601f01602080910402602001604051908101604052809291908181526020018280546115e2906150e7565b801561162f5780601f106116045761010080835404028352916020019161162f565b820191906000526020600020905b81548152906001019060200180831161161257829003601f168201915b505050505090806003015490806004015490806005018054611650906150e7565b80601f016020809104026020016040519081016040528092919081815260200182805461167c906150e7565b80156116c95780601f1061169e576101008083540402835291602001916116c9565b820191906000526020600020905b8154815290600101906020018083116116ac57829003601f168201915b505050505090806006016040518060a00160405290816000820180546116ee906150e7565b80601f016020809104026020016040519081016040528092919081815260200182805461171a906150e7565b80156117675780601f1061173c57610100808354040283529160200191611767565b820191906000526020600020905b81548152906001019060200180831161174a57829003601f168201915b50505050508152602001600182018054611780906150e7565b80601f01602080910402602001604051908101604052809291908181526020018280546117ac906150e7565b80156117f95780601f106117ce576101008083540402835291602001916117f9565b820191906000526020600020905b8154815290600101906020018083116117dc57829003601f168201915b505050505081526020016002820160009054906101000a900473ffffffffffffffffffffffffffffffffffffffff1673ffffffffffffffffffffffffffffffffffffffff1673ffffffffffffffffffffffffffffffffffffffff168152602001600382015481526020016004820154815250509080600b01805461187c906150e7565b80601f01602080910402602001604051908101604052809291908181526020018280546118a8906150e7565b80156118f55780601f106118ca576101008083540402835291602001916118f5565b820191906000526020600020905b8154815290600101906020018083116118d857829003601f168201915b5050505050905088565b61190761427f565b60016000808473ffffffffffffffffffffffffffffffffffffffff1673ffffffffffffffffffffffffffffffffffffffff1681526020019081526020016000206040516119549190614c23565b90815260200160405180910390206040518060800160405290816000820160009054906101000a900473ffffffffffffffffffffffffffffffffffffffff1673ffffffffffffffffffffffffffffffffffffffff1673ffffffffffffffffffffffffffffffffffffffff1681526020016001820180546119d3906150e7565b80601f01602080910402602001604051908101604052809291908181526020018280546119ff906150e7565b8015611a4c5780601f10611a2157610100808354040283529160200191611a4c565b820191906000526020600020905b815481529060010190602001808311611a2f57829003601f168201915b50505050508152602001600282018054611a65906150e7565b80601f0160208091040260200160405190810160405280929190818152602001828054611a91906150e7565b8015611ade5780601f10611ab357610100808354040283529160200191611ade565b820191906000526020600020905b815481529060010190602001808311611ac157829003601f168201915b50505050508152602001600382018054611af7906150e7565b80601f0160208091040260200160405190810160405280929190818152602001828054611b23906150e7565b8015611b705780601f10611b4557610100808354040283529160200191611b70565b820191906000526020600020905b815481529060010190602001808311611b5357829003601f168201915b5050505050815250509050919050565b60058181548110611b9057600080fd5b90600052602060002090600c0201600091509050806000018054611bb3906150e7565b80601f0160208091040260200160405190810160405280929190818152602001828054611bdf906150e7565b8015611c2c5780601f10611c0157610100808354040283529160200191611c2c565b820191906000526020600020905b815481529060010190602001808311611c0f57829003601f168201915b5050505050908060010160009054906101000a900473ffffffffffffffffffffffffffffffffffffffff1690806002018054611c67906150e7565b80601f0160208091040260200160405190810160405280929190818152602001828054611c93906150e7565b8015611ce05780601f10611cb557610100808354040283529160200191611ce0565b820191906000526020600020905b815481529060010190602001808311611cc357829003601f168201915b505050505090806003015490806004015490806005018054611d01906150e7565b80601f0160208091040260200160405190810160405280929190818152602001828054611d2d906150e7565b8015611d7a5780601f10611d4f57610100808354040283529160200191611d7a565b820191906000526020600020905b815481529060010190602001808311611d5d57829003601f168201915b505050505090806006016040518060a0016040529081600082018054611d9f906150e7565b80601f0160208091040260200160405190810160405280929190818152602001828054611dcb906150e7565b8015611e185780601f10611ded57610100808354040283529160200191611e18565b820191906000526020600020905b815481529060010190602001808311611dfb57829003601f168201915b50505050508152602001600182018054611e31906150e7565b80601f0160208091040260200160405190810160405280929190818152602001828054611e5d906150e7565b8015611eaa5780601f10611e7f57610100808354040283529160200191611eaa565b820191906000526020600020905b815481529060010190602001808311611e8d57829003601f168201915b505050505081526020016002820160009054906101000a900473ffffffffffffffffffffffffffffffffffffffff1673ffffffffffffffffffffffffffffffffffffffff1673ffffffffffffffffffffffffffffffffffffffff168152602001600382015481526020016004820154815250509080600b018054611f2d906150e7565b80601f0160208091040260200160405190810160405280929190818152602001828054611f59906150e7565b8015611fa65780601f10611f7b57610100808354040283529160200191611fa6565b820191906000526020600020905b815481529060010190602001808311611f8957829003601f168201915b5050505050905088565b60606005805480602002602001604051908101604052809291908181526020016000905b8282101561245b57838290600052602060002090600c020160405180610100016040529081600082018054612008906150e7565b80601f0160208091040260200160405190810160405280929190818152602001828054612034906150e7565b80156120815780601f1061205657610100808354040283529160200191612081565b820191906000526020600020905b81548152906001019060200180831161206457829003601f168201915b505050505081526020016001820160009054906101000a900473ffffffffffffffffffffffffffffffffffffffff1673ffffffffffffffffffffffffffffffffffffffff1673ffffffffffffffffffffffffffffffffffffffff1681526020016002820180546120f0906150e7565b80601f016020809104026020016040519081016040528092919081815260200182805461211c906150e7565b80156121695780601f1061213e57610100808354040283529160200191612169565b820191906000526020600020905b81548152906001019060200180831161214c57829003601f168201915b505050505081526020016003820154815260200160048201548152602001600582018054612196906150e7565b80601f01602080910402602001604051908101604052809291908181526020018280546121c2906150e7565b801561220f5780601f106121e45761010080835404028352916020019161220f565b820191906000526020600020905b8154815290600101906020018083116121f257829003601f168201915b50505050508152602001600682016040518060a0016040529081600082018054612238906150e7565b80601f0160208091040260200160405190810160405280929190818152602001828054612264906150e7565b80156122b15780601f10612286576101008083540402835291602001916122b1565b820191906000526020600020905b81548152906001019060200180831161229457829003601f168201915b505050505081526020016001820180546122ca906150e7565b80601f01602080910402602001604051908101604052809291908181526020018280546122f6906150e7565b80156123435780601f1061231857610100808354040283529160200191612343565b820191906000526020600020905b81548152906001019060200180831161232657829003601f168201915b505050505081526020016002820160009054906101000a900473ffffffffffffffffffffffffffffffffffffffff1673ffffffffffffffffffffffffffffffffffffffff1673ffffffffffffffffffffffffffffffffffffffff168152602001600382015481526020016004820154815250508152602001600b820180546123ca906150e7565b80601f01602080910402602001604051908101604052809291908181526020018280546123f6906150e7565b80156124435780601f1061241857610100808354040283529160200191612443565b820191906000526020600020905b81548152906001019060200180831161242657829003601f168201915b50505050508152505081526020019060010190611fd4565b50505050905090565b60008060003373ffffffffffffffffffffffffffffffffffffffff1673ffffffffffffffffffffffffffffffffffffffff16815260200190815260200160002080546124af906150e7565b9050146124f1576040517f08c379a00000000000000000000000000000000000000000000000000000000081526004016124e890614e5b565b60405180910390fd5b600073ffffffffffffffffffffffffffffffffffffffff166001856040516125199190614c0c565b908152602001604051809103902060000160009054906101000a900473ffffffffffffffffffffffffffffffffffffffff1673ffffffffffffffffffffffffffffffffffffffff16146125a1576040517f08c379a000000000000000000000000000000000000000000000000000000000815260040161259890614e3b565b60405180910390fd5b60405180608001604052803373ffffffffffffffffffffffffffffffffffffffff168152602001848152602001858152602001838152506001856040516125e89190614c0c565b908152602001604051809103902060008201518160000160006101000a81548173ffffffffffffffffffffffffffffffffffffffff021916908373ffffffffffffffffffffffffffffffffffffffff16021790555060208201518160010190805190602001906126599291906141f9565b5060408201518160020190805190602001906126769291906141f9565b5060608201518160030190805190602001906126939291906141f9565b50905050836000803373ffffffffffffffffffffffffffffffffffffffff1673ffffffffffffffffffffffffffffffffffffffff16815260200190815260200160002090805190602001906126e99291906141f9565b506040516020016126f990614c4f565b6040516020818303038152906040528051906020012060016000803373ffffffffffffffffffffffffffffffffffffffff1673ffffffffffffffffffffffffffffffffffffffff16815260200190815260200160002060405161275c9190614c23565b908152602001604051809103902060030160405160200161277d9190614c23565b604051602081830303815290604052805190602001201461279d57600080fd5b80600260003373ffffffffffffffffffffffffffffffffffffffff1673ffffffffffffffffffffffffffffffffffffffff16815260200190815260200160002090805190602001906127f09291906141f9565b5050505050565b60405160200161280690614c4f565b6040516020818303038152906040528051906020012060016000803373ffffffffffffffffffffffffffffffffffffffff1673ffffffffffffffffffffffffffffffffffffffff1681526020019081526020016000206040516128699190614c23565b908152602001604051809103902060030160405160200161288a9190614c23565b60405160208183030381529060405280519060200120146128aa57600080fd5b60006040518061010001604052808681526020013373ffffffffffffffffffffffffffffffffffffffff1681526020016000803373ffffffffffffffffffffffffffffffffffffffff1673ffffffffffffffffffffffffffffffffffffffff1681526020019081526020016000208054612923906150e7565b80601f016020809104026020016040519081016040528092919081815260200182805461294f906150e7565b801561299c5780601f106129715761010080835404028352916020019161299c565b820191906000526020600020905b81548152906001019060200180831161297f57829003601f168201915b50505050508152602001858152602001438152602001600260003373ffffffffffffffffffffffffffffffffffffffff1673ffffffffffffffffffffffffffffffffffffffff16815260200190815260200160002080546129fc906150e7565b80601f0160208091040260200160405190810160405280929190818152602001828054612a28906150e7565b8015612a755780601f10612a4a57610100808354040283529160200191612a75565b820191906000526020600020905b815481529060010190602001808311612a5857829003601f168201915b5050505050815260200160038581548110612ab9577f4e487b7100000000000000000000000000000000000000000000000000000000600052603260045260246000fd5b90600052602060002090600502016040518060a0016040529081600082018054612ae2906150e7565b80601f0160208091040260200160405190810160405280929190818152602001828054612b0e906150e7565b8015612b5b5780601f10612b3057610100808354040283529160200191612b5b565b820191906000526020600020905b815481529060010190602001808311612b3e57829003601f168201915b50505050508152602001600182018054612b74906150e7565b80601f0160208091040260200160405190810160405280929190818152602001828054612ba0906150e7565b8015612bed5780601f10612bc257610100808354040283529160200191612bed565b820191906000526020600020905b815481529060010190602001808311612bd057829003601f168201915b505050505081526020016002820160009054906101000a900473ffffffffffffffffffffffffffffffffffffffff1673ffffffffffffffffffffffffffffffffffffffff1673ffffffffffffffffffffffffffffffffffffffff16815260200160038201548152602001600482015481525050815260200183815250905060058190806001815401808255809150506001900390600052602060002090600c02016000909190919091506000820151816000019080519060200190612cb39291906141f9565b5060208201518160010160006101000a81548173ffffffffffffffffffffffffffffffffffffffff021916908373ffffffffffffffffffffffffffffffffffffffff1602179055506040820151816002019080519060200190612d179291906141f9565b50606082015181600301556080820151816004015560a0820151816005019080519060200190612d489291906141f9565b5060c0820151816006016000820151816000019080519060200190612d6e9291906141f9565b506020820151816001019080519060200190612d8b9291906141f9565b5060408201518160020160006101000a81548173ffffffffffffffffffffffffffffffffffffffff021916908373ffffffffffffffffffffffffffffffffffffffff1602179055506060820151816003015560808201518160040155505060e082015181600b019080519060200190612e059291906141f9565b5050505050505050565b60606006805480602002602001604051908101604052809291908181526020016000905b828210156132ba57838290600052602060002090600c020160405180610100016040529081600082018054612e67906150e7565b80601f0160208091040260200160405190810160405280929190818152602001828054612e93906150e7565b8015612ee05780601f10612eb557610100808354040283529160200191612ee0565b820191906000526020600020905b815481529060010190602001808311612ec357829003601f168201915b505050505081526020016001820160009054906101000a900473ffffffffffffffffffffffffffffffffffffffff1673ffffffffffffffffffffffffffffffffffffffff1673ffffffffffffffffffffffffffffffffffffffff168152602001600282018054612f4f906150e7565b80601f0160208091040260200160405190810160405280929190818152602001828054612f7b906150e7565b8015612fc85780601f10612f9d57610100808354040283529160200191612fc8565b820191906000526020600020905b815481529060010190602001808311612fab57829003601f168201915b505050505081526020016003820154815260200160048201548152602001600582018054612ff5906150e7565b80601f0160208091040260200160405190810160405280929190818152602001828054613021906150e7565b801561306e5780601f106130435761010080835404028352916020019161306e565b820191906000526020600020905b81548152906001019060200180831161305157829003601f168201915b50505050508152602001600682016040518060a0016040529081600082018054613097906150e7565b80601f01602080910402602001604051908101604052809291908181526020018280546130c3906150e7565b80156131105780601f106130e557610100808354040283529160200191613110565b820191906000526020600020905b8154815290600101906020018083116130f357829003601f168201915b50505050508152602001600182018054613129906150e7565b80601f0160208091040260200160405190810160405280929190818152602001828054613155906150e7565b80156131a25780601f10613177576101008083540402835291602001916131a2565b820191906000526020600020905b81548152906001019060200180831161318557829003601f168201915b505050505081526020016002820160009054906101000a900473ffffffffffffffffffffffffffffffffffffffff1673ffffffffffffffffffffffffffffffffffffffff1673ffffffffffffffffffffffffffffffffffffffff168152602001600382015481526020016004820154815250508152602001600b82018054613229906150e7565b80601f0160208091040260200160405190810160405280929190818152602001828054613255906150e7565b80156132a25780601f10613277576101008083540402835291602001916132a2565b820191906000526020600020905b81548152906001019060200180831161328557829003601f168201915b50505050508152505081526020019060010190612e33565b50505050905090565b6040516020016132d290614c3a565b6040516020818303038152906040528051906020012060016000803373ffffffffffffffffffffffffffffffffffffffff1673ffffffffffffffffffffffffffffffffffffffff1681526020019081526020016000206040516133359190614c23565b90815260200160405180910390206003016040516020016133569190614c23565b604051602081830303815290604052805190602001201461337657600080fd5b6007600582815481106133b2577f4e487b7100000000000000000000000000000000000000000000000000000000600052603260045260246000fd5b90600052602060002090600c020190806001815401808255809150506001900390600052602060002090600c020160009091909190915060008201816000019080546133fd906150e7565b61340892919061416c565b506001820160009054906101000a900473ffffffffffffffffffffffffffffffffffffffff168160010160006101000a81548173ffffffffffffffffffffffffffffffffffffffff021916908373ffffffffffffffffffffffffffffffffffffffff1602179055506002820181600201908054613484906150e7565b61348f92919061416c565b50600382015481600301556004820154816004015560058201816005019080546134b8906150e7565b6134c392919061416c565b50600682018160060160008201816000019080546134e0906150e7565b6134eb92919061416c565b506001820181600101908054613500906150e7565b61350b92919061416c565b506002820160009054906101000a900473ffffffffffffffffffffffffffffffffffffffff168160020160006101000a81548173ffffffffffffffffffffffffffffffffffffffff021916908373ffffffffffffffffffffffffffffffffffffffff16021790555060038201548160030155600482015481600401555050600b820181600b0190805461359d906150e7565b6135a892919061416c565b5050506135b481613dce565b50565b60606003805480602002602001604051908101604052809291908181526020016000905b8282101561379b57838290600052602060002090600502016040518060a001604052908160008201805461360e906150e7565b80601f016020809104026020016040519081016040528092919081815260200182805461363a906150e7565b80156136875780601f1061365c57610100808354040283529160200191613687565b820191906000526020600020905b81548152906001019060200180831161366a57829003601f168201915b505050505081526020016001820180546136a0906150e7565b80601f01602080910402602001604051908101604052809291908181526020018280546136cc906150e7565b80156137195780601f106136ee57610100808354040283529160200191613719565b820191906000526020600020905b8154815290600101906020018083116136fc57829003601f168201915b505050505081526020016002820160009054906101000a900473ffffffffffffffffffffffffffffffffffffffff1673ffffffffffffffffffffffffffffffffffffffff1673ffffffffffffffffffffffffffffffffffffffff16815260200160038201548152602001600482015481525050815260200190600101906135db565b50505050905090565b600060205280600052604060002060009150905080546137c3906150e7565b80601f01602080910402602001604051908101604052809291908181526020018280546137ef906150e7565b801561383c5780601f106138115761010080835404028352916020019161383c565b820191906000526020600020905b81548152906001019060200180831161381f57829003601f168201915b505050505081565b60405160200161385390614c64565b6040516020818303038152906040528051906020012060016000803373ffffffffffffffffffffffffffffffffffffffff1673ffffffffffffffffffffffffffffffffffffffff1681526020019081526020016000206040516138b69190614c23565b90815260200160405180910390206003016040516020016138d79190614c23565b60405160208183030381529060405280519060200120146138f757600080fd5b346004600083815260200190815260200160002060003373ffffffffffffffffffffffffffffffffffffffff1673ffffffffffffffffffffffffffffffffffffffff16815260200190815260200160002060008282546139579190614fcd565b9250508190555050565b60606040518060400160405280600481526020017f4155435a00000000000000000000000000000000000000000000000000000000815250905090565b600681815481106139ae57600080fd5b90600052602060002090600c02016000915090508060000180546139d1906150e7565b80601f01602080910402602001604051908101604052809291908181526020018280546139fd906150e7565b8015613a4a5780601f10613a1f57610100808354040283529160200191613a4a565b820191906000526020600020905b815481529060010190602001808311613a2d57829003601f168201915b5050505050908060010160009054906101000a900473ffffffffffffffffffffffffffffffffffffffff1690806002018054613a85906150e7565b80601f0160208091040260200160405190810160405280929190818152602001828054613ab1906150e7565b8015613afe5780601f10613ad357610100808354040283529160200191613afe565b820191906000526020600020905b815481529060010190602001808311613ae157829003601f168201915b505050505090806003015490806004015490806005018054613b1f906150e7565b80601f0160208091040260200160405190810160405280929190818152602001828054613b4b906150e7565b8015613b985780601f10613b6d57610100808354040283529160200191613b98565b820191906000526020600020905b815481529060010190602001808311613b7b57829003601f168201915b505050505090806006016040518060a0016040529081600082018054613bbd906150e7565b80601f0160208091040260200160405190810160405280929190818152602001828054613be9906150e7565b8015613c365780601f10613c0b57610100808354040283529160200191613c36565b820191906000526020600020905b815481529060010190602001808311613c1957829003601f168201915b50505050508152602001600182018054613c4f906150e7565b80601f0160208091040260200160405190810160405280929190818152602001828054613c7b906150e7565b8015613cc85780601f10613c9d57610100808354040283529160200191613cc8565b820191906000526020600020905b815481529060010190602001808311613cab57829003601f168201915b505050505081526020016002820160009054906101000a900473ffffffffffffffffffffffffffffffffffffffff1673ffffffffffffffffffffffffffffffffffffffff1673ffffffffffffffffffffffffffffffffffffffff168152602001600382015481526020016004820154815250509080600b018054613d4b906150e7565b80601f0160208091040260200160405190810160405280929190818152602001828054613d77906150e7565b8015613dc45780601f10613d9957610100808354040283529160200191613dc4565b820191906000526020600020905b815481529060010190602001808311613da757829003601f168201915b5050505050905088565b6005805490508110613ddf57600080fd5b60056001600580549050613df39190615023565b81548110613e2a577f4e487b7100000000000000000000000000000000000000000000000000000000600052603260045260246000fd5b90600052602060002090600c020160058281548110613e72577f4e487b7100000000000000000000000000000000000000000000000000000000600052603260045260246000fd5b90600052602060002090600c02016000820181600001908054613e94906150e7565b613e9f92919061416c565b506001820160009054906101000a900473ffffffffffffffffffffffffffffffffffffffff168160010160006101000a81548173ffffffffffffffffffffffffffffffffffffffff021916908373ffffffffffffffffffffffffffffffffffffffff1602179055506002820181600201908054613f1b906150e7565b613f2692919061416c565b5060038201548160030155600482015481600401556005820181600501908054613f4f906150e7565b613f5a92919061416c565b5060068201816006016000820181600001908054613f77906150e7565b613f8292919061416c565b506001820181600101908054613f97906150e7565b613fa292919061416c565b506002820160009054906101000a900473ffffffffffffffffffffffffffffffffffffffff168160020160006101000a81548173ffffffffffffffffffffffffffffffffffffffff021916908373ffffffffffffffffffffffffffffffffffffffff16021790555060038201548160030155600482015481600401555050600b820181600b01908054614034906150e7565b61403f92919061416c565b50905050600580548061407b577f4e487b7100000000000000000000000000000000000000000000000000000000600052603160045260246000fd5b60019003818190600052602060002090600c0201600080820160006140a091906142bd565b6001820160006101000a81549073ffffffffffffffffffffffffffffffffffffffff02191690556002820160006140d791906142bd565b600382016000905560048201600090556005820160006140f791906142bd565b600682016000808201600061410c91906142bd565b60018201600061411c91906142bd565b6002820160006101000a81549073ffffffffffffffffffffffffffffffffffffffff0219169055600382016000905560048201600090555050600b8201600061416591906142bd565b5050905550565b828054614178906150e7565b90600052602060002090601f01602090048101928261419a57600085556141e8565b82601f106141ab57805485556141e8565b828001600101855582156141e857600052602060002091601f016020900482015b828111156141e75782548255916001019190600101906141cc565b5b5090506141f591906142fd565b5090565b828054614205906150e7565b90600052602060002090601f016020900481019282614227576000855561426e565b82601f1061424057805160ff191683800117855561426e565b8280016001018555821561426e579182015b8281111561426d578251825591602001919060010190614252565b5b50905061427b91906142fd565b5090565b6040518060800160405280600073ffffffffffffffffffffffffffffffffffffffff1681526020016060815260200160608152602001606081525090565b5080546142c9906150e7565b6000825580601f106142db57506142fa565b601f0160209004906000526020600020908101906142f991906142fd565b5b50565b5b808211156143165760008160009055506001016142fe565b5090565b600061432d61432884614edd565b614eb8565b90508281526020810184848401111561434557600080fd5b6143508482856150a5565b509392505050565b600081359050614367816152db565b92915050565b600082601f83011261437e57600080fd5b813561438e84826020860161431a565b91505092915050565b6000813590506143a6816152f2565b92915050565b6000602082840312156143be57600080fd5b60006143cc84828501614358565b91505092915050565b6000602082840312156143e757600080fd5b600082013567ffffffffffffffff81111561440157600080fd5b61440d8482850161436d565b91505092915050565b6000806040838503121561442957600080fd5b600083013567ffffffffffffffff81111561444357600080fd5b61444f8582860161436d565b925050602083013567ffffffffffffffff81111561446c57600080fd5b6144788582860161436d565b9150509250929050565b60008060006060848603121561449757600080fd5b600084013567ffffffffffffffff8111156144b157600080fd5b6144bd8682870161436d565b935050602084013567ffffffffffffffff8111156144da57600080fd5b6144e68682870161436d565b925050604084013567ffffffffffffffff81111561450357600080fd5b61450f8682870161436d565b9150509250925092565b6000806000806080858703121561452f57600080fd5b600085013567ffffffffffffffff81111561454957600080fd5b6145558782880161436d565b945050602085013567ffffffffffffffff81111561457257600080fd5b61457e8782880161436d565b935050604085013567ffffffffffffffff81111561459b57600080fd5b6145a78782880161436d565b925050606085013567ffffffffffffffff8111156145c457600080fd5b6145d08782880161436d565b91505092959194509250565b600080600080608085870312156145f257600080fd5b600085013567ffffffffffffffff81111561460c57600080fd5b6146188782880161436d565b945050602061462987828801614397565b935050604061463a87828801614397565b925050606085013567ffffffffffffffff81111561465757600080fd5b6146638782880161436d565b91505092959194509250565b60006020828403121561468157600080fd5b600061468f84828501614397565b91505092915050565b60006146a483836149b7565b905092915050565b60006146b88383614ab1565b905092915050565b6146c981615069565b82525050565b6146d881615069565b82525050565b6146e781615057565b82525050565b6146f681615057565b82525050565b600061470782614f43565b6147118185614f7e565b93508360208202850161472385614f0e565b8060005b8581101561475f57848403895281516147408582614698565b945061474b83614f64565b925060208a01995050600181019050614727565b50829750879550505050505092915050565b600061477c82614f4e565b6147868185614f8f565b93508360208202850161479885614f1e565b8060005b858110156147d457848403895281516147b585826146ac565b94506147c083614f71565b925060208a0199505060018101905061479c565b50829750879550505050505092915050565b60006147f182614f59565b6147fb8185614fa0565b935061480b8185602086016150b4565b614814816151d7565b840191505092915050565b600061482a82614f59565b6148348185614fb1565b93506148448185602086016150b4565b61484d816151d7565b840191505092915050565b600061486382614f59565b61486d8185614fc2565b935061487d8185602086016150b4565b80840191505092915050565b60008154614896816150e7565b6148a08186614fc2565b945060018216600081146148bb57600181146148cc576148ff565b60ff198316865281860193506148ff565b6148d585614f2e565b60005b838110156148f7578154818901526001820191506020810190506148d8565b838801955050505b50505092915050565b6000614915602683614fb1565b9150614920826151e8565b604082019050919050565b6000614938601383614fb1565b915061494382615237565b602082019050919050565b600061495b600983614fc2565b915061496682615260565b600982019050919050565b600061497e600b83614fc2565b915061498982615289565b600b82019050919050565b60006149a1600583614fc2565b91506149ac826152b2565b600582019050919050565b600060a08301600083015184820360008601526149d482826147e6565b915050602083015184820360208601526149ee82826147e6565b9150506040830151614a0360408601826146de565b506060830151614a166060860182614bee565b506080830151614a296080860182614bee565b508091505092915050565b600060a0830160008301518482036000860152614a5182826147e6565b91505060208301518482036020860152614a6b82826147e6565b9150506040830151614a8060408601826146de565b506060830151614a936060860182614bee565b506080830151614aa66080860182614bee565b508091505092915050565b6000610100830160008301518482036000860152614acf82826147e6565b9150506020830151614ae460208601826146c0565b5060408301518482036040860152614afc82826147e6565b9150506060830151614b116060860182614bee565b506080830151614b246080860182614bee565b5060a083015184820360a0860152614b3c82826147e6565b91505060c083015184820360c0860152614b5682826149b7565b91505060e083015184820360e0860152614b7082826147e6565b9150508091505092915050565b6000608083016000830151614b9560008601826146de565b5060208301518482036020860152614bad82826147e6565b91505060408301518482036040860152614bc782826147e6565b91505060608301518482036060860152614be182826147e6565b9150508091505092915050565b614bf78161509b565b82525050565b614c068161509b565b82525050565b6000614c188284614858565b915081905092915050565b6000614c2f8284614889565b915081905092915050565b6000614c458261494e565b9150819050919050565b6000614c5a82614971565b9150819050919050565b6000614c6f82614994565b9150819050919050565b6000608082019050614c8e60008301876146ed565b8181036020830152614ca0818661481f565b90508181036040830152614cb4818561481f565b90508181036060830152614cc8818461481f565b905095945050505050565b60006020820190508181036000830152614ced81846146fc565b905092915050565b60006020820190508181036000830152614d0f8184614771565b905092915050565b60006020820190508181036000830152614d31818461481f565b905092915050565b6000610100820190508181036000830152614d54818b61481f565b9050614d63602083018a6146cf565b8181036040830152614d75818961481f565b9050614d846060830188614bfd565b614d916080830187614bfd565b81810360a0830152614da3818661481f565b905081810360c0830152614db78185614a34565b905081810360e0830152614dcb818461481f565b90509998505050505050505050565b600060a0820190508181036000830152614df4818861481f565b90508181036020830152614e08818761481f565b9050614e1760408301866146ed565b614e246060830185614bfd565b614e316080830184614bfd565b9695505050505050565b60006020820190508181036000830152614e5481614908565b9050919050565b60006020820190508181036000830152614e748161492b565b9050919050565b60006020820190508181036000830152614e958184614b7d565b905092915050565b6000602082019050614eb26000830184614bfd565b92915050565b6000614ec2614ed3565b9050614ece8282615119565b919050565b6000604051905090565b600067ffffffffffffffff821115614ef857614ef76151a8565b5b614f01826151d7565b9050602081019050919050565b6000819050602082019050919050565b6000819050602082019050919050565b60008190508160005260206000209050919050565b600081519050919050565b600081519050919050565b600081519050919050565b6000602082019050919050565b6000602082019050919050565b600082825260208201905092915050565b600082825260208201905092915050565b600082825260208201905092915050565b600082825260208201905092915050565b600081905092915050565b6000614fd88261509b565b9150614fe38361509b565b9250827fffffffffffffffffffffffffffffffffffffffffffffffffffffffffffffffff038211156150185761501761514a565b5b828201905092915050565b600061502e8261509b565b91506150398361509b565b92508282101561504c5761504b61514a565b5b828203905092915050565b60006150628261507b565b9050919050565b60006150748261507b565b9050919050565b600073ffffffffffffffffffffffffffffffffffffffff82169050919050565b6000819050919050565b82818337600083830152505050565b60005b838110156150d25780820151818401526020810190506150b7565b838111156150e1576000848401525b50505050565b600060028204905060018216806150ff57607f821691505b6020821081141561511357615112615179565b5b50919050565b615122826151d7565b810181811067ffffffffffffffff82111715615141576151406151a8565b5b80604052505050565b7f4e487b7100000000000000000000000000000000000000000000000000000000600052601160045260246000fd5b7f4e487b7100000000000000000000000000000000000000000000000000000000600052602260045260246000fd5b7f4e487b7100000000000000000000000000000000000000000000000000000000600052604160045260246000fd5b6000601f19601f8301169050919050565b7f557365726e616d6520697320616c72656164792074616b656e2c20547279206160008201527f6e6f746865720000000000000000000000000000000000000000000000000000602082015250565b7f5573657220616c72656164792065786973747300000000000000000000000000600082015250565b7f76616c696461746f720000000000000000000000000000000000000000000000600082015250565b7f62656e6566696369617279000000000000000000000000000000000000000000600082015250565b7f646f6e6f72000000000000000000000000000000000000000000000000000000600082015250565b6152e481615057565b81146152ef57600080fd5b50565b6152fb8161509b565b811461530657600080fd5b5056fea264697066735822122084311360358747720bd2da2f508178197cd25a555e9dde613a3413ca714206ef64736f6c63430008040033",
  "linkReferences": {},
  "deployedLinkReferences": {}
}