{
  "_format": "hh-sol-artifact-1",
  "contractName": "Charity",
  "sourceName": "contracts/CIP.sol",
  "abi": [
    {
      "inputs": [
        {
          "internalType": "uint256",
          "name": "reqId",
          "type": "uint256"
        }
      ],
      "name": "approveRequest",
      "outputs": [],
      "stateMutability": "nonpayable",
      "type": "function"
    },
    {
      "inputs": [
        {
          "internalType": "string",
          "name": "d",
          "type": "string"
        },
        {
          "internalType": "string",
          "name": "t",
          "type": "string"
        }
      ],
      "name": "createProject",
      "outputs": [],
      "stateMutability": "nonpayable",
      "type": "function"
    },
    {
      "inputs": [
        {
          "internalType": "string",
          "name": "r",
          "type": "string"
        },
        {
          "internalType": "uint256",
          "name": "amount",
          "type": "uint256"
        },
        {
          "internalType": "uint256",
          "name": "projId",
          "type": "uint256"
        }
      ],
      "name": "createRequest",
      "outputs": [],
      "stateMutability": "nonpayable",
      "type": "function"
    },
    {
      "inputs": [],
      "name": "getProjects",
      "outputs": [
        {
          "components": [
            {
              "internalType": "string",
              "name": "title",
              "type": "string"
            },
            {
              "internalType": "string",
              "name": "description",
              "type": "string"
            },
            {
              "internalType": "address",
              "name": "creator",
              "type": "address"
            },
            {
              "internalType": "uint256",
              "name": "investorCount",
              "type": "uint256"
            }
          ],
          "internalType": "struct Charity.Project[]",
          "name": "",
          "type": "tuple[]"
        }
      ],
      "stateMutability": "view",
      "type": "function"
    },
    {
      "inputs": [],
      "name": "getRequests",
      "outputs": [
        {
          "components": [
            {
              "internalType": "string",
              "name": "reason",
              "type": "string"
            },
            {
              "internalType": "address",
              "name": "requestor",
              "type": "address"
            },
            {
              "internalType": "uint256",
              "name": "amount",
              "type": "uint256"
            },
            {
              "internalType": "uint256",
              "name": "reqId",
              "type": "uint256"
            },
            {
              "internalType": "bool",
              "name": "verified",
              "type": "bool"
            },
            {
              "components": [
                {
                  "internalType": "string",
                  "name": "title",
                  "type": "string"
                },
                {
                  "internalType": "string",
                  "name": "description",
                  "type": "string"
                },
                {
                  "internalType": "address",
                  "name": "creator",
                  "type": "address"
                },
                {
                  "internalType": "uint256",
                  "name": "investorCount",
                  "type": "uint256"
                }
              ],
              "internalType": "struct Charity.Project",
              "name": "proj",
              "type": "tuple"
            }
          ],
          "internalType": "struct Charity.Request[]",
          "name": "",
          "type": "tuple[]"
        }
      ],
      "stateMutability": "view",
      "type": "function"
    },
    {
      "inputs": [
        {
          "internalType": "address",
          "name": "_wallet",
          "type": "address"
        }
      ],
      "name": "getUser",
      "outputs": [
        {
          "components": [
            {
              "internalType": "address",
              "name": "wallet",
              "type": "address"
            },
            {
              "internalType": "string",
              "name": "name",
              "type": "string"
            },
            {
              "internalType": "string",
              "name": "username",
              "type": "string"
            },
            {
              "internalType": "string",
              "name": "usertype",
              "type": "string"
            }
          ],
          "internalType": "struct Charity.User",
          "name": "",
          "type": "tuple"
        }
      ],
      "stateMutability": "view",
      "type": "function"
    },
    {
      "inputs": [],
      "name": "getValidatorSecret",
      "outputs": [
        {
          "internalType": "string",
          "name": "",
          "type": "string"
        }
      ],
      "stateMutability": "pure",
      "type": "function"
    },
    {
      "inputs": [
        {
          "internalType": "uint256",
          "name": "",
          "type": "uint256"
        }
      ],
      "name": "projects",
      "outputs": [
        {
          "internalType": "string",
          "name": "title",
          "type": "string"
        },
        {
          "internalType": "string",
          "name": "description",
          "type": "string"
        },
        {
          "internalType": "address",
          "name": "creator",
          "type": "address"
        },
        {
          "internalType": "uint256",
          "name": "investorCount",
          "type": "uint256"
        }
      ],
      "stateMutability": "view",
      "type": "function"
    },
    {
      "inputs": [
        {
          "internalType": "string",
          "name": "_username",
          "type": "string"
        },
        {
          "internalType": "string",
          "name": "_name",
          "type": "string"
        },
        {
          "internalType": "string",
          "name": "_usertype",
          "type": "string"
        }
      ],
      "name": "register",
      "outputs": [],
      "stateMutability": "nonpayable",
      "type": "function"
    },
    {
      "inputs": [
        {
          "internalType": "uint256",
          "name": "reqId",
          "type": "uint256"
        }
      ],
      "name": "rejectRequest",
      "outputs": [],
      "stateMutability": "nonpayable",
      "type": "function"
    },
    {
      "inputs": [
        {
          "internalType": "uint256",
          "name": "",
          "type": "uint256"
        }
      ],
      "name": "requests",
      "outputs": [
        {
          "internalType": "string",
          "name": "reason",
          "type": "string"
        },
        {
          "internalType": "address",
          "name": "requestor",
          "type": "address"
        },
        {
          "internalType": "uint256",
          "name": "amount",
          "type": "uint256"
        },
        {
          "internalType": "uint256",
          "name": "reqId",
          "type": "uint256"
        },
        {
          "internalType": "bool",
          "name": "verified",
          "type": "bool"
        },
        {
          "components": [
            {
              "internalType": "string",
              "name": "title",
              "type": "string"
            },
            {
              "internalType": "string",
              "name": "description",
              "type": "string"
            },
            {
              "internalType": "address",
              "name": "creator",
              "type": "address"
            },
            {
              "internalType": "uint256",
              "name": "investorCount",
              "type": "uint256"
            }
          ],
          "internalType": "struct Charity.Project",
          "name": "proj",
          "type": "tuple"
        }
      ],
      "stateMutability": "view",
      "type": "function"
    },
    {
      "inputs": [
        {
          "internalType": "address",
          "name": "",
          "type": "address"
        }
      ],
      "name": "usernames",
      "outputs": [
        {
          "internalType": "string",
          "name": "",
          "type": "string"
        }
      ],
      "stateMutability": "view",
      "type": "function"
    },
    {
      "inputs": [
        {
          "internalType": "string",
          "name": "",
          "type": "string"
        }
      ],
      "name": "users",
      "outputs": [
        {
          "internalType": "address",
          "name": "wallet",
          "type": "address"
        },
        {
          "internalType": "string",
          "name": "name",
          "type": "string"
        },
        {
          "internalType": "string",
          "name": "username",
          "type": "string"
        },
        {
          "internalType": "string",
          "name": "usertype",
          "type": "string"
        }
      ],
      "stateMutability": "view",
      "type": "function"
    }
  ],
  "bytecode": "0x608060405234801561001057600080fd5b50612dee806100206000396000f3fe608060405234801561001057600080fd5b50600436106100cf5760003560e01c806381d12c581161008c578063dcc6012811610066578063dcc601281461022d578063ee91877c1461024b578063f97cbe231461027b578063fbccc84114610299576100cf565b806381d12c58146101be5780638813ce12146101f3578063d7d1bbdb14610211576100cf565b8063107046bd146100d45780632d7788db146101075780634cd08d0314610123578063689e1c031461013f5780636bd06204146101725780636f77926b1461018e575b600080fd5b6100ee60048036038101906100e99190612298565b6102b5565b6040516100fe9493929190612937565b60405180910390f35b610121600480360381019061011c9190612298565b610425565b005b61013d6004803603810190610138919061219a565b6104e4565b005b610159600480360381019061015491906120ed565b61076f565b6040516101699493929190612808565b60405180910390f35b61018c6004803603810190610187919061212e565b61096d565b005b6101a860048036038101906101a391906120c4565b610b1a565b6040516101b591906129ca565b60405180910390f35b6101d860048036038101906101d39190612298565b610d9b565b6040516101ea969594939291906128c8565b60405180910390f35b6101fb61102a565b6040516102089190612884565b60405180910390f35b61022b60048036038101906102269190612298565b611338565b005b610235611452565b6040516102429190612862565b60405180910390f35b610265600480360381019061026091906120c4565b611635565b60405161027291906128a6565b60405180910390f35b6102836116d5565b60405161029091906128a6565b60405180910390f35b6102b360048036038101906102ae9190612231565b611712565b005b600281815481106102c557600080fd5b90600052602060002090600402016000915090508060000180546102e890612bbf565b80601f016020809104026020016040519081016040528092919081815260200182805461031490612bbf565b80156103615780601f1061033657610100808354040283529160200191610361565b820191906000526020600020905b81548152906001019060200180831161034457829003601f168201915b50505050509080600101805461037690612bbf565b80601f01602080910402602001604051908101604052809291908181526020018280546103a290612bbf565b80156103ef5780601f106103c4576101008083540402835291602001916103ef565b820191906000526020600020905b8154815290600101906020018083116103d257829003601f168201915b5050505050908060020160009054906101000a900473ffffffffffffffffffffffffffffffffffffffff16908060030154905084565b604051602001610434906127de565b6040516020818303038152906040528051906020012060016000803373ffffffffffffffffffffffffffffffffffffffff1673ffffffffffffffffffffffffffffffffffffffff16815260200190815260200160002060405161049791906127c7565b90815260200160405180910390206003016040516020016104b891906127c7565b60405160208183030381529060405280519060200120146104d857600080fd5b6104e181611b47565b50565b60008060003373ffffffffffffffffffffffffffffffffffffffff1673ffffffffffffffffffffffffffffffffffffffff168152602001908152602001600020805461052f90612bbf565b905014610571576040517f08c379a0000000000000000000000000000000000000000000000000000000008152600401610568906129aa565b60405180910390fd5b600073ffffffffffffffffffffffffffffffffffffffff1660018460405161059991906127b0565b908152602001604051809103902060000160009054906101000a900473ffffffffffffffffffffffffffffffffffffffff1673ffffffffffffffffffffffffffffffffffffffff1614610621576040517f08c379a00000000000000000000000000000000000000000000000000000000081526004016106189061298a565b60405180910390fd5b60405180608001604052803373ffffffffffffffffffffffffffffffffffffffff1681526020018381526020018481526020018281525060018460405161066891906127b0565b908152602001604051809103902060008201518160000160006101000a81548173ffffffffffffffffffffffffffffffffffffffff021916908373ffffffffffffffffffffffffffffffffffffffff16021790555060208201518160010190805190602001906106d9929190611e84565b5060408201518160020190805190602001906106f6929190611e84565b506060820151816003019080519060200190610713929190611e84565b50905050826000803373ffffffffffffffffffffffffffffffffffffffff1673ffffffffffffffffffffffffffffffffffffffff1681526020019081526020016000209080519060200190610769929190611e84565b50505050565b6001818051602081018201805184825260208301602085012081835280955050505050506000915090508060000160009054906101000a900473ffffffffffffffffffffffffffffffffffffffff16908060010180546107ce90612bbf565b80601f01602080910402602001604051908101604052809291908181526020018280546107fa90612bbf565b80156108475780601f1061081c57610100808354040283529160200191610847565b820191906000526020600020905b81548152906001019060200180831161082a57829003601f168201915b50505050509080600201805461085c90612bbf565b80601f016020809104026020016040519081016040528092919081815260200182805461088890612bbf565b80156108d55780601f106108aa576101008083540402835291602001916108d5565b820191906000526020600020905b8154815290600101906020018083116108b857829003601f168201915b5050505050908060030180546108ea90612bbf565b80601f016020809104026020016040519081016040528092919081815260200182805461091690612bbf565b80156109635780601f1061093857610100808354040283529160200191610963565b820191906000526020600020905b81548152906001019060200180831161094657829003601f168201915b5050505050905084565b60405160200161097c906127f3565b6040516020818303038152906040528051906020012060016000803373ffffffffffffffffffffffffffffffffffffffff1673ffffffffffffffffffffffffffffffffffffffff1681526020019081526020016000206040516109df91906127c7565b9081526020016040518091039020600301604051602001610a0091906127c7565b6040516020818303038152906040528051906020012014610a2057600080fd5b600060405180608001604052808381526020018481526020013373ffffffffffffffffffffffffffffffffffffffff1681526020016000815250905060028190806001815401808255809150506001900390600052602060002090600402016000909190919091506000820151816000019080519060200190610aa4929190611e84565b506020820151816001019080519060200190610ac1929190611e84565b5060408201518160020160006101000a81548173ffffffffffffffffffffffffffffffffffffffff021916908373ffffffffffffffffffffffffffffffffffffffff160217905550606082015181600301555050505050565b610b22611f0a565b60016000808473ffffffffffffffffffffffffffffffffffffffff1673ffffffffffffffffffffffffffffffffffffffff168152602001908152602001600020604051610b6f91906127c7565b90815260200160405180910390206040518060800160405290816000820160009054906101000a900473ffffffffffffffffffffffffffffffffffffffff1673ffffffffffffffffffffffffffffffffffffffff1673ffffffffffffffffffffffffffffffffffffffff168152602001600182018054610bee90612bbf565b80601f0160208091040260200160405190810160405280929190818152602001828054610c1a90612bbf565b8015610c675780601f10610c3c57610100808354040283529160200191610c67565b820191906000526020600020905b815481529060010190602001808311610c4a57829003601f168201915b50505050508152602001600282018054610c8090612bbf565b80601f0160208091040260200160405190810160405280929190818152602001828054610cac90612bbf565b8015610cf95780601f10610cce57610100808354040283529160200191610cf9565b820191906000526020600020905b815481529060010190602001808311610cdc57829003601f168201915b50505050508152602001600382018054610d1290612bbf565b80601f0160208091040260200160405190810160405280929190818152602001828054610d3e90612bbf565b8015610d8b5780601f10610d6057610100808354040283529160200191610d8b565b820191906000526020600020905b815481529060010190602001808311610d6e57829003601f168201915b5050505050815250509050919050565b60038181548110610dab57600080fd5b9060005260206000209060090201600091509050806000018054610dce90612bbf565b80601f0160208091040260200160405190810160405280929190818152602001828054610dfa90612bbf565b8015610e475780601f10610e1c57610100808354040283529160200191610e47565b820191906000526020600020905b815481529060010190602001808311610e2a57829003601f168201915b5050505050908060010160009054906101000a900473ffffffffffffffffffffffffffffffffffffffff16908060020154908060030154908060040160009054906101000a900460ff169080600501604051806080016040529081600082018054610eb190612bbf565b80601f0160208091040260200160405190810160405280929190818152602001828054610edd90612bbf565b8015610f2a5780601f10610eff57610100808354040283529160200191610f2a565b820191906000526020600020905b815481529060010190602001808311610f0d57829003601f168201915b50505050508152602001600182018054610f4390612bbf565b80601f0160208091040260200160405190810160405280929190818152602001828054610f6f90612bbf565b8015610fbc5780601f10610f9157610100808354040283529160200191610fbc565b820191906000526020600020905b815481529060010190602001808311610f9f57829003601f168201915b505050505081526020016002820160009054906101000a900473ffffffffffffffffffffffffffffffffffffffff1673ffffffffffffffffffffffffffffffffffffffff1673ffffffffffffffffffffffffffffffffffffffff168152602001600382015481525050905086565b60606003805480602002602001604051908101604052809291908181526020016000905b8282101561132f57838290600052602060002090600902016040518060c001604052908160008201805461108190612bbf565b80601f01602080910402602001604051908101604052809291908181526020018280546110ad90612bbf565b80156110fa5780601f106110cf576101008083540402835291602001916110fa565b820191906000526020600020905b8154815290600101906020018083116110dd57829003601f168201915b505050505081526020016001820160009054906101000a900473ffffffffffffffffffffffffffffffffffffffff1673ffffffffffffffffffffffffffffffffffffffff1673ffffffffffffffffffffffffffffffffffffffff16815260200160028201548152602001600382015481526020016004820160009054906101000a900460ff16151515158152602001600582016040518060800160405290816000820180546111a890612bbf565b80601f01602080910402602001604051908101604052809291908181526020018280546111d490612bbf565b80156112215780601f106111f657610100808354040283529160200191611221565b820191906000526020600020905b81548152906001019060200180831161120457829003601f168201915b5050505050815260200160018201805461123a90612bbf565b80601f016020809104026020016040519081016040528092919081815260200182805461126690612bbf565b80156112b35780601f10611288576101008083540402835291602001916112b3565b820191906000526020600020905b81548152906001019060200180831161129657829003601f168201915b505050505081526020016002820160009054906101000a900473ffffffffffffffffffffffffffffffffffffffff1673ffffffffffffffffffffffffffffffffffffffff1673ffffffffffffffffffffffffffffffffffffffff168152602001600382015481525050815250508152602001906001019061104e565b50505050905090565b604051602001611347906127de565b6040516020818303038152906040528051906020012060016000803373ffffffffffffffffffffffffffffffffffffffff1673ffffffffffffffffffffffffffffffffffffffff1681526020019081526020016000206040516113aa91906127c7565b90815260200160405180910390206003016040516020016113cb91906127c7565b60405160208183030381529060405280519060200120146113eb57600080fd5b600160038281548110611427577f4e487b7100000000000000000000000000000000000000000000000000000000600052603260045260246000fd5b906000526020600020906009020160040160006101000a81548160ff02191690831515021790555050565b60606002805480602002602001604051908101604052809291908181526020016000905b8282101561162c57838290600052602060002090600402016040518060800160405290816000820180546114a990612bbf565b80601f01602080910402602001604051908101604052809291908181526020018280546114d590612bbf565b80156115225780601f106114f757610100808354040283529160200191611522565b820191906000526020600020905b81548152906001019060200180831161150557829003601f168201915b5050505050815260200160018201805461153b90612bbf565b80601f016020809104026020016040519081016040528092919081815260200182805461156790612bbf565b80156115b45780601f10611589576101008083540402835291602001916115b4565b820191906000526020600020905b81548152906001019060200180831161159757829003601f168201915b505050505081526020016002820160009054906101000a900473ffffffffffffffffffffffffffffffffffffffff1673ffffffffffffffffffffffffffffffffffffffff1673ffffffffffffffffffffffffffffffffffffffff16815260200160038201548152505081526020019060010190611476565b50505050905090565b6000602052806000526040600020600091509050805461165490612bbf565b80601f016020809104026020016040519081016040528092919081815260200182805461168090612bbf565b80156116cd5780601f106116a2576101008083540402835291602001916116cd565b820191906000526020600020905b8154815290600101906020018083116116b057829003601f168201915b505050505081565b60606040518060400160405280600481526020017f4155435a00000000000000000000000000000000000000000000000000000000815250905090565b604051602001611721906127f3565b6040516020818303038152906040528051906020012060016000803373ffffffffffffffffffffffffffffffffffffffff1673ffffffffffffffffffffffffffffffffffffffff16815260200190815260200160002060405161178491906127c7565b90815260200160405180910390206003016040516020016117a591906127c7565b60405160208183030381529060405280519060200120146117c557600080fd5b60006040518060c001604052808581526020013373ffffffffffffffffffffffffffffffffffffffff16815260200184815260200143815260200160001515815260200160028481548110611843577f4e487b7100000000000000000000000000000000000000000000000000000000600052603260045260246000fd5b906000526020600020906004020160405180608001604052908160008201805461186c90612bbf565b80601f016020809104026020016040519081016040528092919081815260200182805461189890612bbf565b80156118e55780601f106118ba576101008083540402835291602001916118e5565b820191906000526020600020905b8154815290600101906020018083116118c857829003601f168201915b505050505081526020016001820180546118fe90612bbf565b80601f016020809104026020016040519081016040528092919081815260200182805461192a90612bbf565b80156119775780601f1061194c57610100808354040283529160200191611977565b820191906000526020600020905b81548152906001019060200180831161195a57829003601f168201915b505050505081526020016002820160009054906101000a900473ffffffffffffffffffffffffffffffffffffffff1673ffffffffffffffffffffffffffffffffffffffff1673ffffffffffffffffffffffffffffffffffffffff168152602001600382015481525050815250905060038190806001815401808255809150506001900390600052602060002090600902016000909190919091506000820151816000019080519060200190611a2d929190611e84565b5060208201518160010160006101000a81548173ffffffffffffffffffffffffffffffffffffffff021916908373ffffffffffffffffffffffffffffffffffffffff160217905550604082015181600201556060820151816003015560808201518160040160006101000a81548160ff02191690831515021790555060a0820151816005016000820151816000019080519060200190611ace929190611e84565b506020820151816001019080519060200190611aeb929190611e84565b5060408201518160020160006101000a81548173ffffffffffffffffffffffffffffffffffffffff021916908373ffffffffffffffffffffffffffffffffffffffff160217905550606082015181600301555050505050505050565b6003805490508110611b5857600080fd5b60036001600380549050611b6c9190612b01565b81548110611ba3577f4e487b7100000000000000000000000000000000000000000000000000000000600052603260045260246000fd5b906000526020600020906009020160038281548110611beb577f4e487b7100000000000000000000000000000000000000000000000000000000600052603260045260246000fd5b90600052602060002090600902016000820181600001908054611c0d90612bbf565b611c18929190611f48565b506001820160009054906101000a900473ffffffffffffffffffffffffffffffffffffffff168160010160006101000a81548173ffffffffffffffffffffffffffffffffffffffff021916908373ffffffffffffffffffffffffffffffffffffffff16021790555060028201548160020155600382015481600301556004820160009054906101000a900460ff168160040160006101000a81548160ff02191690831515021790555060058201816005016000820181600001908054611cdd90612bbf565b611ce8929190611f48565b506001820181600101908054611cfd90612bbf565b611d08929190611f48565b506002820160009054906101000a900473ffffffffffffffffffffffffffffffffffffffff168160020160006101000a81548173ffffffffffffffffffffffffffffffffffffffff021916908373ffffffffffffffffffffffffffffffffffffffff1602179055506003820154816003015550509050506003805480611db7577f4e487b7100000000000000000000000000000000000000000000000000000000600052603160045260246000fd5b600190038181906000526020600020906009020160008082016000611ddc9190611fd5565b6001820160006101000a81549073ffffffffffffffffffffffffffffffffffffffff0219169055600282016000905560038201600090556004820160006101000a81549060ff02191690556005820160008082016000611e3c9190611fd5565b600182016000611e4c9190611fd5565b6002820160006101000a81549073ffffffffffffffffffffffffffffffffffffffff0219169055600382016000905550505050905550565b828054611e9090612bbf565b90600052602060002090601f016020900481019282611eb25760008555611ef9565b82601f10611ecb57805160ff1916838001178555611ef9565b82800160010185558215611ef9579182015b82811115611ef8578251825591602001919060010190611edd565b5b509050611f069190612015565b5090565b6040518060800160405280600073ffffffffffffffffffffffffffffffffffffffff1681526020016060815260200160608152602001606081525090565b828054611f5490612bbf565b90600052602060002090601f016020900481019282611f765760008555611fc4565b82601f10611f875780548555611fc4565b82800160010185558215611fc457600052602060002091601f016020900482015b82811115611fc3578254825591600101919060010190611fa8565b5b509050611fd19190612015565b5090565b508054611fe190612bbf565b6000825580601f10611ff35750612012565b601f0160209004906000526020600020908101906120119190612015565b5b50565b5b8082111561202e576000816000905550600101612016565b5090565b600061204561204084612a11565b6129ec565b90508281526020810184848401111561205d57600080fd5b612068848285612b7d565b509392505050565b60008135905061207f81612d8a565b92915050565b600082601f83011261209657600080fd5b81356120a6848260208601612032565b91505092915050565b6000813590506120be81612da1565b92915050565b6000602082840312156120d657600080fd5b60006120e484828501612070565b91505092915050565b6000602082840312156120ff57600080fd5b600082013567ffffffffffffffff81111561211957600080fd5b61212584828501612085565b91505092915050565b6000806040838503121561214157600080fd5b600083013567ffffffffffffffff81111561215b57600080fd5b61216785828601612085565b925050602083013567ffffffffffffffff81111561218457600080fd5b61219085828601612085565b9150509250929050565b6000806000606084860312156121af57600080fd5b600084013567ffffffffffffffff8111156121c957600080fd5b6121d586828701612085565b935050602084013567ffffffffffffffff8111156121f257600080fd5b6121fe86828701612085565b925050604084013567ffffffffffffffff81111561221b57600080fd5b61222786828701612085565b9150509250925092565b60008060006060848603121561224657600080fd5b600084013567ffffffffffffffff81111561226057600080fd5b61226c86828701612085565b935050602061227d868287016120af565b925050604061228e868287016120af565b9150509250925092565b6000602082840312156122aa57600080fd5b60006122b8848285016120af565b91505092915050565b60006122cd83836125bd565b905092915050565b60006122e18383612691565b905092915050565b6122f281612b35565b82525050565b61230181612b35565b82525050565b600061231282612a77565b61231c8185612ab2565b93508360208202850161232e85612a42565b8060005b8581101561236a578484038952815161234b85826122c1565b945061235683612a98565b925060208a01995050600181019050612332565b50829750879550505050505092915050565b600061238782612a82565b6123918185612ac3565b9350836020820285016123a385612a52565b8060005b858110156123df57848403895281516123c085826122d5565b94506123cb83612aa5565b925060208a019950506001810190506123a7565b50829750879550505050505092915050565b6123fa81612b47565b82525050565b61240981612b47565b82525050565b600061241a82612a8d565b6124248185612ad4565b9350612434818560208601612b8c565b61243d81612caf565b840191505092915050565b600061245382612a8d565b61245d8185612ae5565b935061246d818560208601612b8c565b61247681612caf565b840191505092915050565b600061248c82612a8d565b6124968185612af6565b93506124a6818560208601612b8c565b80840191505092915050565b600081546124bf81612bbf565b6124c98186612af6565b945060018216600081146124e457600181146124f557612528565b60ff19831686528186019350612528565b6124fe85612a62565b60005b8381101561252057815481890152600182019150602081019050612501565b838801955050505b50505092915050565b600061253e602683612ae5565b915061254982612cc0565b604082019050919050565b6000612561601383612ae5565b915061256c82612d0f565b602082019050919050565b6000612584600983612af6565b915061258f82612d38565b600982019050919050565b60006125a7600b83612af6565b91506125b282612d61565b600b82019050919050565b600060808301600083015184820360008601526125da828261240f565b915050602083015184820360208601526125f4828261240f565b915050604083015161260960408601826122e9565b50606083015161261c6060860182612792565b508091505092915050565b60006080830160008301518482036000860152612644828261240f565b9150506020830151848203602086015261265e828261240f565b915050604083015161267360408601826122e9565b5060608301516126866060860182612792565b508091505092915050565b600060c08301600083015184820360008601526126ae828261240f565b91505060208301516126c360208601826122e9565b5060408301516126d66040860182612792565b5060608301516126e96060860182612792565b5060808301516126fc60808601826123f1565b5060a083015184820360a086015261271482826125bd565b9150508091505092915050565b600060808301600083015161273960008601826122e9565b5060208301518482036020860152612751828261240f565b9150506040830151848203604086015261276b828261240f565b91505060608301518482036060860152612785828261240f565b9150508091505092915050565b61279b81612b73565b82525050565b6127aa81612b73565b82525050565b60006127bc8284612481565b915081905092915050565b60006127d382846124b2565b915081905092915050565b60006127e982612577565b9150819050919050565b60006127fe8261259a565b9150819050919050565b600060808201905061281d60008301876122f8565b818103602083015261282f8186612448565b905081810360408301526128438185612448565b905081810360608301526128578184612448565b905095945050505050565b6000602082019050818103600083015261287c8184612307565b905092915050565b6000602082019050818103600083015261289e818461237c565b905092915050565b600060208201905081810360008301526128c08184612448565b905092915050565b600060c08201905081810360008301526128e28189612448565b90506128f160208301886122f8565b6128fe60408301876127a1565b61290b60608301866127a1565b6129186080830185612400565b81810360a083015261292a8184612627565b9050979650505050505050565b600060808201905081810360008301526129518187612448565b905081810360208301526129658186612448565b905061297460408301856122f8565b61298160608301846127a1565b95945050505050565b600060208201905081810360008301526129a381612531565b9050919050565b600060208201905081810360008301526129c381612554565b9050919050565b600060208201905081810360008301526129e48184612721565b905092915050565b60006129f6612a07565b9050612a028282612bf1565b919050565b6000604051905090565b600067ffffffffffffffff821115612a2c57612a2b612c80565b5b612a3582612caf565b9050602081019050919050565b6000819050602082019050919050565b6000819050602082019050919050565b60008190508160005260206000209050919050565b600081519050919050565b600081519050919050565b600081519050919050565b6000602082019050919050565b6000602082019050919050565b600082825260208201905092915050565b600082825260208201905092915050565b600082825260208201905092915050565b600082825260208201905092915050565b600081905092915050565b6000612b0c82612b73565b9150612b1783612b73565b925082821015612b2a57612b29612c22565b5b828203905092915050565b6000612b4082612b53565b9050919050565b60008115159050919050565b600073ffffffffffffffffffffffffffffffffffffffff82169050919050565b6000819050919050565b82818337600083830152505050565b60005b83811015612baa578082015181840152602081019050612b8f565b83811115612bb9576000848401525b50505050565b60006002820490506001821680612bd757607f821691505b60208210811415612beb57612bea612c51565b5b50919050565b612bfa82612caf565b810181811067ffffffffffffffff82111715612c1957612c18612c80565b5b80604052505050565b7f4e487b7100000000000000000000000000000000000000000000000000000000600052601160045260246000fd5b7f4e487b7100000000000000000000000000000000000000000000000000000000600052602260045260246000fd5b7f4e487b7100000000000000000000000000000000000000000000000000000000600052604160045260246000fd5b6000601f19601f8301169050919050565b7f557365726e616d6520697320616c72656164792074616b656e2c20547279206160008201527f6e6f746865720000000000000000000000000000000000000000000000000000602082015250565b7f5573657220616c72656164792065786973747300000000000000000000000000600082015250565b7f76616c696461746f720000000000000000000000000000000000000000000000600082015250565b7f62656e6566696369617279000000000000000000000000000000000000000000600082015250565b612d9381612b35565b8114612d9e57600080fd5b50565b612daa81612b73565b8114612db557600080fd5b5056fea26469706673582212206ca0a073017142ea3457b2b52a04e1d212f9c708e70ba04adb1699c6b2fc2a6a64736f6c63430008040033",
  "linkReferences": {},
  "deployedLinkReferences": {}
}