{
  "_format": "hh-sol-artifact-1",
  "contractName": "Charity",
  "sourceName": "contracts/CIP.sol",
  "abi": [
    {
      "inputs": [
        {
          "internalType": "uint256",
          "name": "reqId",
          "type": "uint256"
        }
      ],
      "name": "approveRequest",
      "outputs": [],
      "stateMutability": "nonpayable",
      "type": "function"
    },
    {
      "inputs": [
        {
          "internalType": "string",
          "name": "d",
          "type": "string"
        },
        {
          "internalType": "string",
          "name": "t",
          "type": "string"
        }
      ],
      "name": "createProject",
      "outputs": [],
      "stateMutability": "nonpayable",
      "type": "function"
    },
    {
      "inputs": [
        {
          "internalType": "string",
          "name": "r",
          "type": "string"
        },
        {
          "internalType": "uint256",
          "name": "amount",
          "type": "uint256"
        },
        {
          "internalType": "uint256",
          "name": "projId",
          "type": "uint256"
        }
      ],
      "name": "createRequest",
      "outputs": [],
      "stateMutability": "nonpayable",
      "type": "function"
    },
    {
      "inputs": [],
      "name": "getProjects",
      "outputs": [
        {
          "components": [
            {
              "internalType": "string",
              "name": "title",
              "type": "string"
            },
            {
              "internalType": "string",
              "name": "description",
              "type": "string"
            },
            {
              "internalType": "address",
              "name": "creator",
              "type": "address"
            },
            {
              "internalType": "uint256",
              "name": "investorCount",
              "type": "uint256"
            }
          ],
          "internalType": "struct Charity.Project[]",
          "name": "",
          "type": "tuple[]"
        }
      ],
      "stateMutability": "view",
      "type": "function"
    },
    {
      "inputs": [],
      "name": "getRequests",
      "outputs": [
        {
          "components": [
            {
              "internalType": "string",
              "name": "reason",
              "type": "string"
            },
            {
              "internalType": "address",
              "name": "requestor",
              "type": "address"
            },
            {
              "internalType": "uint256",
              "name": "amount",
              "type": "uint256"
            },
            {
              "internalType": "uint256",
              "name": "reqId",
              "type": "uint256"
            },
            {
              "internalType": "bool",
              "name": "verified",
              "type": "bool"
            },
            {
              "components": [
                {
                  "internalType": "string",
                  "name": "title",
                  "type": "string"
                },
                {
                  "internalType": "string",
                  "name": "description",
                  "type": "string"
                },
                {
                  "internalType": "address",
                  "name": "creator",
                  "type": "address"
                },
                {
                  "internalType": "uint256",
                  "name": "investorCount",
                  "type": "uint256"
                }
              ],
              "internalType": "struct Charity.Project",
              "name": "proj",
              "type": "tuple"
            }
          ],
          "internalType": "struct Charity.Request[]",
          "name": "",
          "type": "tuple[]"
        }
      ],
      "stateMutability": "view",
      "type": "function"
    },
    {
      "inputs": [
        {
          "internalType": "address",
          "name": "_wallet",
          "type": "address"
        }
      ],
      "name": "getUser",
      "outputs": [
        {
          "components": [
            {
              "internalType": "address",
              "name": "wallet",
              "type": "address"
            },
            {
              "internalType": "string",
              "name": "name",
              "type": "string"
            },
            {
              "internalType": "string",
              "name": "username",
              "type": "string"
            },
            {
              "internalType": "string",
              "name": "usertype",
              "type": "string"
            }
          ],
          "internalType": "struct Charity.User",
          "name": "",
          "type": "tuple"
        }
      ],
      "stateMutability": "view",
      "type": "function"
    },
    {
      "inputs": [
        {
          "internalType": "uint256",
          "name": "",
          "type": "uint256"
        }
      ],
      "name": "projects",
      "outputs": [
        {
          "internalType": "string",
          "name": "title",
          "type": "string"
        },
        {
          "internalType": "string",
          "name": "description",
          "type": "string"
        },
        {
          "internalType": "address",
          "name": "creator",
          "type": "address"
        },
        {
          "internalType": "uint256",
          "name": "investorCount",
          "type": "uint256"
        }
      ],
      "stateMutability": "view",
      "type": "function"
    },
    {
      "inputs": [
        {
          "internalType": "string",
          "name": "_username",
          "type": "string"
        },
        {
          "internalType": "string",
          "name": "_name",
          "type": "string"
        },
        {
          "internalType": "string",
          "name": "_usertype",
          "type": "string"
        }
      ],
      "name": "register",
      "outputs": [],
      "stateMutability": "nonpayable",
      "type": "function"
    },
    {
      "inputs": [
        {
          "internalType": "uint256",
          "name": "reqId",
          "type": "uint256"
        }
      ],
      "name": "rejectRequest",
      "outputs": [],
      "stateMutability": "nonpayable",
      "type": "function"
    },
    {
      "inputs": [
        {
          "internalType": "uint256",
          "name": "",
          "type": "uint256"
        }
      ],
      "name": "requests",
      "outputs": [
        {
          "internalType": "string",
          "name": "reason",
          "type": "string"
        },
        {
          "internalType": "address",
          "name": "requestor",
          "type": "address"
        },
        {
          "internalType": "uint256",
          "name": "amount",
          "type": "uint256"
        },
        {
          "internalType": "uint256",
          "name": "reqId",
          "type": "uint256"
        },
        {
          "internalType": "bool",
          "name": "verified",
          "type": "bool"
        },
        {
          "components": [
            {
              "internalType": "string",
              "name": "title",
              "type": "string"
            },
            {
              "internalType": "string",
              "name": "description",
              "type": "string"
            },
            {
              "internalType": "address",
              "name": "creator",
              "type": "address"
            },
            {
              "internalType": "uint256",
              "name": "investorCount",
              "type": "uint256"
            }
          ],
          "internalType": "struct Charity.Project",
          "name": "proj",
          "type": "tuple"
        }
      ],
      "stateMutability": "view",
      "type": "function"
    },
    {
      "inputs": [
        {
          "internalType": "address",
          "name": "",
          "type": "address"
        }
      ],
      "name": "usernames",
      "outputs": [
        {
          "internalType": "string",
          "name": "",
          "type": "string"
        }
      ],
      "stateMutability": "view",
      "type": "function"
    },
    {
      "inputs": [
        {
          "internalType": "string",
          "name": "",
          "type": "string"
        }
      ],
      "name": "users",
      "outputs": [
        {
          "internalType": "address",
          "name": "wallet",
          "type": "address"
        },
        {
          "internalType": "string",
          "name": "name",
          "type": "string"
        },
        {
          "internalType": "string",
          "name": "username",
          "type": "string"
        },
        {
          "internalType": "string",
          "name": "usertype",
          "type": "string"
        }
      ],
      "stateMutability": "view",
      "type": "function"
    }
  ],
  "bytecode": "0x608060405234801561001057600080fd5b50612d78806100206000396000f3fe608060405234801561001057600080fd5b50600436106100b45760003560e01c806381d12c581161007157806381d12c58146101a35780638813ce12146101d8578063d7d1bbdb146101f6578063dcc6012814610212578063ee91877c14610230578063fbccc84114610260576100b4565b8063107046bd146100b95780632d7788db146100ec5780634cd08d0314610108578063689e1c03146101245780636bd06204146101575780636f77926b14610173575b600080fd5b6100d360048036038101906100ce9190612222565b61027c565b6040516100e394939291906128c1565b60405180910390f35b61010660048036038101906101019190612222565b6103ec565b005b610122600480360381019061011d9190612124565b6104ab565b005b61013e60048036038101906101399190612077565b610736565b60405161014e9493929190612792565b60405180910390f35b610171600480360381019061016c91906120b8565b610934565b005b61018d6004803603810190610188919061204e565b610ae1565b60405161019a9190612954565b60405180910390f35b6101bd60048036038101906101b89190612222565b610d62565b6040516101cf96959493929190612852565b60405180910390f35b6101e0610ff1565b6040516101ed919061280e565b60405180910390f35b610210600480360381019061020b9190612222565b6112ff565b005b61021a611419565b60405161022791906127ec565b60405180910390f35b61024a6004803603810190610245919061204e565b6115fc565b6040516102579190612830565b60405180910390f35b61027a600480360381019061027591906121bb565b61169c565b005b6002818154811061028c57600080fd5b90600052602060002090600402016000915090508060000180546102af90612b49565b80601f01602080910402602001604051908101604052809291908181526020018280546102db90612b49565b80156103285780601f106102fd57610100808354040283529160200191610328565b820191906000526020600020905b81548152906001019060200180831161030b57829003601f168201915b50505050509080600101805461033d90612b49565b80601f016020809104026020016040519081016040528092919081815260200182805461036990612b49565b80156103b65780601f1061038b576101008083540402835291602001916103b6565b820191906000526020600020905b81548152906001019060200180831161039957829003601f168201915b5050505050908060020160009054906101000a900473ffffffffffffffffffffffffffffffffffffffff16908060030154905084565b6040516020016103fb90612768565b6040516020818303038152906040528051906020012060016000803373ffffffffffffffffffffffffffffffffffffffff1673ffffffffffffffffffffffffffffffffffffffff16815260200190815260200160002060405161045e9190612751565b908152602001604051809103902060030160405160200161047f9190612751565b604051602081830303815290604052805190602001201461049f57600080fd5b6104a881611ad1565b50565b60008060003373ffffffffffffffffffffffffffffffffffffffff1673ffffffffffffffffffffffffffffffffffffffff16815260200190815260200160002080546104f690612b49565b905014610538576040517f08c379a000000000000000000000000000000000000000000000000000000000815260040161052f90612934565b60405180910390fd5b600073ffffffffffffffffffffffffffffffffffffffff16600184604051610560919061273a565b908152602001604051809103902060000160009054906101000a900473ffffffffffffffffffffffffffffffffffffffff1673ffffffffffffffffffffffffffffffffffffffff16146105e8576040517f08c379a00000000000000000000000000000000000000000000000000000000081526004016105df90612914565b60405180910390fd5b60405180608001604052803373ffffffffffffffffffffffffffffffffffffffff1681526020018381526020018481526020018281525060018460405161062f919061273a565b908152602001604051809103902060008201518160000160006101000a81548173ffffffffffffffffffffffffffffffffffffffff021916908373ffffffffffffffffffffffffffffffffffffffff16021790555060208201518160010190805190602001906106a0929190611e0e565b5060408201518160020190805190602001906106bd929190611e0e565b5060608201518160030190805190602001906106da929190611e0e565b50905050826000803373ffffffffffffffffffffffffffffffffffffffff1673ffffffffffffffffffffffffffffffffffffffff1681526020019081526020016000209080519060200190610730929190611e0e565b50505050565b6001818051602081018201805184825260208301602085012081835280955050505050506000915090508060000160009054906101000a900473ffffffffffffffffffffffffffffffffffffffff169080600101805461079590612b49565b80601f01602080910402602001604051908101604052809291908181526020018280546107c190612b49565b801561080e5780601f106107e35761010080835404028352916020019161080e565b820191906000526020600020905b8154815290600101906020018083116107f157829003601f168201915b50505050509080600201805461082390612b49565b80601f016020809104026020016040519081016040528092919081815260200182805461084f90612b49565b801561089c5780601f106108715761010080835404028352916020019161089c565b820191906000526020600020905b81548152906001019060200180831161087f57829003601f168201915b5050505050908060030180546108b190612b49565b80601f01602080910402602001604051908101604052809291908181526020018280546108dd90612b49565b801561092a5780601f106108ff5761010080835404028352916020019161092a565b820191906000526020600020905b81548152906001019060200180831161090d57829003601f168201915b5050505050905084565b6040516020016109439061277d565b6040516020818303038152906040528051906020012060016000803373ffffffffffffffffffffffffffffffffffffffff1673ffffffffffffffffffffffffffffffffffffffff1681526020019081526020016000206040516109a69190612751565b90815260200160405180910390206003016040516020016109c79190612751565b60405160208183030381529060405280519060200120146109e757600080fd5b600060405180608001604052808381526020018481526020013373ffffffffffffffffffffffffffffffffffffffff1681526020016000815250905060028190806001815401808255809150506001900390600052602060002090600402016000909190919091506000820151816000019080519060200190610a6b929190611e0e565b506020820151816001019080519060200190610a88929190611e0e565b5060408201518160020160006101000a81548173ffffffffffffffffffffffffffffffffffffffff021916908373ffffffffffffffffffffffffffffffffffffffff160217905550606082015181600301555050505050565b610ae9611e94565b60016000808473ffffffffffffffffffffffffffffffffffffffff1673ffffffffffffffffffffffffffffffffffffffff168152602001908152602001600020604051610b369190612751565b90815260200160405180910390206040518060800160405290816000820160009054906101000a900473ffffffffffffffffffffffffffffffffffffffff1673ffffffffffffffffffffffffffffffffffffffff1673ffffffffffffffffffffffffffffffffffffffff168152602001600182018054610bb590612b49565b80601f0160208091040260200160405190810160405280929190818152602001828054610be190612b49565b8015610c2e5780601f10610c0357610100808354040283529160200191610c2e565b820191906000526020600020905b815481529060010190602001808311610c1157829003601f168201915b50505050508152602001600282018054610c4790612b49565b80601f0160208091040260200160405190810160405280929190818152602001828054610c7390612b49565b8015610cc05780601f10610c9557610100808354040283529160200191610cc0565b820191906000526020600020905b815481529060010190602001808311610ca357829003601f168201915b50505050508152602001600382018054610cd990612b49565b80601f0160208091040260200160405190810160405280929190818152602001828054610d0590612b49565b8015610d525780601f10610d2757610100808354040283529160200191610d52565b820191906000526020600020905b815481529060010190602001808311610d3557829003601f168201915b5050505050815250509050919050565b60038181548110610d7257600080fd5b9060005260206000209060090201600091509050806000018054610d9590612b49565b80601f0160208091040260200160405190810160405280929190818152602001828054610dc190612b49565b8015610e0e5780601f10610de357610100808354040283529160200191610e0e565b820191906000526020600020905b815481529060010190602001808311610df157829003601f168201915b5050505050908060010160009054906101000a900473ffffffffffffffffffffffffffffffffffffffff16908060020154908060030154908060040160009054906101000a900460ff169080600501604051806080016040529081600082018054610e7890612b49565b80601f0160208091040260200160405190810160405280929190818152602001828054610ea490612b49565b8015610ef15780601f10610ec657610100808354040283529160200191610ef1565b820191906000526020600020905b815481529060010190602001808311610ed457829003601f168201915b50505050508152602001600182018054610f0a90612b49565b80601f0160208091040260200160405190810160405280929190818152602001828054610f3690612b49565b8015610f835780601f10610f5857610100808354040283529160200191610f83565b820191906000526020600020905b815481529060010190602001808311610f6657829003601f168201915b505050505081526020016002820160009054906101000a900473ffffffffffffffffffffffffffffffffffffffff1673ffffffffffffffffffffffffffffffffffffffff1673ffffffffffffffffffffffffffffffffffffffff168152602001600382015481525050905086565b60606003805480602002602001604051908101604052809291908181526020016000905b828210156112f657838290600052602060002090600902016040518060c001604052908160008201805461104890612b49565b80601f016020809104026020016040519081016040528092919081815260200182805461107490612b49565b80156110c15780601f10611096576101008083540402835291602001916110c1565b820191906000526020600020905b8154815290600101906020018083116110a457829003601f168201915b505050505081526020016001820160009054906101000a900473ffffffffffffffffffffffffffffffffffffffff1673ffffffffffffffffffffffffffffffffffffffff1673ffffffffffffffffffffffffffffffffffffffff16815260200160028201548152602001600382015481526020016004820160009054906101000a900460ff161515151581526020016005820160405180608001604052908160008201805461116f90612b49565b80601f016020809104026020016040519081016040528092919081815260200182805461119b90612b49565b80156111e85780601f106111bd576101008083540402835291602001916111e8565b820191906000526020600020905b8154815290600101906020018083116111cb57829003601f168201915b5050505050815260200160018201805461120190612b49565b80601f016020809104026020016040519081016040528092919081815260200182805461122d90612b49565b801561127a5780601f1061124f5761010080835404028352916020019161127a565b820191906000526020600020905b81548152906001019060200180831161125d57829003601f168201915b505050505081526020016002820160009054906101000a900473ffffffffffffffffffffffffffffffffffffffff1673ffffffffffffffffffffffffffffffffffffffff1673ffffffffffffffffffffffffffffffffffffffff1681526020016003820154815250508152505081526020019060010190611015565b50505050905090565b60405160200161130e90612768565b6040516020818303038152906040528051906020012060016000803373ffffffffffffffffffffffffffffffffffffffff1673ffffffffffffffffffffffffffffffffffffffff1681526020019081526020016000206040516113719190612751565b90815260200160405180910390206003016040516020016113929190612751565b60405160208183030381529060405280519060200120146113b257600080fd5b6001600382815481106113ee577f4e487b7100000000000000000000000000000000000000000000000000000000600052603260045260246000fd5b906000526020600020906009020160040160006101000a81548160ff02191690831515021790555050565b60606002805480602002602001604051908101604052809291908181526020016000905b828210156115f3578382906000526020600020906004020160405180608001604052908160008201805461147090612b49565b80601f016020809104026020016040519081016040528092919081815260200182805461149c90612b49565b80156114e95780601f106114be576101008083540402835291602001916114e9565b820191906000526020600020905b8154815290600101906020018083116114cc57829003601f168201915b5050505050815260200160018201805461150290612b49565b80601f016020809104026020016040519081016040528092919081815260200182805461152e90612b49565b801561157b5780601f106115505761010080835404028352916020019161157b565b820191906000526020600020905b81548152906001019060200180831161155e57829003601f168201915b505050505081526020016002820160009054906101000a900473ffffffffffffffffffffffffffffffffffffffff1673ffffffffffffffffffffffffffffffffffffffff1673ffffffffffffffffffffffffffffffffffffffff1681526020016003820154815250508152602001906001019061143d565b50505050905090565b6000602052806000526040600020600091509050805461161b90612b49565b80601f016020809104026020016040519081016040528092919081815260200182805461164790612b49565b80156116945780601f1061166957610100808354040283529160200191611694565b820191906000526020600020905b81548152906001019060200180831161167757829003601f168201915b505050505081565b6040516020016116ab9061277d565b6040516020818303038152906040528051906020012060016000803373ffffffffffffffffffffffffffffffffffffffff1673ffffffffffffffffffffffffffffffffffffffff16815260200190815260200160002060405161170e9190612751565b908152602001604051809103902060030160405160200161172f9190612751565b604051602081830303815290604052805190602001201461174f57600080fd5b60006040518060c001604052808581526020013373ffffffffffffffffffffffffffffffffffffffff168152602001848152602001438152602001600015158152602001600284815481106117cd577f4e487b7100000000000000000000000000000000000000000000000000000000600052603260045260246000fd5b90600052602060002090600402016040518060800160405290816000820180546117f690612b49565b80601f016020809104026020016040519081016040528092919081815260200182805461182290612b49565b801561186f5780601f106118445761010080835404028352916020019161186f565b820191906000526020600020905b81548152906001019060200180831161185257829003601f168201915b5050505050815260200160018201805461188890612b49565b80601f01602080910402602001604051908101604052809291908181526020018280546118b490612b49565b80156119015780601f106118d657610100808354040283529160200191611901565b820191906000526020600020905b8154815290600101906020018083116118e457829003601f168201915b505050505081526020016002820160009054906101000a900473ffffffffffffffffffffffffffffffffffffffff1673ffffffffffffffffffffffffffffffffffffffff1673ffffffffffffffffffffffffffffffffffffffff1681526020016003820154815250508152509050600381908060018154018082558091505060019003906000526020600020906009020160009091909190915060008201518160000190805190602001906119b7929190611e0e565b5060208201518160010160006101000a81548173ffffffffffffffffffffffffffffffffffffffff021916908373ffffffffffffffffffffffffffffffffffffffff160217905550604082015181600201556060820151816003015560808201518160040160006101000a81548160ff02191690831515021790555060a0820151816005016000820151816000019080519060200190611a58929190611e0e565b506020820151816001019080519060200190611a75929190611e0e565b5060408201518160020160006101000a81548173ffffffffffffffffffffffffffffffffffffffff021916908373ffffffffffffffffffffffffffffffffffffffff160217905550606082015181600301555050505050505050565b6003805490508110611ae257600080fd5b60036001600380549050611af69190612a8b565b81548110611b2d577f4e487b7100000000000000000000000000000000000000000000000000000000600052603260045260246000fd5b906000526020600020906009020160038281548110611b75577f4e487b7100000000000000000000000000000000000000000000000000000000600052603260045260246000fd5b90600052602060002090600902016000820181600001908054611b9790612b49565b611ba2929190611ed2565b506001820160009054906101000a900473ffffffffffffffffffffffffffffffffffffffff168160010160006101000a81548173ffffffffffffffffffffffffffffffffffffffff021916908373ffffffffffffffffffffffffffffffffffffffff16021790555060028201548160020155600382015481600301556004820160009054906101000a900460ff168160040160006101000a81548160ff02191690831515021790555060058201816005016000820181600001908054611c6790612b49565b611c72929190611ed2565b506001820181600101908054611c8790612b49565b611c92929190611ed2565b506002820160009054906101000a900473ffffffffffffffffffffffffffffffffffffffff168160020160006101000a81548173ffffffffffffffffffffffffffffffffffffffff021916908373ffffffffffffffffffffffffffffffffffffffff1602179055506003820154816003015550509050506003805480611d41577f4e487b7100000000000000000000000000000000000000000000000000000000600052603160045260246000fd5b600190038181906000526020600020906009020160008082016000611d669190611f5f565b6001820160006101000a81549073ffffffffffffffffffffffffffffffffffffffff0219169055600282016000905560038201600090556004820160006101000a81549060ff02191690556005820160008082016000611dc69190611f5f565b600182016000611dd69190611f5f565b6002820160006101000a81549073ffffffffffffffffffffffffffffffffffffffff0219169055600382016000905550505050905550565b828054611e1a90612b49565b90600052602060002090601f016020900481019282611e3c5760008555611e83565b82601f10611e5557805160ff1916838001178555611e83565b82800160010185558215611e83579182015b82811115611e82578251825591602001919060010190611e67565b5b509050611e909190611f9f565b5090565b6040518060800160405280600073ffffffffffffffffffffffffffffffffffffffff1681526020016060815260200160608152602001606081525090565b828054611ede90612b49565b90600052602060002090601f016020900481019282611f005760008555611f4e565b82601f10611f115780548555611f4e565b82800160010185558215611f4e57600052602060002091601f016020900482015b82811115611f4d578254825591600101919060010190611f32565b5b509050611f5b9190611f9f565b5090565b508054611f6b90612b49565b6000825580601f10611f7d5750611f9c565b601f016020900490600052602060002090810190611f9b9190611f9f565b5b50565b5b80821115611fb8576000816000905550600101611fa0565b5090565b6000611fcf611fca8461299b565b612976565b905082815260208101848484011115611fe757600080fd5b611ff2848285612b07565b509392505050565b60008135905061200981612d14565b92915050565b600082601f83011261202057600080fd5b8135612030848260208601611fbc565b91505092915050565b60008135905061204881612d2b565b92915050565b60006020828403121561206057600080fd5b600061206e84828501611ffa565b91505092915050565b60006020828403121561208957600080fd5b600082013567ffffffffffffffff8111156120a357600080fd5b6120af8482850161200f565b91505092915050565b600080604083850312156120cb57600080fd5b600083013567ffffffffffffffff8111156120e557600080fd5b6120f18582860161200f565b925050602083013567ffffffffffffffff81111561210e57600080fd5b61211a8582860161200f565b9150509250929050565b60008060006060848603121561213957600080fd5b600084013567ffffffffffffffff81111561215357600080fd5b61215f8682870161200f565b935050602084013567ffffffffffffffff81111561217c57600080fd5b6121888682870161200f565b925050604084013567ffffffffffffffff8111156121a557600080fd5b6121b18682870161200f565b9150509250925092565b6000806000606084860312156121d057600080fd5b600084013567ffffffffffffffff8111156121ea57600080fd5b6121f68682870161200f565b935050602061220786828701612039565b925050604061221886828701612039565b9150509250925092565b60006020828403121561223457600080fd5b600061224284828501612039565b91505092915050565b60006122578383612547565b905092915050565b600061226b838361261b565b905092915050565b61227c81612abf565b82525050565b61228b81612abf565b82525050565b600061229c82612a01565b6122a68185612a3c565b9350836020820285016122b8856129cc565b8060005b858110156122f457848403895281516122d5858261224b565b94506122e083612a22565b925060208a019950506001810190506122bc565b50829750879550505050505092915050565b600061231182612a0c565b61231b8185612a4d565b93508360208202850161232d856129dc565b8060005b85811015612369578484038952815161234a858261225f565b945061235583612a2f565b925060208a01995050600181019050612331565b50829750879550505050505092915050565b61238481612ad1565b82525050565b61239381612ad1565b82525050565b60006123a482612a17565b6123ae8185612a5e565b93506123be818560208601612b16565b6123c781612c39565b840191505092915050565b60006123dd82612a17565b6123e78185612a6f565b93506123f7818560208601612b16565b61240081612c39565b840191505092915050565b600061241682612a17565b6124208185612a80565b9350612430818560208601612b16565b80840191505092915050565b6000815461244981612b49565b6124538186612a80565b9450600182166000811461246e576001811461247f576124b2565b60ff198316865281860193506124b2565b612488856129ec565b60005b838110156124aa5781548189015260018201915060208101905061248b565b838801955050505b50505092915050565b60006124c8602683612a6f565b91506124d382612c4a565b604082019050919050565b60006124eb601383612a6f565b91506124f682612c99565b602082019050919050565b600061250e600983612a80565b915061251982612cc2565b600982019050919050565b6000612531600b83612a80565b915061253c82612ceb565b600b82019050919050565b600060808301600083015184820360008601526125648282612399565b9150506020830151848203602086015261257e8282612399565b91505060408301516125936040860182612273565b5060608301516125a6606086018261271c565b508091505092915050565b600060808301600083015184820360008601526125ce8282612399565b915050602083015184820360208601526125e88282612399565b91505060408301516125fd6040860182612273565b506060830151612610606086018261271c565b508091505092915050565b600060c08301600083015184820360008601526126388282612399565b915050602083015161264d6020860182612273565b506040830151612660604086018261271c565b506060830151612673606086018261271c565b506080830151612686608086018261237b565b5060a083015184820360a086015261269e8282612547565b9150508091505092915050565b60006080830160008301516126c36000860182612273565b50602083015184820360208601526126db8282612399565b915050604083015184820360408601526126f58282612399565b9150506060830151848203606086015261270f8282612399565b9150508091505092915050565b61272581612afd565b82525050565b61273481612afd565b82525050565b6000612746828461240b565b915081905092915050565b600061275d828461243c565b915081905092915050565b600061277382612501565b9150819050919050565b600061278882612524565b9150819050919050565b60006080820190506127a76000830187612282565b81810360208301526127b981866123d2565b905081810360408301526127cd81856123d2565b905081810360608301526127e181846123d2565b905095945050505050565b600060208201905081810360008301526128068184612291565b905092915050565b600060208201905081810360008301526128288184612306565b905092915050565b6000602082019050818103600083015261284a81846123d2565b905092915050565b600060c082019050818103600083015261286c81896123d2565b905061287b6020830188612282565b612888604083018761272b565b612895606083018661272b565b6128a2608083018561238a565b81810360a08301526128b481846125b1565b9050979650505050505050565b600060808201905081810360008301526128db81876123d2565b905081810360208301526128ef81866123d2565b90506128fe6040830185612282565b61290b606083018461272b565b95945050505050565b6000602082019050818103600083015261292d816124bb565b9050919050565b6000602082019050818103600083015261294d816124de565b9050919050565b6000602082019050818103600083015261296e81846126ab565b905092915050565b6000612980612991565b905061298c8282612b7b565b919050565b6000604051905090565b600067ffffffffffffffff8211156129b6576129b5612c0a565b5b6129bf82612c39565b9050602081019050919050565b6000819050602082019050919050565b6000819050602082019050919050565b60008190508160005260206000209050919050565b600081519050919050565b600081519050919050565b600081519050919050565b6000602082019050919050565b6000602082019050919050565b600082825260208201905092915050565b600082825260208201905092915050565b600082825260208201905092915050565b600082825260208201905092915050565b600081905092915050565b6000612a9682612afd565b9150612aa183612afd565b925082821015612ab457612ab3612bac565b5b828203905092915050565b6000612aca82612add565b9050919050565b60008115159050919050565b600073ffffffffffffffffffffffffffffffffffffffff82169050919050565b6000819050919050565b82818337600083830152505050565b60005b83811015612b34578082015181840152602081019050612b19565b83811115612b43576000848401525b50505050565b60006002820490506001821680612b6157607f821691505b60208210811415612b7557612b74612bdb565b5b50919050565b612b8482612c39565b810181811067ffffffffffffffff82111715612ba357612ba2612c0a565b5b80604052505050565b7f4e487b7100000000000000000000000000000000000000000000000000000000600052601160045260246000fd5b7f4e487b7100000000000000000000000000000000000000000000000000000000600052602260045260246000fd5b7f4e487b7100000000000000000000000000000000000000000000000000000000600052604160045260246000fd5b6000601f19601f8301169050919050565b7f557365726e616d6520697320616c72656164792074616b656e2c20547279206160008201527f6e6f746865720000000000000000000000000000000000000000000000000000602082015250565b7f5573657220616c72656164792065786973747300000000000000000000000000600082015250565b7f76616c696461746f720000000000000000000000000000000000000000000000600082015250565b7f62656e6566696369617279000000000000000000000000000000000000000000600082015250565b612d1d81612abf565b8114612d2857600080fd5b50565b612d3481612afd565b8114612d3f57600080fd5b5056fea2646970667358221220c7c79fd240fe0ae89c5fdcdcec0fd4d1fcd0c2b97b5ebc5f3bfe73f19ea40b1d64736f6c63430008040033",
  "linkReferences": {},
  "deployedLinkReferences": {}
}