{
  "_format": "hh-sol-artifact-1",
  "contractName": "Charity",
  "sourceName": "contracts/CIP.sol",
  "abi": [
    {
      "inputs": [
        {
          "internalType": "uint256",
          "name": "reqId",
          "type": "uint256"
        }
      ],
      "name": "approveRequest",
      "outputs": [],
      "stateMutability": "nonpayable",
      "type": "function"
    },
    {
      "inputs": [
        {
          "internalType": "string",
          "name": "d",
          "type": "string"
        },
        {
          "internalType": "string",
          "name": "t",
          "type": "string"
        }
      ],
      "name": "createProject",
      "outputs": [],
      "stateMutability": "nonpayable",
      "type": "function"
    },
    {
      "inputs": [
        {
          "internalType": "string",
          "name": "r",
          "type": "string"
        },
        {
          "internalType": "uint256",
          "name": "amount",
          "type": "uint256"
        },
        {
          "internalType": "uint256",
          "name": "projId",
          "type": "uint256"
        },
        {
          "internalType": "string",
          "name": "phno",
          "type": "string"
        }
      ],
      "name": "createRequest",
      "outputs": [],
      "stateMutability": "nonpayable",
      "type": "function"
    },
    {
      "inputs": [
        {
          "internalType": "uint256",
          "name": "",
          "type": "uint256"
        }
      ],
      "name": "delRequests",
      "outputs": [
        {
          "internalType": "string",
          "name": "reason",
          "type": "string"
        },
        {
          "internalType": "address payable",
          "name": "recepient",
          "type": "address"
        },
        {
          "internalType": "string",
          "name": "requestor",
          "type": "string"
        },
        {
          "internalType": "uint256",
          "name": "amount",
          "type": "uint256"
        },
        {
          "internalType": "uint256",
          "name": "reqId",
          "type": "uint256"
        },
        {
          "internalType": "string",
          "name": "reqLink",
          "type": "string"
        },
        {
          "internalType": "string",
          "name": "projTitle",
          "type": "string"
        },
        {
          "internalType": "uint256",
          "name": "projId",
          "type": "uint256"
        },
        {
          "internalType": "string",
          "name": "phno",
          "type": "string"
        }
      ],
      "stateMutability": "view",
      "type": "function"
    },
    {
      "inputs": [
        {
          "internalType": "uint256",
          "name": "projId",
          "type": "uint256"
        }
      ],
      "name": "donateMoney",
      "outputs": [],
      "stateMutability": "payable",
      "type": "function"
    },
    {
      "inputs": [
        {
          "internalType": "uint256",
          "name": "_reqNo",
          "type": "uint256"
        }
      ],
      "name": "donorVoteRequest",
      "outputs": [],
      "stateMutability": "nonpayable",
      "type": "function"
    },
    {
      "inputs": [],
      "name": "getBalance",
      "outputs": [
        {
          "internalType": "uint256",
          "name": "",
          "type": "uint256"
        }
      ],
      "stateMutability": "view",
      "type": "function"
    },
    {
      "inputs": [],
      "name": "getDelRequests",
      "outputs": [
        {
          "components": [
            {
              "internalType": "string",
              "name": "reason",
              "type": "string"
            },
            {
              "internalType": "address payable",
              "name": "recepient",
              "type": "address"
            },
            {
              "internalType": "string",
              "name": "requestor",
              "type": "string"
            },
            {
              "internalType": "uint256",
              "name": "amount",
              "type": "uint256"
            },
            {
              "internalType": "uint256",
              "name": "reqId",
              "type": "uint256"
            },
            {
              "internalType": "string",
              "name": "reqLink",
              "type": "string"
            },
            {
              "internalType": "string",
              "name": "projTitle",
              "type": "string"
            },
            {
              "internalType": "uint256",
              "name": "projId",
              "type": "uint256"
            },
            {
              "internalType": "string",
              "name": "phno",
              "type": "string"
            }
          ],
          "internalType": "struct Charity.Request[]",
          "name": "",
          "type": "tuple[]"
        }
      ],
      "stateMutability": "view",
      "type": "function"
    },
    {
      "inputs": [],
      "name": "getProjects",
      "outputs": [
        {
          "components": [
            {
              "internalType": "string",
              "name": "title",
              "type": "string"
            },
            {
              "internalType": "string",
              "name": "description",
              "type": "string"
            },
            {
              "internalType": "uint256",
              "name": "amt",
              "type": "uint256"
            },
            {
              "internalType": "uint256",
              "name": "donorCount",
              "type": "uint256"
            }
          ],
          "internalType": "struct Charity.ProjDetails[]",
          "name": "",
          "type": "tuple[]"
        }
      ],
      "stateMutability": "view",
      "type": "function"
    },
    {
      "inputs": [],
      "name": "getRequests",
      "outputs": [
        {
          "components": [
            {
              "internalType": "string",
              "name": "reason",
              "type": "string"
            },
            {
              "internalType": "address payable",
              "name": "recepient",
              "type": "address"
            },
            {
              "internalType": "string",
              "name": "requestor",
              "type": "string"
            },
            {
              "internalType": "uint256",
              "name": "amount",
              "type": "uint256"
            },
            {
              "internalType": "uint256",
              "name": "reqId",
              "type": "uint256"
            },
            {
              "internalType": "string",
              "name": "reqLink",
              "type": "string"
            },
            {
              "internalType": "string",
              "name": "projTitle",
              "type": "string"
            },
            {
              "internalType": "uint256",
              "name": "projId",
              "type": "uint256"
            },
            {
              "internalType": "string",
              "name": "phno",
              "type": "string"
            }
          ],
          "internalType": "struct Charity.Request[]",
          "name": "",
          "type": "tuple[]"
        }
      ],
      "stateMutability": "view",
      "type": "function"
    },
    {
      "inputs": [
        {
          "internalType": "address",
          "name": "_wallet",
          "type": "address"
        }
      ],
      "name": "getUser",
      "outputs": [
        {
          "components": [
            {
              "internalType": "address",
              "name": "wallet",
              "type": "address"
            },
            {
              "internalType": "string",
              "name": "name",
              "type": "string"
            },
            {
              "internalType": "string",
              "name": "username",
              "type": "string"
            },
            {
              "internalType": "string",
              "name": "usertype",
              "type": "string"
            }
          ],
          "internalType": "struct Charity.User",
          "name": "",
          "type": "tuple"
        }
      ],
      "stateMutability": "view",
      "type": "function"
    },
    {
      "inputs": [],
      "name": "getValidatorSecret",
      "outputs": [
        {
          "internalType": "string",
          "name": "",
          "type": "string"
        }
      ],
      "stateMutability": "pure",
      "type": "function"
    },
    {
      "inputs": [],
      "name": "getVoteRequests",
      "outputs": [
        {
          "components": [
            {
              "internalType": "string",
              "name": "reason",
              "type": "string"
            },
            {
              "internalType": "string",
              "name": "recepientLink",
              "type": "string"
            },
            {
              "internalType": "uint256",
              "name": "amount",
              "type": "uint256"
            },
            {
              "internalType": "string",
              "name": "projTitle",
              "type": "string"
            }
          ],
          "internalType": "struct Charity.voteRequestDetail[]",
          "name": "",
          "type": "tuple[]"
        }
      ],
      "stateMutability": "view",
      "type": "function"
    },
    {
      "inputs": [
        {
          "internalType": "uint256",
          "name": "_reqNo",
          "type": "uint256"
        }
      ],
      "name": "makePayment",
      "outputs": [],
      "stateMutability": "nonpayable",
      "type": "function"
    },
    {
      "inputs": [],
      "name": "numProjs",
      "outputs": [
        {
          "internalType": "uint256",
          "name": "",
          "type": "uint256"
        }
      ],
      "stateMutability": "view",
      "type": "function"
    },
    {
      "inputs": [],
      "name": "numVoteRequests",
      "outputs": [
        {
          "internalType": "uint256",
          "name": "",
          "type": "uint256"
        }
      ],
      "stateMutability": "view",
      "type": "function"
    },
    {
      "inputs": [
        {
          "internalType": "uint256",
          "name": "",
          "type": "uint256"
        }
      ],
      "name": "projDetails",
      "outputs": [
        {
          "internalType": "string",
          "name": "title",
          "type": "string"
        },
        {
          "internalType": "string",
          "name": "description",
          "type": "string"
        },
        {
          "internalType": "uint256",
          "name": "amt",
          "type": "uint256"
        },
        {
          "internalType": "uint256",
          "name": "donorCount",
          "type": "uint256"
        }
      ],
      "stateMutability": "view",
      "type": "function"
    },
    {
      "inputs": [
        {
          "internalType": "uint256",
          "name": "",
          "type": "uint256"
        }
      ],
      "name": "projs",
      "outputs": [
        {
          "internalType": "string",
          "name": "title",
          "type": "string"
        },
        {
          "internalType": "string",
          "name": "description",
          "type": "string"
        },
        {
          "internalType": "address",
          "name": "creator",
          "type": "address"
        },
        {
          "internalType": "uint256",
          "name": "amt",
          "type": "uint256"
        },
        {
          "internalType": "uint256",
          "name": "projectId",
          "type": "uint256"
        }
      ],
      "stateMutability": "view",
      "type": "function"
    },
    {
      "inputs": [
        {
          "internalType": "string",
          "name": "_username",
          "type": "string"
        },
        {
          "internalType": "string",
          "name": "_name",
          "type": "string"
        },
        {
          "internalType": "string",
          "name": "_usertype",
          "type": "string"
        }
      ],
      "name": "register",
      "outputs": [],
      "stateMutability": "nonpayable",
      "type": "function"
    },
    {
      "inputs": [
        {
          "internalType": "string",
          "name": "_username",
          "type": "string"
        },
        {
          "internalType": "string",
          "name": "_name",
          "type": "string"
        },
        {
          "internalType": "string",
          "name": "_usertype",
          "type": "string"
        },
        {
          "internalType": "string",
          "name": "link",
          "type": "string"
        }
      ],
      "name": "registerB",
      "outputs": [],
      "stateMutability": "nonpayable",
      "type": "function"
    },
    {
      "inputs": [
        {
          "internalType": "uint256",
          "name": "reqId",
          "type": "uint256"
        }
      ],
      "name": "rejectRequest",
      "outputs": [],
      "stateMutability": "nonpayable",
      "type": "function"
    },
    {
      "inputs": [
        {
          "internalType": "uint256",
          "name": "",
          "type": "uint256"
        }
      ],
      "name": "requests",
      "outputs": [
        {
          "internalType": "string",
          "name": "reason",
          "type": "string"
        },
        {
          "internalType": "address payable",
          "name": "recepient",
          "type": "address"
        },
        {
          "internalType": "string",
          "name": "requestor",
          "type": "string"
        },
        {
          "internalType": "uint256",
          "name": "amount",
          "type": "uint256"
        },
        {
          "internalType": "uint256",
          "name": "reqId",
          "type": "uint256"
        },
        {
          "internalType": "string",
          "name": "reqLink",
          "type": "string"
        },
        {
          "internalType": "string",
          "name": "projTitle",
          "type": "string"
        },
        {
          "internalType": "uint256",
          "name": "projId",
          "type": "uint256"
        },
        {
          "internalType": "string",
          "name": "phno",
          "type": "string"
        }
      ],
      "stateMutability": "view",
      "type": "function"
    },
    {
      "inputs": [
        {
          "internalType": "address",
          "name": "",
          "type": "address"
        }
      ],
      "name": "usernames",
      "outputs": [
        {
          "internalType": "string",
          "name": "",
          "type": "string"
        }
      ],
      "stateMutability": "view",
      "type": "function"
    },
    {
      "inputs": [
        {
          "internalType": "string",
          "name": "",
          "type": "string"
        }
      ],
      "name": "users",
      "outputs": [
        {
          "internalType": "address",
          "name": "wallet",
          "type": "address"
        },
        {
          "internalType": "string",
          "name": "name",
          "type": "string"
        },
        {
          "internalType": "string",
          "name": "username",
          "type": "string"
        },
        {
          "internalType": "string",
          "name": "usertype",
          "type": "string"
        }
      ],
      "stateMutability": "view",
      "type": "function"
    },
    {
      "inputs": [
        {
          "internalType": "uint256",
          "name": "",
          "type": "uint256"
        }
      ],
      "name": "voteRequestDetails",
      "outputs": [
        {
          "internalType": "string",
          "name": "reason",
          "type": "string"
        },
        {
          "internalType": "string",
          "name": "recepientLink",
          "type": "string"
        },
        {
          "internalType": "uint256",
          "name": "amount",
          "type": "uint256"
        },
        {
          "internalType": "string",
          "name": "projTitle",
          "type": "string"
        }
      ],
      "stateMutability": "view",
      "type": "function"
    },
    {
      "inputs": [
        {
          "internalType": "uint256",
          "name": "",
          "type": "uint256"
        }
      ],
      "name": "voteRequests",
      "outputs": [
        {
          "internalType": "string",
          "name": "reason",
          "type": "string"
        },
        {
          "internalType": "address payable",
          "name": "recepient",
          "type": "address"
        },
        {
          "internalType": "string",
          "name": "recepientLink",
          "type": "string"
        },
        {
          "internalType": "uint256",
          "name": "amount",
          "type": "uint256"
        },
        {
          "internalType": "string",
          "name": "projTitle",
          "type": "string"
        },
        {
          "internalType": "uint256",
          "name": "projId",
          "type": "uint256"
        },
        {
          "internalType": "uint256",
          "name": "noOfVoters",
          "type": "uint256"
        }
      ],
      "stateMutability": "view",
      "type": "function"
    }
  ],
  "bytecode": "0x608060405234801561001057600080fd5b50615b6280620000216000396000f3fe6080604052600436106101815760003560e01c80637ccf3887116100d1578063d7d1bbdb1161008a578063e411122911610064578063e41112291461059d578063ee91877c146105dd578063f97cbe231461061a578063fdbb33c21461064557610181565b8063d7d1bbdb14610520578063d817b07514610549578063dcc601281461057257610181565b80637ccf38871461040857806381d12c58146104335780638813ce1214610478578063b78c89ff146104a3578063bb326613146104cc578063d1d396db146104f557610181565b80634cd08d031161013e578063689e1c0311610118578063689e1c031461031f5780636bd062041461035f5780636f77926b1461038857806370ef09bd146103c557610181565b80634cd08d031461028d5780635114cb52146102b65780635e94cdae146102df57610181565b80630565e94a1461018657806312065fe0146101a25780632d7788db146101cd57806330f6a57d146101f65780633ba3023714610237578063472159af14610262575b600080fd5b6101a0600480360381019061019b9190614a45565b61068a565b005b3480156101ae57600080fd5b506101b7610911565b6040516101c49190615560565b60405180910390f35b3480156101d957600080fd5b506101f460048036038101906101ef9190614a45565b610919565b005b34801561020257600080fd5b5061021d60048036038101906102189190614a45565b610b72565b60405161022e959493929190615370565b60405180910390f35b34801561024357600080fd5b5061024c610cd8565b60405161025991906151f8565b60405180910390f35b34801561026e57600080fd5b50610277610ef7565b6040516102849190615560565b60405180910390f35b34801561029957600080fd5b506102b460048036038101906102af9190614858565b610efd565b005b3480156102c257600080fd5b506102dd60048036038101906102d89190614a45565b611188565b005b3480156102eb57600080fd5b5061030660048036038101906103019190614a45565b611395565b60405161031694939291906153d1565b60405180910390f35b34801561032b57600080fd5b50610346600480360381019061034191906147ab565b61156d565b604051610356949392919061515a565b60405180910390f35b34801561036b57600080fd5b50610386600480360381019061038191906147ec565b61176b565b005b34801561039457600080fd5b506103af60048036038101906103aa9190614782565b611a08565b6040516103bc919061553e565b60405180910390f35b3480156103d157600080fd5b506103ec60048036038101906103e79190614a45565b611c89565b6040516103ff979695949392919061523c565b60405180910390f35b34801561041457600080fd5b5061041d611e83565b60405161042a9190615560565b60405180910390f35b34801561043f57600080fd5b5061045a60048036038101906104559190614a45565b611e89565b60405161046f999897969594939291906152c0565b60405180910390f35b34801561048457600080fd5b5061048d6121af565b60405161049a91906151d6565b60405180910390f35b3480156104af57600080fd5b506104ca60048036038101906104c591906148ef565b61255d565b005b3480156104d857600080fd5b506104f360048036038101906104ee91906149b2565b6128f0565b005b34801561050157600080fd5b5061050a612d54565b60405161051791906151d6565b60405180910390f35b34801561052c57600080fd5b5061054760048036038101906105429190614a45565b613102565b005b34801561055557600080fd5b50610570600480360381019061056b9190614a45565b613801565b005b34801561057e57600080fd5b50610587613a84565b60405161059491906151b4565b60405180910390f35b3480156105a957600080fd5b506105c460048036038101906105bf9190614a45565b613c1b565b6040516105d4949392919061542b565b60405180910390f35b3480156105e957600080fd5b5061060460048036038101906105ff9190614782565b613d6b565b604051610611919061521a565b60405180910390f35b34801561062657600080fd5b5061062f613e0b565b60405161063c919061521a565b60405180910390f35b34801561065157600080fd5b5061066c60048036038101906106679190614a45565b613e48565b604051610681999897969594939291906152c0565b60405180910390f35b60405160200161069990615145565b6040516020818303038152906040528051906020012060016000803373ffffffffffffffffffffffffffffffffffffffff1673ffffffffffffffffffffffffffffffffffffffff1681526020019081526020016000206040516106fc9190615104565b908152602001604051809103902060030160405160200161071d9190615104565b604051602081830303815290604052805190602001201461073d57600080fd5b60036000828152602001908152602001600020600301339080600181540180825580915050600190039060005260206000200160009091909190916101000a81548173ffffffffffffffffffffffffffffffffffffffff021916908373ffffffffffffffffffffffffffffffffffffffff160217905550346003600083815260200190815260200160002060060160003373ffffffffffffffffffffffffffffffffffffffff1673ffffffffffffffffffffffffffffffffffffffff168152602001908152602001600020600082825461081791906156c9565b925050819055503460036000838152602001908152602001600020600401600082825461084491906156c9565b925050819055503460058281548110610886577f4e487b7100000000000000000000000000000000000000000000000000000000600052603260045260246000fd5b906000526020600020906004020160020160008282546108a691906156c9565b92505081905550600581815481106108e7577f4e487b7100000000000000000000000000000000000000000000000000000000600052603260045260246000fd5b9060005260206000209060040201600301600081548092919061090990615877565b919050555050565b600047905090565b6040516020016109289061511b565b6040516020818303038152906040528051906020012060016000803373ffffffffffffffffffffffffffffffffffffffff1673ffffffffffffffffffffffffffffffffffffffff16815260200190815260200160002060405161098b9190615104565b90815260200160405180910390206003016040516020016109ac9190615104565b60405160208183030381529060405280519060200120146109cc57600080fd5b600760068281548110610a08577f4e487b7100000000000000000000000000000000000000000000000000000000600052603260045260246000fd5b906000526020600020906009020190806001815401808255809150506001900390600052602060002090600902016000909190919091506000820181600001908054610a5390615814565b610a5e92919061442b565b506001820160009054906101000a900473ffffffffffffffffffffffffffffffffffffffff168160010160006101000a81548173ffffffffffffffffffffffffffffffffffffffff021916908373ffffffffffffffffffffffffffffffffffffffff1602179055506002820181600201908054610ada90615814565b610ae592919061442b565b5060038201548160030155600482015481600401556005820181600501908054610b0e90615814565b610b1992919061442b565b506006820181600601908054610b2e90615814565b610b3992919061442b565b50600782015481600701556008820181600801908054610b5890615814565b610b6392919061442b565b505050610b6f8161416e565b50565b6003602052806000526040600020600091509050806000018054610b9590615814565b80601f0160208091040260200160405190810160405280929190818152602001828054610bc190615814565b8015610c0e5780601f10610be357610100808354040283529160200191610c0e565b820191906000526020600020905b815481529060010190602001808311610bf157829003601f168201915b505050505090806001018054610c2390615814565b80601f0160208091040260200160405190810160405280929190818152602001828054610c4f90615814565b8015610c9c5780601f10610c7157610100808354040283529160200191610c9c565b820191906000526020600020905b815481529060010190602001808311610c7f57829003601f168201915b5050505050908060020160009054906101000a900473ffffffffffffffffffffffffffffffffffffffff16908060040154908060050154905085565b6060600a805480602002602001604051908101604052809291908181526020016000905b82821015610eee5783829060005260206000209060040201604051806080016040529081600082018054610d2f90615814565b80601f0160208091040260200160405190810160405280929190818152602001828054610d5b90615814565b8015610da85780601f10610d7d57610100808354040283529160200191610da8565b820191906000526020600020905b815481529060010190602001808311610d8b57829003601f168201915b50505050508152602001600182018054610dc190615814565b80601f0160208091040260200160405190810160405280929190818152602001828054610ded90615814565b8015610e3a5780601f10610e0f57610100808354040283529160200191610e3a565b820191906000526020600020905b815481529060010190602001808311610e1d57829003601f168201915b5050505050815260200160028201548152602001600382018054610e5d90615814565b80601f0160208091040260200160405190810160405280929190818152602001828054610e8990615814565b8015610ed65780601f10610eab57610100808354040283529160200191610ed6565b820191906000526020600020905b815481529060010190602001808311610eb957829003601f168201915b50505050508152505081526020019060010190610cfc565b50505050905090565b60045481565b60008060003373ffffffffffffffffffffffffffffffffffffffff1673ffffffffffffffffffffffffffffffffffffffff1681526020019081526020016000208054610f4890615814565b905014610f8a576040517f08c379a0000000000000000000000000000000000000000000000000000000008152600401610f81906154de565b60405180910390fd5b600073ffffffffffffffffffffffffffffffffffffffff16600184604051610fb291906150ed565b908152602001604051809103902060000160009054906101000a900473ffffffffffffffffffffffffffffffffffffffff1673ffffffffffffffffffffffffffffffffffffffff161461103a576040517f08c379a0000000000000000000000000000000000000000000000000000000008152600401611031906154be565b60405180910390fd5b60405180608001604052803373ffffffffffffffffffffffffffffffffffffffff1681526020018381526020018481526020018281525060018460405161108191906150ed565b908152602001604051809103902060008201518160000160006101000a81548173ffffffffffffffffffffffffffffffffffffffff021916908373ffffffffffffffffffffffffffffffffffffffff16021790555060208201518160010190805190602001906110f29291906144b8565b50604082015181600201908051906020019061110f9291906144b8565b50606082015181600301908051906020019061112c9291906144b8565b50905050826000803373ffffffffffffffffffffffffffffffffffffffff1673ffffffffffffffffffffffffffffffffffffffff16815260200190815260200160002090805190602001906111829291906144b8565b50505050565b6040516020016111979061511b565b6040516020818303038152906040528051906020012060016000803373ffffffffffffffffffffffffffffffffffffffff1673ffffffffffffffffffffffffffffffffffffffff1681526020019081526020016000206040516111fa9190615104565b908152602001604051809103902060030160405160200161121b9190615104565b604051602081830303815290604052805190602001201461123b57600080fd5b6000600860008381526020019081526020016000209050600360008260050154815260200190815260200160002060040154816003015411156112b3576040517f08c379a00000000000000000000000000000000000000000000000000000000081526004016112aa9061549e565b60405180910390fd5b60026003600083600501548152602001908152602001600020600301805490506112dd919061571f565b816006015411611322576040517f08c379a0000000000000000000000000000000000000000000000000000000008152600401611319906154fe565b60405180910390fd5b8060010160009054906101000a900473ffffffffffffffffffffffffffffffffffffffff1673ffffffffffffffffffffffffffffffffffffffff166108fc82600301549081150290604051600060405180830381858888f19350505050158015611390573d6000803e3d6000fd5b505050565b600a81815481106113a557600080fd5b90600052602060002090600402016000915090508060000180546113c890615814565b80601f01602080910402602001604051908101604052809291908181526020018280546113f490615814565b80156114415780601f1061141657610100808354040283529160200191611441565b820191906000526020600020905b81548152906001019060200180831161142457829003601f168201915b50505050509080600101805461145690615814565b80601f016020809104026020016040519081016040528092919081815260200182805461148290615814565b80156114cf5780601f106114a4576101008083540402835291602001916114cf565b820191906000526020600020905b8154815290600101906020018083116114b257829003601f168201915b5050505050908060020154908060030180546114ea90615814565b80601f016020809104026020016040519081016040528092919081815260200182805461151690615814565b80156115635780601f1061153857610100808354040283529160200191611563565b820191906000526020600020905b81548152906001019060200180831161154657829003601f168201915b5050505050905084565b6001818051602081018201805184825260208301602085012081835280955050505050506000915090508060000160009054906101000a900473ffffffffffffffffffffffffffffffffffffffff16908060010180546115cc90615814565b80601f01602080910402602001604051908101604052809291908181526020018280546115f890615814565b80156116455780601f1061161a57610100808354040283529160200191611645565b820191906000526020600020905b81548152906001019060200180831161162857829003601f168201915b50505050509080600201805461165a90615814565b80601f016020809104026020016040519081016040528092919081815260200182805461168690615814565b80156116d35780601f106116a8576101008083540402835291602001916116d3565b820191906000526020600020905b8154815290600101906020018083116116b657829003601f168201915b5050505050908060030180546116e890615814565b80601f016020809104026020016040519081016040528092919081815260200182805461171490615814565b80156117615780601f1061173657610100808354040283529160200191611761565b820191906000526020600020905b81548152906001019060200180831161174457829003601f168201915b5050505050905084565b60405160200161177a90615130565b6040516020818303038152906040528051906020012060016000803373ffffffffffffffffffffffffffffffffffffffff1673ffffffffffffffffffffffffffffffffffffffff1681526020019081526020016000206040516117dd9190615104565b90815260200160405180910390206003016040516020016117fe9190615104565b604051602081830303815290604052805190602001201461181e57600080fd5b600060036000600454815260200190815260200160002090506004600081548092919061184a90615877565b9190505550818160000190805190602001906118679291906144b8565b50828160010190805190602001906118809291906144b8565b50338160020160006101000a81548173ffffffffffffffffffffffffffffffffffffffff021916908373ffffffffffffffffffffffffffffffffffffffff160217905550600067ffffffffffffffff811115611905577f4e487b7100000000000000000000000000000000000000000000000000000000600052604160045260246000fd5b6040519080825280602002602001820160405280156119335781602001602082028036833780820191505090505b5081600301908051906020019061194b92919061453e565b5060008160040181905550438160050181905550600060405180608001604052808481526020018581526020016000815260200160008152509050600581908060018154018082558091505060019003906000526020600020906004020160009091909190915060008201518160000190805190602001906119ce9291906144b8565b5060208201518160010190805190602001906119eb9291906144b8565b506040820151816002015560608201518160030155505050505050565b611a106145c8565b60016000808473ffffffffffffffffffffffffffffffffffffffff1673ffffffffffffffffffffffffffffffffffffffff168152602001908152602001600020604051611a5d9190615104565b90815260200160405180910390206040518060800160405290816000820160009054906101000a900473ffffffffffffffffffffffffffffffffffffffff1673ffffffffffffffffffffffffffffffffffffffff1673ffffffffffffffffffffffffffffffffffffffff168152602001600182018054611adc90615814565b80601f0160208091040260200160405190810160405280929190818152602001828054611b0890615814565b8015611b555780601f10611b2a57610100808354040283529160200191611b55565b820191906000526020600020905b815481529060010190602001808311611b3857829003601f168201915b50505050508152602001600282018054611b6e90615814565b80601f0160208091040260200160405190810160405280929190818152602001828054611b9a90615814565b8015611be75780601f10611bbc57610100808354040283529160200191611be7565b820191906000526020600020905b815481529060010190602001808311611bca57829003601f168201915b50505050508152602001600382018054611c0090615814565b80601f0160208091040260200160405190810160405280929190818152602001828054611c2c90615814565b8015611c795780601f10611c4e57610100808354040283529160200191611c79565b820191906000526020600020905b815481529060010190602001808311611c5c57829003601f168201915b5050505050815250509050919050565b6008602052806000526040600020600091509050806000018054611cac90615814565b80601f0160208091040260200160405190810160405280929190818152602001828054611cd890615814565b8015611d255780601f10611cfa57610100808354040283529160200191611d25565b820191906000526020600020905b815481529060010190602001808311611d0857829003601f168201915b5050505050908060010160009054906101000a900473ffffffffffffffffffffffffffffffffffffffff1690806002018054611d6090615814565b80601f0160208091040260200160405190810160405280929190818152602001828054611d8c90615814565b8015611dd95780601f10611dae57610100808354040283529160200191611dd9565b820191906000526020600020905b815481529060010190602001808311611dbc57829003601f168201915b505050505090806003015490806004018054611df490615814565b80601f0160208091040260200160405190810160405280929190818152602001828054611e2090615814565b8015611e6d5780601f10611e4257610100808354040283529160200191611e6d565b820191906000526020600020905b815481529060010190602001808311611e5057829003601f168201915b5050505050908060050154908060060154905087565b60095481565b60068181548110611e9957600080fd5b9060005260206000209060090201600091509050806000018054611ebc90615814565b80601f0160208091040260200160405190810160405280929190818152602001828054611ee890615814565b8015611f355780601f10611f0a57610100808354040283529160200191611f35565b820191906000526020600020905b815481529060010190602001808311611f1857829003601f168201915b5050505050908060010160009054906101000a900473ffffffffffffffffffffffffffffffffffffffff1690806002018054611f7090615814565b80601f0160208091040260200160405190810160405280929190818152602001828054611f9c90615814565b8015611fe95780601f10611fbe57610100808354040283529160200191611fe9565b820191906000526020600020905b815481529060010190602001808311611fcc57829003601f168201915b50505050509080600301549080600401549080600501805461200a90615814565b80601f016020809104026020016040519081016040528092919081815260200182805461203690615814565b80156120835780601f1061205857610100808354040283529160200191612083565b820191906000526020600020905b81548152906001019060200180831161206657829003601f168201915b50505050509080600601805461209890615814565b80601f01602080910402602001604051908101604052809291908181526020018280546120c490615814565b80156121115780601f106120e657610100808354040283529160200191612111565b820191906000526020600020905b8154815290600101906020018083116120f457829003601f168201915b50505050509080600701549080600801805461212c90615814565b80601f016020809104026020016040519081016040528092919081815260200182805461215890615814565b80156121a55780601f1061217a576101008083540402835291602001916121a5565b820191906000526020600020905b81548152906001019060200180831161218857829003601f168201915b5050505050905089565b60606006805480602002602001604051908101604052809291908181526020016000905b8282101561255457838290600052602060002090600902016040518061012001604052908160008201805461220790615814565b80601f016020809104026020016040519081016040528092919081815260200182805461223390615814565b80156122805780601f1061225557610100808354040283529160200191612280565b820191906000526020600020905b81548152906001019060200180831161226357829003601f168201915b505050505081526020016001820160009054906101000a900473ffffffffffffffffffffffffffffffffffffffff1673ffffffffffffffffffffffffffffffffffffffff1673ffffffffffffffffffffffffffffffffffffffff1681526020016002820180546122ef90615814565b80601f016020809104026020016040519081016040528092919081815260200182805461231b90615814565b80156123685780601f1061233d57610100808354040283529160200191612368565b820191906000526020600020905b81548152906001019060200180831161234b57829003601f168201915b50505050508152602001600382015481526020016004820154815260200160058201805461239590615814565b80601f01602080910402602001604051908101604052809291908181526020018280546123c190615814565b801561240e5780601f106123e35761010080835404028352916020019161240e565b820191906000526020600020905b8154815290600101906020018083116123f157829003601f168201915b5050505050815260200160068201805461242790615814565b80601f016020809104026020016040519081016040528092919081815260200182805461245390615814565b80156124a05780601f10612475576101008083540402835291602001916124a0565b820191906000526020600020905b81548152906001019060200180831161248357829003601f168201915b50505050508152602001600782015481526020016008820180546124c390615814565b80601f01602080910402602001604051908101604052809291908181526020018280546124ef90615814565b801561253c5780601f106125115761010080835404028352916020019161253c565b820191906000526020600020905b81548152906001019060200180831161251f57829003601f168201915b505050505081525050815260200190600101906121d3565b50505050905090565b60008060003373ffffffffffffffffffffffffffffffffffffffff1673ffffffffffffffffffffffffffffffffffffffff16815260200190815260200160002080546125a890615814565b9050146125ea576040517f08c379a00000000000000000000000000000000000000000000000000000000081526004016125e1906154de565b60405180910390fd5b600073ffffffffffffffffffffffffffffffffffffffff1660018560405161261291906150ed565b908152602001604051809103902060000160009054906101000a900473ffffffffffffffffffffffffffffffffffffffff1673ffffffffffffffffffffffffffffffffffffffff161461269a576040517f08c379a0000000000000000000000000000000000000000000000000000000008152600401612691906154be565b60405180910390fd5b60405180608001604052803373ffffffffffffffffffffffffffffffffffffffff168152602001848152602001858152602001838152506001856040516126e191906150ed565b908152602001604051809103902060008201518160000160006101000a81548173ffffffffffffffffffffffffffffffffffffffff021916908373ffffffffffffffffffffffffffffffffffffffff16021790555060208201518160010190805190602001906127529291906144b8565b50604082015181600201908051906020019061276f9291906144b8565b50606082015181600301908051906020019061278c9291906144b8565b50905050836000803373ffffffffffffffffffffffffffffffffffffffff1673ffffffffffffffffffffffffffffffffffffffff16815260200190815260200160002090805190602001906127e29291906144b8565b506040516020016127f290615130565b6040516020818303038152906040528051906020012060016000803373ffffffffffffffffffffffffffffffffffffffff1673ffffffffffffffffffffffffffffffffffffffff1681526020019081526020016000206040516128559190615104565b90815260200160405180910390206003016040516020016128769190615104565b604051602081830303815290604052805190602001201461289657600080fd5b80600260003373ffffffffffffffffffffffffffffffffffffffff1673ffffffffffffffffffffffffffffffffffffffff16815260200190815260200160002090805190602001906128e99291906144b8565b5050505050565b6040516020016128ff90615130565b6040516020818303038152906040528051906020012060016000803373ffffffffffffffffffffffffffffffffffffffff1673ffffffffffffffffffffffffffffffffffffffff1681526020019081526020016000206040516129629190615104565b90815260200160405180910390206003016040516020016129839190615104565b60405160208183030381529060405280519060200120146129a357600080fd5b60006040518061012001604052808681526020013373ffffffffffffffffffffffffffffffffffffffff1681526020016000803373ffffffffffffffffffffffffffffffffffffffff1673ffffffffffffffffffffffffffffffffffffffff1681526020019081526020016000208054612a1c90615814565b80601f0160208091040260200160405190810160405280929190818152602001828054612a4890615814565b8015612a955780601f10612a6a57610100808354040283529160200191612a95565b820191906000526020600020905b815481529060010190602001808311612a7857829003601f168201915b50505050508152602001858152602001438152602001600260003373ffffffffffffffffffffffffffffffffffffffff1673ffffffffffffffffffffffffffffffffffffffff1681526020019081526020016000208054612af590615814565b80601f0160208091040260200160405190810160405280929190818152602001828054612b2190615814565b8015612b6e5780601f10612b4357610100808354040283529160200191612b6e565b820191906000526020600020905b815481529060010190602001808311612b5157829003601f168201915b50505050508152602001600360008681526020019081526020016000206000018054612b9990615814565b80601f0160208091040260200160405190810160405280929190818152602001828054612bc590615814565b8015612c125780601f10612be757610100808354040283529160200191612c12565b820191906000526020600020905b815481529060010190602001808311612bf557829003601f168201915b5050505050815260200184815260200183815250905060068190806001815401808255809150506001900390600052602060002090600902016000909190919091506000820151816000019080519060200190612c709291906144b8565b5060208201518160010160006101000a81548173ffffffffffffffffffffffffffffffffffffffff021916908373ffffffffffffffffffffffffffffffffffffffff1602179055506040820151816002019080519060200190612cd49291906144b8565b50606082015181600301556080820151816004015560a0820151816005019080519060200190612d059291906144b8565b5060c0820151816006019080519060200190612d229291906144b8565b5060e08201518160070155610100820151816008019080519060200190612d4a9291906144b8565b5050505050505050565b60606007805480602002602001604051908101604052809291908181526020016000905b828210156130f9578382906000526020600020906009020160405180610120016040529081600082018054612dac90615814565b80601f0160208091040260200160405190810160405280929190818152602001828054612dd890615814565b8015612e255780601f10612dfa57610100808354040283529160200191612e25565b820191906000526020600020905b815481529060010190602001808311612e0857829003601f168201915b505050505081526020016001820160009054906101000a900473ffffffffffffffffffffffffffffffffffffffff1673ffffffffffffffffffffffffffffffffffffffff1673ffffffffffffffffffffffffffffffffffffffff168152602001600282018054612e9490615814565b80601f0160208091040260200160405190810160405280929190818152602001828054612ec090615814565b8015612f0d5780601f10612ee257610100808354040283529160200191612f0d565b820191906000526020600020905b815481529060010190602001808311612ef057829003601f168201915b505050505081526020016003820154815260200160048201548152602001600582018054612f3a90615814565b80601f0160208091040260200160405190810160405280929190818152602001828054612f6690615814565b8015612fb35780601f10612f8857610100808354040283529160200191612fb3565b820191906000526020600020905b815481529060010190602001808311612f9657829003601f168201915b50505050508152602001600682018054612fcc90615814565b80601f0160208091040260200160405190810160405280929190818152602001828054612ff890615814565b80156130455780601f1061301a57610100808354040283529160200191613045565b820191906000526020600020905b81548152906001019060200180831161302857829003601f168201915b505050505081526020016007820154815260200160088201805461306890615814565b80601f016020809104026020016040519081016040528092919081815260200182805461309490615814565b80156130e15780601f106130b6576101008083540402835291602001916130e1565b820191906000526020600020905b8154815290600101906020018083116130c457829003601f168201915b50505050508152505081526020019060010190612d78565b50505050905090565b6040516020016131119061511b565b6040516020818303038152906040528051906020012060016000803373ffffffffffffffffffffffffffffffffffffffff1673ffffffffffffffffffffffffffffffffffffffff1681526020019081526020016000206040516131749190615104565b90815260200160405180910390206003016040516020016131959190615104565b60405160208183030381529060405280519060200120146131b557600080fd5b60006008600060095481526020019081526020016000209050600960008154809291906131e190615877565b919050555060068281548110613220577f4e487b7100000000000000000000000000000000000000000000000000000000600052603260045260246000fd5b90600052602060002090600902016000018160000190805461324190615814565b61324c929190614606565b5060068281548110613287577f4e487b7100000000000000000000000000000000000000000000000000000000600052603260045260246000fd5b906000526020600020906009020160010160009054906101000a900473ffffffffffffffffffffffffffffffffffffffff168160010160006101000a81548173ffffffffffffffffffffffffffffffffffffffff021916908373ffffffffffffffffffffffffffffffffffffffff16021790555060068281548110613335577f4e487b7100000000000000000000000000000000000000000000000000000000600052603260045260246000fd5b90600052602060002090600902016005018160020190805461335690615814565b613361929190614606565b506006828154811061339c577f4e487b7100000000000000000000000000000000000000000000000000000000600052603260045260246000fd5b9060005260206000209060090201600301548160030181905550600682815481106133f0577f4e487b7100000000000000000000000000000000000000000000000000000000600052603260045260246000fd5b90600052602060002090600902016006018160040190805461341190615814565b61341c929190614606565b5060068281548110613457577f4e487b7100000000000000000000000000000000000000000000000000000000600052603260045260246000fd5b90600052602060002090600902016007015481600501819055506000816006018190555060006040518060800160405280600685815481106134c2577f4e487b7100000000000000000000000000000000000000000000000000000000600052603260045260246000fd5b906000526020600020906009020160000180546134de90615814565b80601f016020809104026020016040519081016040528092919081815260200182805461350a90615814565b80156135575780601f1061352c57610100808354040283529160200191613557565b820191906000526020600020905b81548152906001019060200180831161353a57829003601f168201915b505050505081526020016006858154811061359b577f4e487b7100000000000000000000000000000000000000000000000000000000600052603260045260246000fd5b906000526020600020906009020160050180546135b790615814565b80601f01602080910402602001604051908101604052809291908181526020018280546135e390615814565b80156136305780601f1061360557610100808354040283529160200191613630565b820191906000526020600020905b81548152906001019060200180831161361357829003601f168201915b5050505050815260200160068581548110613674577f4e487b7100000000000000000000000000000000000000000000000000000000600052603260045260246000fd5b9060005260206000209060090201600301548152602001600685815481106136c5577f4e487b7100000000000000000000000000000000000000000000000000000000600052603260045260246000fd5b906000526020600020906009020160060180546136e190615814565b80601f016020809104026020016040519081016040528092919081815260200182805461370d90615814565b801561375a5780601f1061372f5761010080835404028352916020019161375a565b820191906000526020600020905b81548152906001019060200180831161373d57829003601f168201915b50505050508152509050600a81908060018154018082558091505060019003906000526020600020906004020160009091909190915060008201518160000190805190602001906137ac9291906144b8565b5060208201518160010190805190602001906137c99291906144b8565b506040820151816002015560608201518160030190805190602001906137f09291906144b8565b5050506137fc8361416e565b505050565b60405160200161381090615145565b6040516020818303038152906040528051906020012060016000803373ffffffffffffffffffffffffffffffffffffffff1673ffffffffffffffffffffffffffffffffffffffff1681526020019081526020016000206040516138739190615104565b90815260200160405180910390206003016040516020016138949190615104565b60405160208183030381529060405280519060200120146138b457600080fd5b6000600360006008600085815260200190815260200160002060050154815260200190815260200160002060060160003373ffffffffffffffffffffffffffffffffffffffff1673ffffffffffffffffffffffffffffffffffffffff1681526020019081526020016000205411613960576040517f08c379a00000000000000000000000000000000000000000000000000000000081526004016139579061551e565b60405180910390fd5b6000600860008381526020019081526020016000209050600015158160070160003373ffffffffffffffffffffffffffffffffffffffff1673ffffffffffffffffffffffffffffffffffffffff16815260200190815260200160002060009054906101000a900460ff16151514613a0c576040517f08c379a0000000000000000000000000000000000000000000000000000000008152600401613a039061547e565b60405180910390fd5b60018160070160003373ffffffffffffffffffffffffffffffffffffffff1673ffffffffffffffffffffffffffffffffffffffff16815260200190815260200160002060006101000a81548160ff021916908315150217905550806006016000815480929190613a7b90615877565b91905055505050565b60606005805480602002602001604051908101604052809291908181526020016000905b82821015613c125783829060005260206000209060040201604051806080016040529081600082018054613adb90615814565b80601f0160208091040260200160405190810160405280929190818152602001828054613b0790615814565b8015613b545780601f10613b2957610100808354040283529160200191613b54565b820191906000526020600020905b815481529060010190602001808311613b3757829003601f168201915b50505050508152602001600182018054613b6d90615814565b80601f0160208091040260200160405190810160405280929190818152602001828054613b9990615814565b8015613be65780601f10613bbb57610100808354040283529160200191613be6565b820191906000526020600020905b815481529060010190602001808311613bc957829003601f168201915b505050505081526020016002820154815260200160038201548152505081526020019060010190613aa8565b50505050905090565b60058181548110613c2b57600080fd5b9060005260206000209060040201600091509050806000018054613c4e90615814565b80601f0160208091040260200160405190810160405280929190818152602001828054613c7a90615814565b8015613cc75780601f10613c9c57610100808354040283529160200191613cc7565b820191906000526020600020905b815481529060010190602001808311613caa57829003601f168201915b505050505090806001018054613cdc90615814565b80601f0160208091040260200160405190810160405280929190818152602001828054613d0890615814565b8015613d555780601f10613d2a57610100808354040283529160200191613d55565b820191906000526020600020905b815481529060010190602001808311613d3857829003601f168201915b5050505050908060020154908060030154905084565b60006020528060005260406000206000915090508054613d8a90615814565b80601f0160208091040260200160405190810160405280929190818152602001828054613db690615814565b8015613e035780601f10613dd857610100808354040283529160200191613e03565b820191906000526020600020905b815481529060010190602001808311613de657829003601f168201915b505050505081565b60606040518060400160405280600481526020017f4155435a00000000000000000000000000000000000000000000000000000000815250905090565b60078181548110613e5857600080fd5b9060005260206000209060090201600091509050806000018054613e7b90615814565b80601f0160208091040260200160405190810160405280929190818152602001828054613ea790615814565b8015613ef45780601f10613ec957610100808354040283529160200191613ef4565b820191906000526020600020905b815481529060010190602001808311613ed757829003601f168201915b5050505050908060010160009054906101000a900473ffffffffffffffffffffffffffffffffffffffff1690806002018054613f2f90615814565b80601f0160208091040260200160405190810160405280929190818152602001828054613f5b90615814565b8015613fa85780601f10613f7d57610100808354040283529160200191613fa8565b820191906000526020600020905b815481529060010190602001808311613f8b57829003601f168201915b505050505090806003015490806004015490806005018054613fc990615814565b80601f0160208091040260200160405190810160405280929190818152602001828054613ff590615814565b80156140425780601f1061401757610100808354040283529160200191614042565b820191906000526020600020905b81548152906001019060200180831161402557829003601f168201915b50505050509080600601805461405790615814565b80601f016020809104026020016040519081016040528092919081815260200182805461408390615814565b80156140d05780601f106140a5576101008083540402835291602001916140d0565b820191906000526020600020905b8154815290600101906020018083116140b357829003601f168201915b5050505050908060070154908060080180546140eb90615814565b80601f016020809104026020016040519081016040528092919081815260200182805461411790615814565b80156141645780601f1061413957610100808354040283529160200191614164565b820191906000526020600020905b81548152906001019060200180831161414757829003601f168201915b5050505050905089565b600680549050811061417f57600080fd5b600660016006805490506141939190615750565b815481106141ca577f4e487b7100000000000000000000000000000000000000000000000000000000600052603260045260246000fd5b906000526020600020906009020160068281548110614212577f4e487b7100000000000000000000000000000000000000000000000000000000600052603260045260246000fd5b9060005260206000209060090201600082018160000190805461423490615814565b61423f92919061442b565b506001820160009054906101000a900473ffffffffffffffffffffffffffffffffffffffff168160010160006101000a81548173ffffffffffffffffffffffffffffffffffffffff021916908373ffffffffffffffffffffffffffffffffffffffff16021790555060028201816002019080546142bb90615814565b6142c692919061442b565b50600382015481600301556004820154816004015560058201816005019080546142ef90615814565b6142fa92919061442b565b50600682018160060190805461430f90615814565b61431a92919061442b565b5060078201548160070155600882018160080190805461433990615814565b61434492919061442b565b509050506006805480614380577f4e487b7100000000000000000000000000000000000000000000000000000000600052603160045260246000fd5b6001900381819060005260206000209060090201600080820160006143a59190614693565b6001820160006101000a81549073ffffffffffffffffffffffffffffffffffffffff02191690556002820160006143dc9190614693565b600382016000905560048201600090556005820160006143fc9190614693565b60068201600061440c9190614693565b60078201600090556008820160006144249190614693565b5050905550565b82805461443790615814565b90600052602060002090601f01602090048101928261445957600085556144a7565b82601f1061446a57805485556144a7565b828001600101855582156144a757600052602060002091601f016020900482015b828111156144a657825482559160010191906001019061448b565b5b5090506144b491906146d3565b5090565b8280546144c490615814565b90600052602060002090601f0160209004810192826144e6576000855561452d565b82601f106144ff57805160ff191683800117855561452d565b8280016001018555821561452d579182015b8281111561452c578251825591602001919060010190614511565b5b50905061453a91906146d3565b5090565b8280548282559060005260206000209081019282156145b7579160200282015b828111156145b65782518260006101000a81548173ffffffffffffffffffffffffffffffffffffffff021916908373ffffffffffffffffffffffffffffffffffffffff1602179055509160200191906001019061455e565b5b5090506145c491906146d3565b5090565b6040518060800160405280600073ffffffffffffffffffffffffffffffffffffffff1681526020016060815260200160608152602001606081525090565b82805461461290615814565b90600052602060002090601f0160209004810192826146345760008555614682565b82601f106146455780548555614682565b8280016001018555821561468257600052602060002091601f016020900482015b82811115614681578254825591600101919060010190614666565b5b50905061468f91906146d3565b5090565b50805461469f90615814565b6000825580601f106146b157506146d0565b601f0160209004906000526020600020908101906146cf91906146d3565b5b50565b5b808211156146ec5760008160009055506001016146d4565b5090565b60006147036146fe846155a0565b61557b565b90508281526020810184848401111561471b57600080fd5b6147268482856157d2565b509392505050565b60008135905061473d81615afe565b92915050565b600082601f83011261475457600080fd5b81356147648482602086016146f0565b91505092915050565b60008135905061477c81615b15565b92915050565b60006020828403121561479457600080fd5b60006147a28482850161472e565b91505092915050565b6000602082840312156147bd57600080fd5b600082013567ffffffffffffffff8111156147d757600080fd5b6147e384828501614743565b91505092915050565b600080604083850312156147ff57600080fd5b600083013567ffffffffffffffff81111561481957600080fd5b61482585828601614743565b925050602083013567ffffffffffffffff81111561484257600080fd5b61484e85828601614743565b9150509250929050565b60008060006060848603121561486d57600080fd5b600084013567ffffffffffffffff81111561488757600080fd5b61489386828701614743565b935050602084013567ffffffffffffffff8111156148b057600080fd5b6148bc86828701614743565b925050604084013567ffffffffffffffff8111156148d957600080fd5b6148e586828701614743565b9150509250925092565b6000806000806080858703121561490557600080fd5b600085013567ffffffffffffffff81111561491f57600080fd5b61492b87828801614743565b945050602085013567ffffffffffffffff81111561494857600080fd5b61495487828801614743565b935050604085013567ffffffffffffffff81111561497157600080fd5b61497d87828801614743565b925050606085013567ffffffffffffffff81111561499a57600080fd5b6149a687828801614743565b91505092959194509250565b600080600080608085870312156149c857600080fd5b600085013567ffffffffffffffff8111156149e257600080fd5b6149ee87828801614743565b94505060206149ff8782880161476d565b9350506040614a108782880161476d565b925050606085013567ffffffffffffffff811115614a2d57600080fd5b614a3987828801614743565b91505092959194509250565b600060208284031215614a5757600080fd5b6000614a658482850161476d565b91505092915050565b6000614a7a8383614ea2565b905092915050565b6000614a8e8383614f0c565b905092915050565b6000614aa2838361505e565b905092915050565b614ab381615796565b82525050565b614ac281615796565b82525050565b614ad181615784565b82525050565b614ae081615784565b82525050565b6000614af182615616565b614afb8185615669565b935083602082028501614b0d856155d1565b8060005b85811015614b495784840389528151614b2a8582614a6e565b9450614b3583615642565b925060208a01995050600181019050614b11565b50829750879550505050505092915050565b6000614b6682615621565b614b70818561567a565b935083602082028501614b82856155e1565b8060005b85811015614bbe5784840389528151614b9f8582614a82565b9450614baa8361564f565b925060208a01995050600181019050614b86565b50829750879550505050505092915050565b6000614bdb8261562c565b614be5818561568b565b935083602082028501614bf7856155f1565b8060005b85811015614c335784840389528151614c148582614a96565b9450614c1f8361565c565b925060208a01995050600181019050614bfb565b50829750879550505050505092915050565b6000614c5082615637565b614c5a818561569c565b9350614c6a8185602086016157e1565b614c738161597c565b840191505092915050565b6000614c8982615637565b614c9381856156ad565b9350614ca38185602086016157e1565b614cac8161597c565b840191505092915050565b6000614cc282615637565b614ccc81856156be565b9350614cdc8185602086016157e1565b80840191505092915050565b60008154614cf581615814565b614cff81866156be565b94506001821660008114614d1a5760018114614d2b57614d5e565b60ff19831686528186019350614d5e565b614d3485615601565b60005b83811015614d5657815481890152600182019150602081019050614d37565b838801955050505b50505092915050565b6000614d746009836156ad565b9150614d7f8261598d565b602082019050919050565b6000614d97600a836156ad565b9150614da2826159b6565b602082019050919050565b6000614dba600e836156ad565b9150614dc5826159df565b602082019050919050565b6000614ddd600b836156ad565b9150614de882615a08565b602082019050919050565b6000614e00600b836156ad565b9150614e0b82615a31565b602082019050919050565b6000614e236009836156be565b9150614e2e82615a5a565b600982019050919050565b6000614e466011836156ad565b9150614e5182615a83565b602082019050919050565b6000614e69600b836156be565b9150614e7482615aac565b600b82019050919050565b6000614e8c6005836156be565b9150614e9782615ad5565b600582019050919050565b60006080830160008301518482036000860152614ebf8282614c45565b91505060208301518482036020860152614ed98282614c45565b9150506040830151614eee60408601826150cf565b506060830151614f0160608601826150cf565b508091505092915050565b6000610120830160008301518482036000860152614f2a8282614c45565b9150506020830151614f3f6020860182614aaa565b5060408301518482036040860152614f578282614c45565b9150506060830151614f6c60608601826150cf565b506080830151614f7f60808601826150cf565b5060a083015184820360a0860152614f978282614c45565b91505060c083015184820360c0860152614fb18282614c45565b91505060e0830151614fc660e08601826150cf565b50610100830151848203610100860152614fe08282614c45565b9150508091505092915050565b60006080830160008301516150056000860182614ac8565b506020830151848203602086015261501d8282614c45565b915050604083015184820360408601526150378282614c45565b915050606083015184820360608601526150518282614c45565b9150508091505092915050565b6000608083016000830151848203600086015261507b8282614c45565b915050602083015184820360208601526150958282614c45565b91505060408301516150aa60408601826150cf565b50606083015184820360608601526150c28282614c45565b9150508091505092915050565b6150d8816157c8565b82525050565b6150e7816157c8565b82525050565b60006150f98284614cb7565b915081905092915050565b60006151108284614ce8565b915081905092915050565b600061512682614e16565b9150819050919050565b600061513b82614e5c565b9150819050919050565b600061515082614e7f565b9150819050919050565b600060808201905061516f6000830187614ad7565b81810360208301526151818186614c7e565b905081810360408301526151958185614c7e565b905081810360608301526151a98184614c7e565b905095945050505050565b600060208201905081810360008301526151ce8184614ae6565b905092915050565b600060208201905081810360008301526151f08184614b5b565b905092915050565b600060208201905081810360008301526152128184614bd0565b905092915050565b600060208201905081810360008301526152348184614c7e565b905092915050565b600060e0820190508181036000830152615256818a614c7e565b90506152656020830189614ab9565b81810360408301526152778188614c7e565b905061528660608301876150de565b81810360808301526152988186614c7e565b90506152a760a08301856150de565b6152b460c08301846150de565b98975050505050505050565b60006101208201905081810360008301526152db818c614c7e565b90506152ea602083018b614ab9565b81810360408301526152fc818a614c7e565b905061530b60608301896150de565b61531860808301886150de565b81810360a083015261532a8187614c7e565b905081810360c083015261533e8186614c7e565b905061534d60e08301856150de565b8181036101008301526153608184614c7e565b90509a9950505050505050505050565b600060a082019050818103600083015261538a8188614c7e565b9050818103602083015261539e8187614c7e565b90506153ad6040830186614ad7565b6153ba60608301856150de565b6153c760808301846150de565b9695505050505050565b600060808201905081810360008301526153eb8187614c7e565b905081810360208301526153ff8186614c7e565b905061540e60408301856150de565b81810360608301526154208184614c7e565b905095945050505050565b600060808201905081810360008301526154458187614c7e565b905081810360208301526154598186614c7e565b905061546860408301856150de565b61547560608301846150de565b95945050505050565b6000602082019050818103600083015261549781614d67565b9050919050565b600060208201905081810360008301526154b781614d8a565b9050919050565b600060208201905081810360008301526154d781614dad565b9050919050565b600060208201905081810360008301526154f781614dd0565b9050919050565b6000602082019050818103600083015261551781614df3565b9050919050565b6000602082019050818103600083015261553781614e39565b9050919050565b600060208201905081810360008301526155588184614fed565b905092915050565b600060208201905061557560008301846150de565b92915050565b6000615585615596565b90506155918282615846565b919050565b6000604051905090565b600067ffffffffffffffff8211156155bb576155ba61594d565b5b6155c48261597c565b9050602081019050919050565b6000819050602082019050919050565b6000819050602082019050919050565b6000819050602082019050919050565b60008190508160005260206000209050919050565b600081519050919050565b600081519050919050565b600081519050919050565b600081519050919050565b6000602082019050919050565b6000602082019050919050565b6000602082019050919050565b600082825260208201905092915050565b600082825260208201905092915050565b600082825260208201905092915050565b600082825260208201905092915050565b600082825260208201905092915050565b600081905092915050565b60006156d4826157c8565b91506156df836157c8565b9250827fffffffffffffffffffffffffffffffffffffffffffffffffffffffffffffffff03821115615714576157136158c0565b5b828201905092915050565b600061572a826157c8565b9150615735836157c8565b925082615745576157446158ef565b5b828204905092915050565b600061575b826157c8565b9150615766836157c8565b925082821015615779576157786158c0565b5b828203905092915050565b600061578f826157a8565b9050919050565b60006157a1826157a8565b9050919050565b600073ffffffffffffffffffffffffffffffffffffffff82169050919050565b6000819050919050565b82818337600083830152505050565b60005b838110156157ff5780820151818401526020810190506157e4565b8381111561580e576000848401525b50505050565b6000600282049050600182168061582c57607f821691505b602082108114156158405761583f61591e565b5b50919050565b61584f8261597c565b810181811067ffffffffffffffff8211171561586e5761586d61594d565b5b80604052505050565b6000615882826157c8565b91507fffffffffffffffffffffffffffffffffffffffffffffffffffffffffffffffff8214156158b5576158b46158c0565b5b600182019050919050565b7f4e487b7100000000000000000000000000000000000000000000000000000000600052601160045260246000fd5b7f4e487b7100000000000000000000000000000000000000000000000000000000600052601260045260246000fd5b7f4e487b7100000000000000000000000000000000000000000000000000000000600052602260045260246000fd5b7f4e487b7100000000000000000000000000000000000000000000000000000000600052604160045260246000fd5b6000601f19601f8301169050919050565b7f596f7520766f7465640000000000000000000000000000000000000000000000600082015250565b7f4e6f2062616c616e636500000000000000000000000000000000000000000000600082015250565b7f557365726e616d652074616b656e000000000000000000000000000000000000600082015250565b7f5573657220657869737473000000000000000000000000000000000000000000600082015250565b7f4e6f204d616a6f72697479000000000000000000000000000000000000000000600082015250565b7f76616c696461746f720000000000000000000000000000000000000000000000600082015250565b7f596f7520646964276e7420646f6e617465000000000000000000000000000000600082015250565b7f62656e6566696369617279000000000000000000000000000000000000000000600082015250565b7f646f6e6f72000000000000000000000000000000000000000000000000000000600082015250565b615b0781615784565b8114615b1257600080fd5b50565b615b1e816157c8565b8114615b2957600080fd5b5056fea2646970667358221220f67461f7e4b1497e6e5866fe14befc6829c781833254d35c3b5c57dbb0553cea64736f6c63430008040033",
  "linkReferences": {},
  "deployedLinkReferences": {}
}