{
  "_format": "hh-sol-artifact-1",
  "contractName": "Charity",
  "sourceName": "contracts/CIP.sol",
  "abi": [
    {
      "inputs": [
        {
          "internalType": "string",
          "name": "d",
          "type": "string"
        },
        {
          "internalType": "string",
          "name": "t",
          "type": "string"
        }
      ],
      "name": "createProject",
      "outputs": [],
      "stateMutability": "nonpayable",
      "type": "function"
    },
    {
      "inputs": [],
      "name": "getProjects",
      "outputs": [
        {
          "components": [
            {
              "internalType": "string",
              "name": "title",
              "type": "string"
            },
            {
              "internalType": "string",
              "name": "description",
              "type": "string"
            },
            {
              "internalType": "address",
              "name": "creator",
              "type": "address"
            }
          ],
          "internalType": "struct Charity.Project[]",
          "name": "",
          "type": "tuple[]"
        }
      ],
      "stateMutability": "view",
      "type": "function"
    },
    {
      "inputs": [
        {
          "internalType": "address",
          "name": "_wallet",
          "type": "address"
        }
      ],
      "name": "getUser",
      "outputs": [
        {
          "components": [
            {
              "internalType": "address",
              "name": "wallet",
              "type": "address"
            },
            {
              "internalType": "string",
              "name": "name",
              "type": "string"
            },
            {
              "internalType": "string",
              "name": "username",
              "type": "string"
            },
            {
              "internalType": "string",
              "name": "usertype",
              "type": "string"
            }
          ],
          "internalType": "struct Charity.User",
          "name": "",
          "type": "tuple"
        }
      ],
      "stateMutability": "view",
      "type": "function"
    },
    {
      "inputs": [
        {
          "internalType": "uint256",
          "name": "",
          "type": "uint256"
        }
      ],
      "name": "projects",
      "outputs": [
        {
          "internalType": "string",
          "name": "title",
          "type": "string"
        },
        {
          "internalType": "string",
          "name": "description",
          "type": "string"
        },
        {
          "internalType": "address",
          "name": "creator",
          "type": "address"
        }
      ],
      "stateMutability": "view",
      "type": "function"
    },
    {
      "inputs": [
        {
          "internalType": "string",
          "name": "_username",
          "type": "string"
        },
        {
          "internalType": "string",
          "name": "_name",
          "type": "string"
        },
        {
          "internalType": "string",
          "name": "_usertype",
          "type": "string"
        }
      ],
      "name": "register",
      "outputs": [],
      "stateMutability": "nonpayable",
      "type": "function"
    },
    {
      "inputs": [
        {
          "internalType": "address",
          "name": "",
          "type": "address"
        }
      ],
      "name": "usernames",
      "outputs": [
        {
          "internalType": "string",
          "name": "",
          "type": "string"
        }
      ],
      "stateMutability": "view",
      "type": "function"
    },
    {
      "inputs": [
        {
          "internalType": "string",
          "name": "",
          "type": "string"
        }
      ],
      "name": "users",
      "outputs": [
        {
          "internalType": "address",
          "name": "wallet",
          "type": "address"
        },
        {
          "internalType": "string",
          "name": "name",
          "type": "string"
        },
        {
          "internalType": "string",
          "name": "username",
          "type": "string"
        },
        {
          "internalType": "string",
          "name": "usertype",
          "type": "string"
        }
      ],
      "stateMutability": "view",
      "type": "function"
    }
  ],
  "bytecode": "0x608060405234801561001057600080fd5b506118e2806100206000396000f3fe608060405234801561001057600080fd5b506004361061007d5760003560e01c80636bd062041161005b5780636bd06204146101035780636f77926b1461011f578063dcc601281461014f578063ee91877c1461016d5761007d565b8063107046bd146100825780634cd08d03146100b4578063689e1c03146100d0575b600080fd5b61009c60048036038101906100979190611106565b61019d565b6040516100ab9392919061150a565b60405180910390f35b6100ce60048036038101906100c9919061106f565b610307565b005b6100ea60048036038101906100e59190610fc2565b610592565b6040516100fa949392919061146c565b60405180910390f35b61011d60048036038101906101189190611003565b610790565b005b61013960048036038101906101349190610f99565b61092c565b604051610146919061158f565b60405180910390f35b610157610bad565b60405161016491906114c6565b60405180910390f35b61018760048036038101906101829190610f99565b610d86565b60405161019491906114e8565b60405180910390f35b600281815481106101ad57600080fd5b90600052602060002090600302016000915090508060000180546101d09061170b565b80601f01602080910402602001604051908101604052809291908181526020018280546101fc9061170b565b80156102495780601f1061021e57610100808354040283529160200191610249565b820191906000526020600020905b81548152906001019060200180831161022c57829003601f168201915b50505050509080600101805461025e9061170b565b80601f016020809104026020016040519081016040528092919081815260200182805461028a9061170b565b80156102d75780601f106102ac576101008083540402835291602001916102d7565b820191906000526020600020905b8154815290600101906020018083116102ba57829003601f168201915b5050505050908060020160009054906101000a900473ffffffffffffffffffffffffffffffffffffffff16905083565b60008060003373ffffffffffffffffffffffffffffffffffffffff1673ffffffffffffffffffffffffffffffffffffffff16815260200190815260200160002080546103529061170b565b905014610394576040517f08c379a000000000000000000000000000000000000000000000000000000000815260040161038b9061156f565b60405180910390fd5b600073ffffffffffffffffffffffffffffffffffffffff166001846040516103bc9190611429565b908152602001604051809103902060000160009054906101000a900473ffffffffffffffffffffffffffffffffffffffff1673ffffffffffffffffffffffffffffffffffffffff1614610444576040517f08c379a000000000000000000000000000000000000000000000000000000000815260040161043b9061154f565b60405180910390fd5b60405180608001604052803373ffffffffffffffffffffffffffffffffffffffff1681526020018381526020018481526020018281525060018460405161048b9190611429565b908152602001604051809103902060008201518160000160006101000a81548173ffffffffffffffffffffffffffffffffffffffff021916908373ffffffffffffffffffffffffffffffffffffffff16021790555060208201518160010190805190602001906104fc929190610e26565b506040820151816002019080519060200190610519929190610e26565b506060820151816003019080519060200190610536929190610e26565b50905050826000803373ffffffffffffffffffffffffffffffffffffffff1673ffffffffffffffffffffffffffffffffffffffff168152602001908152602001600020908051906020019061058c929190610e26565b50505050565b6001818051602081018201805184825260208301602085012081835280955050505050506000915090508060000160009054906101000a900473ffffffffffffffffffffffffffffffffffffffff16908060010180546105f19061170b565b80601f016020809104026020016040519081016040528092919081815260200182805461061d9061170b565b801561066a5780601f1061063f5761010080835404028352916020019161066a565b820191906000526020600020905b81548152906001019060200180831161064d57829003601f168201915b50505050509080600201805461067f9061170b565b80601f01602080910402602001604051908101604052809291908181526020018280546106ab9061170b565b80156106f85780601f106106cd576101008083540402835291602001916106f8565b820191906000526020600020905b8154815290600101906020018083116106db57829003601f168201915b50505050509080600301805461070d9061170b565b80601f01602080910402602001604051908101604052809291908181526020018280546107399061170b565b80156107865780601f1061075b57610100808354040283529160200191610786565b820191906000526020600020905b81548152906001019060200180831161076957829003601f168201915b5050505050905084565b60405160200161079f90611457565b6040516020818303038152906040528051906020012060016000803373ffffffffffffffffffffffffffffffffffffffff1673ffffffffffffffffffffffffffffffffffffffff1681526020019081526020016000206040516108029190611440565b90815260200160405180910390206003016040516020016108239190611440565b604051602081830303815290604052805190602001201461084357600080fd5b600060405180606001604052808381526020018481526020013373ffffffffffffffffffffffffffffffffffffffff168152509050600281908060018154018082558091505060019003906000526020600020906003020160009091909190915060008201518160000190805190602001906108c0929190610e26565b5060208201518160010190805190602001906108dd929190610e26565b5060408201518160020160006101000a81548173ffffffffffffffffffffffffffffffffffffffff021916908373ffffffffffffffffffffffffffffffffffffffff1602179055505050505050565b610934610eac565b60016000808473ffffffffffffffffffffffffffffffffffffffff1673ffffffffffffffffffffffffffffffffffffffff1681526020019081526020016000206040516109819190611440565b90815260200160405180910390206040518060800160405290816000820160009054906101000a900473ffffffffffffffffffffffffffffffffffffffff1673ffffffffffffffffffffffffffffffffffffffff1673ffffffffffffffffffffffffffffffffffffffff168152602001600182018054610a009061170b565b80601f0160208091040260200160405190810160405280929190818152602001828054610a2c9061170b565b8015610a795780601f10610a4e57610100808354040283529160200191610a79565b820191906000526020600020905b815481529060010190602001808311610a5c57829003601f168201915b50505050508152602001600282018054610a929061170b565b80601f0160208091040260200160405190810160405280929190818152602001828054610abe9061170b565b8015610b0b5780601f10610ae057610100808354040283529160200191610b0b565b820191906000526020600020905b815481529060010190602001808311610aee57829003601f168201915b50505050508152602001600382018054610b249061170b565b80601f0160208091040260200160405190810160405280929190818152602001828054610b509061170b565b8015610b9d5780601f10610b7257610100808354040283529160200191610b9d565b820191906000526020600020905b815481529060010190602001808311610b8057829003601f168201915b5050505050815250509050919050565b60606002805480602002602001604051908101604052809291908181526020016000905b82821015610d7d5783829060005260206000209060030201604051806060016040529081600082018054610c049061170b565b80601f0160208091040260200160405190810160405280929190818152602001828054610c309061170b565b8015610c7d5780601f10610c5257610100808354040283529160200191610c7d565b820191906000526020600020905b815481529060010190602001808311610c6057829003601f168201915b50505050508152602001600182018054610c969061170b565b80601f0160208091040260200160405190810160405280929190818152602001828054610cc29061170b565b8015610d0f5780601f10610ce457610100808354040283529160200191610d0f565b820191906000526020600020905b815481529060010190602001808311610cf257829003601f168201915b505050505081526020016002820160009054906101000a900473ffffffffffffffffffffffffffffffffffffffff1673ffffffffffffffffffffffffffffffffffffffff1673ffffffffffffffffffffffffffffffffffffffff168152505081526020019060010190610bd1565b50505050905090565b60006020528060005260406000206000915090508054610da59061170b565b80601f0160208091040260200160405190810160405280929190818152602001828054610dd19061170b565b8015610e1e5780601f10610df357610100808354040283529160200191610e1e565b820191906000526020600020905b815481529060010190602001808311610e0157829003601f168201915b505050505081565b828054610e329061170b565b90600052602060002090601f016020900481019282610e545760008555610e9b565b82601f10610e6d57805160ff1916838001178555610e9b565b82800160010185558215610e9b579182015b82811115610e9a578251825591602001919060010190610e7f565b5b509050610ea89190610eea565b5090565b6040518060800160405280600073ffffffffffffffffffffffffffffffffffffffff1681526020016060815260200160608152602001606081525090565b5b80821115610f03576000816000905550600101610eeb565b5090565b6000610f1a610f15846115d6565b6115b1565b905082815260208101848484011115610f3257600080fd5b610f3d8482856116c9565b509392505050565b600081359050610f548161187e565b92915050565b600082601f830112610f6b57600080fd5b8135610f7b848260208601610f07565b91505092915050565b600081359050610f9381611895565b92915050565b600060208284031215610fab57600080fd5b6000610fb984828501610f45565b91505092915050565b600060208284031215610fd457600080fd5b600082013567ffffffffffffffff811115610fee57600080fd5b610ffa84828501610f5a565b91505092915050565b6000806040838503121561101657600080fd5b600083013567ffffffffffffffff81111561103057600080fd5b61103c85828601610f5a565b925050602083013567ffffffffffffffff81111561105957600080fd5b61106585828601610f5a565b9150509250929050565b60008060006060848603121561108457600080fd5b600084013567ffffffffffffffff81111561109e57600080fd5b6110aa86828701610f5a565b935050602084013567ffffffffffffffff8111156110c757600080fd5b6110d386828701610f5a565b925050604084013567ffffffffffffffff8111156110f057600080fd5b6110fc86828701610f5a565b9150509250925092565b60006020828403121561111857600080fd5b600061112684828501610f84565b91505092915050565b600061113b8383611361565b905092915050565b61114c8161168d565b82525050565b61115b8161168d565b82525050565b600061116c8261162c565b611176818561164f565b93508360208202850161118885611607565b8060005b858110156111c457848403895281516111a5858261112f565b94506111b083611642565b925060208a0199505060018101905061118c565b50829750879550505050505092915050565b60006111e182611637565b6111eb8185611660565b93506111fb8185602086016116d8565b611204816117cc565b840191505092915050565b600061121a82611637565b6112248185611671565b93506112348185602086016116d8565b61123d816117cc565b840191505092915050565b600061125382611637565b61125d8185611682565b935061126d8185602086016116d8565b80840191505092915050565b600081546112868161170b565b6112908186611682565b945060018216600081146112ab57600181146112bc576112ef565b60ff198316865281860193506112ef565b6112c585611617565b60005b838110156112e7578154818901526001820191506020810190506112c8565b838801955050505b50505092915050565b6000611305602683611671565b9150611310826117dd565b604082019050919050565b6000611328601383611671565b91506113338261182c565b602082019050919050565b600061134b600b83611682565b915061135682611855565b600b82019050919050565b6000606083016000830151848203600086015261137e82826111d6565b9150506020830151848203602086015261139882826111d6565b91505060408301516113ad6040860182611143565b508091505092915050565b60006080830160008301516113d06000860182611143565b50602083015184820360208601526113e882826111d6565b9150506040830151848203604086015261140282826111d6565b9150506060830151848203606086015261141c82826111d6565b9150508091505092915050565b60006114358284611248565b915081905092915050565b600061144c8284611279565b915081905092915050565b60006114628261133e565b9150819050919050565b60006080820190506114816000830187611152565b8181036020830152611493818661120f565b905081810360408301526114a7818561120f565b905081810360608301526114bb818461120f565b905095945050505050565b600060208201905081810360008301526114e08184611161565b905092915050565b60006020820190508181036000830152611502818461120f565b905092915050565b60006060820190508181036000830152611524818661120f565b90508181036020830152611538818561120f565b90506115476040830184611152565b949350505050565b60006020820190508181036000830152611568816112f8565b9050919050565b600060208201905081810360008301526115888161131b565b9050919050565b600060208201905081810360008301526115a981846113b8565b905092915050565b60006115bb6115cc565b90506115c7828261173d565b919050565b6000604051905090565b600067ffffffffffffffff8211156115f1576115f061179d565b5b6115fa826117cc565b9050602081019050919050565b6000819050602082019050919050565b60008190508160005260206000209050919050565b600081519050919050565b600081519050919050565b6000602082019050919050565b600082825260208201905092915050565b600082825260208201905092915050565b600082825260208201905092915050565b600081905092915050565b60006116988261169f565b9050919050565b600073ffffffffffffffffffffffffffffffffffffffff82169050919050565b6000819050919050565b82818337600083830152505050565b60005b838110156116f65780820151818401526020810190506116db565b83811115611705576000848401525b50505050565b6000600282049050600182168061172357607f821691505b602082108114156117375761173661176e565b5b50919050565b611746826117cc565b810181811067ffffffffffffffff821117156117655761176461179d565b5b80604052505050565b7f4e487b7100000000000000000000000000000000000000000000000000000000600052602260045260246000fd5b7f4e487b7100000000000000000000000000000000000000000000000000000000600052604160045260246000fd5b6000601f19601f8301169050919050565b7f557365726e616d6520697320616c72656164792074616b656e2c20547279206160008201527f6e6f746865720000000000000000000000000000000000000000000000000000602082015250565b7f5573657220616c72656164792065786973747300000000000000000000000000600082015250565b7f62656e6566696369617279000000000000000000000000000000000000000000600082015250565b6118878161168d565b811461189257600080fd5b50565b61189e816116bf565b81146118a957600080fd5b5056fea26469706673582212207ba479acde89d269e0fca3b514abadceba3ffa0be30d9ba6f3e227ab41f9849364736f6c63430008040033",
  "linkReferences": {},
  "deployedLinkReferences": {}
}