{
  "_format": "hh-sol-artifact-1",
  "contractName": "Charity",
  "sourceName": "contracts/CIP.sol",
  "abi": [
    {
      "inputs": [
        {
          "internalType": "uint256",
          "name": "reqId",
          "type": "uint256"
        }
      ],
      "name": "approveRequest",
      "outputs": [],
      "stateMutability": "nonpayable",
      "type": "function"
    },
    {
      "inputs": [
        {
          "internalType": "string",
          "name": "d",
          "type": "string"
        },
        {
          "internalType": "string",
          "name": "t",
          "type": "string"
        }
      ],
      "name": "createProject",
      "outputs": [],
      "stateMutability": "nonpayable",
      "type": "function"
    },
    {
      "inputs": [
        {
          "internalType": "string",
          "name": "r",
          "type": "string"
        },
        {
          "internalType": "uint256",
          "name": "amount",
          "type": "uint256"
        },
        {
          "internalType": "uint256",
          "name": "projId",
          "type": "uint256"
        },
        {
          "internalType": "string",
          "name": "phno",
          "type": "string"
        }
      ],
      "name": "createRequest",
      "outputs": [],
      "stateMutability": "nonpayable",
      "type": "function"
    },
    {
      "inputs": [
        {
          "internalType": "uint256",
          "name": "",
          "type": "uint256"
        }
      ],
      "name": "delRequests",
      "outputs": [
        {
          "internalType": "string",
          "name": "reason",
          "type": "string"
        },
        {
          "internalType": "address payable",
          "name": "recepient",
          "type": "address"
        },
        {
          "internalType": "string",
          "name": "requestor",
          "type": "string"
        },
        {
          "internalType": "uint256",
          "name": "amount",
          "type": "uint256"
        },
        {
          "internalType": "uint256",
          "name": "reqId",
          "type": "uint256"
        },
        {
          "internalType": "string",
          "name": "reqLink",
          "type": "string"
        },
        {
          "internalType": "string",
          "name": "projTitle",
          "type": "string"
        },
        {
          "internalType": "uint256",
          "name": "projId",
          "type": "uint256"
        },
        {
          "internalType": "string",
          "name": "phno",
          "type": "string"
        }
      ],
      "stateMutability": "view",
      "type": "function"
    },
    {
      "inputs": [
        {
          "internalType": "uint256",
          "name": "projId",
          "type": "uint256"
        }
      ],
      "name": "donateMoney",
      "outputs": [],
      "stateMutability": "payable",
      "type": "function"
    },
    {
      "inputs": [
        {
          "internalType": "uint256",
          "name": "_reqNo",
          "type": "uint256"
        }
      ],
      "name": "donorVoteRequest",
      "outputs": [],
      "stateMutability": "nonpayable",
      "type": "function"
    },
    {
      "inputs": [],
      "name": "getDelRequests",
      "outputs": [
        {
          "components": [
            {
              "internalType": "string",
              "name": "reason",
              "type": "string"
            },
            {
              "internalType": "address payable",
              "name": "recepient",
              "type": "address"
            },
            {
              "internalType": "string",
              "name": "requestor",
              "type": "string"
            },
            {
              "internalType": "uint256",
              "name": "amount",
              "type": "uint256"
            },
            {
              "internalType": "uint256",
              "name": "reqId",
              "type": "uint256"
            },
            {
              "internalType": "string",
              "name": "reqLink",
              "type": "string"
            },
            {
              "internalType": "string",
              "name": "projTitle",
              "type": "string"
            },
            {
              "internalType": "uint256",
              "name": "projId",
              "type": "uint256"
            },
            {
              "internalType": "string",
              "name": "phno",
              "type": "string"
            }
          ],
          "internalType": "struct Charity.Request[]",
          "name": "",
          "type": "tuple[]"
        }
      ],
      "stateMutability": "view",
      "type": "function"
    },
    {
      "inputs": [],
      "name": "getProjects",
      "outputs": [
        {
          "components": [
            {
              "internalType": "string",
              "name": "title",
              "type": "string"
            },
            {
              "internalType": "string",
              "name": "description",
              "type": "string"
            },
            {
              "internalType": "uint256",
              "name": "amt",
              "type": "uint256"
            },
            {
              "internalType": "uint256",
              "name": "donorCount",
              "type": "uint256"
            }
          ],
          "internalType": "struct Charity.ProjDetails[]",
          "name": "",
          "type": "tuple[]"
        }
      ],
      "stateMutability": "view",
      "type": "function"
    },
    {
      "inputs": [],
      "name": "getRequests",
      "outputs": [
        {
          "components": [
            {
              "internalType": "string",
              "name": "reason",
              "type": "string"
            },
            {
              "internalType": "address payable",
              "name": "recepient",
              "type": "address"
            },
            {
              "internalType": "string",
              "name": "requestor",
              "type": "string"
            },
            {
              "internalType": "uint256",
              "name": "amount",
              "type": "uint256"
            },
            {
              "internalType": "uint256",
              "name": "reqId",
              "type": "uint256"
            },
            {
              "internalType": "string",
              "name": "reqLink",
              "type": "string"
            },
            {
              "internalType": "string",
              "name": "projTitle",
              "type": "string"
            },
            {
              "internalType": "uint256",
              "name": "projId",
              "type": "uint256"
            },
            {
              "internalType": "string",
              "name": "phno",
              "type": "string"
            }
          ],
          "internalType": "struct Charity.Request[]",
          "name": "",
          "type": "tuple[]"
        }
      ],
      "stateMutability": "view",
      "type": "function"
    },
    {
      "inputs": [
        {
          "internalType": "address",
          "name": "_wallet",
          "type": "address"
        }
      ],
      "name": "getUser",
      "outputs": [
        {
          "components": [
            {
              "internalType": "address",
              "name": "wallet",
              "type": "address"
            },
            {
              "internalType": "string",
              "name": "name",
              "type": "string"
            },
            {
              "internalType": "string",
              "name": "username",
              "type": "string"
            },
            {
              "internalType": "string",
              "name": "usertype",
              "type": "string"
            }
          ],
          "internalType": "struct Charity.User",
          "name": "",
          "type": "tuple"
        }
      ],
      "stateMutability": "view",
      "type": "function"
    },
    {
      "inputs": [],
      "name": "getValidatorSecret",
      "outputs": [
        {
          "internalType": "string",
          "name": "",
          "type": "string"
        }
      ],
      "stateMutability": "pure",
      "type": "function"
    },
    {
      "inputs": [],
      "name": "getVoteRequests",
      "outputs": [
        {
          "components": [
            {
              "internalType": "string",
              "name": "reason",
              "type": "string"
            },
            {
              "internalType": "string",
              "name": "recepientLink",
              "type": "string"
            },
            {
              "internalType": "uint256",
              "name": "amount",
              "type": "uint256"
            },
            {
              "internalType": "string",
              "name": "projTitle",
              "type": "string"
            },
            {
              "internalType": "bool",
              "name": "verified",
              "type": "bool"
            },
            {
              "internalType": "bool",
              "name": "approved",
              "type": "bool"
            }
          ],
          "internalType": "struct Charity.voteRequestDetail[]",
          "name": "",
          "type": "tuple[]"
        }
      ],
      "stateMutability": "view",
      "type": "function"
    },
    {
      "inputs": [
        {
          "internalType": "uint256",
          "name": "_reqNo",
          "type": "uint256"
        }
      ],
      "name": "makePayment",
      "outputs": [],
      "stateMutability": "nonpayable",
      "type": "function"
    },
    {
      "inputs": [],
      "name": "numProjs",
      "outputs": [
        {
          "internalType": "uint256",
          "name": "",
          "type": "uint256"
        }
      ],
      "stateMutability": "view",
      "type": "function"
    },
    {
      "inputs": [],
      "name": "numVoteRequests",
      "outputs": [
        {
          "internalType": "uint256",
          "name": "",
          "type": "uint256"
        }
      ],
      "stateMutability": "view",
      "type": "function"
    },
    {
      "inputs": [
        {
          "internalType": "uint256",
          "name": "",
          "type": "uint256"
        }
      ],
      "name": "projDetails",
      "outputs": [
        {
          "internalType": "string",
          "name": "title",
          "type": "string"
        },
        {
          "internalType": "string",
          "name": "description",
          "type": "string"
        },
        {
          "internalType": "uint256",
          "name": "amt",
          "type": "uint256"
        },
        {
          "internalType": "uint256",
          "name": "donorCount",
          "type": "uint256"
        }
      ],
      "stateMutability": "view",
      "type": "function"
    },
    {
      "inputs": [
        {
          "internalType": "uint256",
          "name": "",
          "type": "uint256"
        }
      ],
      "name": "projs",
      "outputs": [
        {
          "internalType": "string",
          "name": "title",
          "type": "string"
        },
        {
          "internalType": "string",
          "name": "description",
          "type": "string"
        },
        {
          "internalType": "address",
          "name": "creator",
          "type": "address"
        },
        {
          "internalType": "uint256",
          "name": "amt",
          "type": "uint256"
        },
        {
          "internalType": "uint256",
          "name": "projectId",
          "type": "uint256"
        }
      ],
      "stateMutability": "view",
      "type": "function"
    },
    {
      "inputs": [
        {
          "internalType": "string",
          "name": "_username",
          "type": "string"
        },
        {
          "internalType": "string",
          "name": "_name",
          "type": "string"
        },
        {
          "internalType": "string",
          "name": "_usertype",
          "type": "string"
        }
      ],
      "name": "register",
      "outputs": [],
      "stateMutability": "nonpayable",
      "type": "function"
    },
    {
      "inputs": [
        {
          "internalType": "string",
          "name": "_username",
          "type": "string"
        },
        {
          "internalType": "string",
          "name": "_name",
          "type": "string"
        },
        {
          "internalType": "string",
          "name": "_usertype",
          "type": "string"
        },
        {
          "internalType": "string",
          "name": "link",
          "type": "string"
        }
      ],
      "name": "registerB",
      "outputs": [],
      "stateMutability": "nonpayable",
      "type": "function"
    },
    {
      "inputs": [
        {
          "internalType": "uint256",
          "name": "reqId",
          "type": "uint256"
        }
      ],
      "name": "rejectRequest",
      "outputs": [],
      "stateMutability": "nonpayable",
      "type": "function"
    },
    {
      "inputs": [
        {
          "internalType": "uint256",
          "name": "",
          "type": "uint256"
        }
      ],
      "name": "requests",
      "outputs": [
        {
          "internalType": "string",
          "name": "reason",
          "type": "string"
        },
        {
          "internalType": "address payable",
          "name": "recepient",
          "type": "address"
        },
        {
          "internalType": "string",
          "name": "requestor",
          "type": "string"
        },
        {
          "internalType": "uint256",
          "name": "amount",
          "type": "uint256"
        },
        {
          "internalType": "uint256",
          "name": "reqId",
          "type": "uint256"
        },
        {
          "internalType": "string",
          "name": "reqLink",
          "type": "string"
        },
        {
          "internalType": "string",
          "name": "projTitle",
          "type": "string"
        },
        {
          "internalType": "uint256",
          "name": "projId",
          "type": "uint256"
        },
        {
          "internalType": "string",
          "name": "phno",
          "type": "string"
        }
      ],
      "stateMutability": "view",
      "type": "function"
    },
    {
      "inputs": [
        {
          "internalType": "address",
          "name": "",
          "type": "address"
        }
      ],
      "name": "usernames",
      "outputs": [
        {
          "internalType": "string",
          "name": "",
          "type": "string"
        }
      ],
      "stateMutability": "view",
      "type": "function"
    },
    {
      "inputs": [
        {
          "internalType": "string",
          "name": "",
          "type": "string"
        }
      ],
      "name": "users",
      "outputs": [
        {
          "internalType": "address",
          "name": "wallet",
          "type": "address"
        },
        {
          "internalType": "string",
          "name": "name",
          "type": "string"
        },
        {
          "internalType": "string",
          "name": "username",
          "type": "string"
        },
        {
          "internalType": "string",
          "name": "usertype",
          "type": "string"
        }
      ],
      "stateMutability": "view",
      "type": "function"
    },
    {
      "inputs": [
        {
          "internalType": "uint256",
          "name": "",
          "type": "uint256"
        }
      ],
      "name": "voteRequestDetails",
      "outputs": [
        {
          "internalType": "string",
          "name": "reason",
          "type": "string"
        },
        {
          "internalType": "string",
          "name": "recepientLink",
          "type": "string"
        },
        {
          "internalType": "uint256",
          "name": "amount",
          "type": "uint256"
        },
        {
          "internalType": "string",
          "name": "projTitle",
          "type": "string"
        },
        {
          "internalType": "bool",
          "name": "verified",
          "type": "bool"
        },
        {
          "internalType": "bool",
          "name": "approved",
          "type": "bool"
        }
      ],
      "stateMutability": "view",
      "type": "function"
    },
    {
      "inputs": [
        {
          "internalType": "uint256",
          "name": "",
          "type": "uint256"
        }
      ],
      "name": "voteRequests",
      "outputs": [
        {
          "internalType": "string",
          "name": "reason",
          "type": "string"
        },
        {
          "internalType": "address payable",
          "name": "recepient",
          "type": "address"
        },
        {
          "internalType": "string",
          "name": "recepientLink",
          "type": "string"
        },
        {
          "internalType": "uint256",
          "name": "amount",
          "type": "uint256"
        },
        {
          "internalType": "string",
          "name": "projTitle",
          "type": "string"
        },
        {
          "internalType": "uint256",
          "name": "projId",
          "type": "uint256"
        },
        {
          "internalType": "uint256",
          "name": "noOfVoters",
          "type": "uint256"
        }
      ],
      "stateMutability": "view",
      "type": "function"
    }
  ],
  "bytecode": "0x608060405234801561001057600080fd5b50615eee80620000216000396000f3fe6080604052600436106101665760003560e01c80637ccf3887116100d1578063d7d1bbdb1161008a578063e411122911610064578063e411122914610559578063ee91877c14610599578063f97cbe23146105d6578063fdbb33c21461060157610166565b8063d7d1bbdb146104dc578063d817b07514610505578063dcc601281461052e57610166565b80637ccf3887146103c457806381d12c58146103ef5780638813ce1214610434578063b78c89ff1461045f578063bb32661314610488578063d1d396db146104b157610166565b80635114cb52116101235780635114cb52146102705780635e94cdae14610299578063689e1c03146102db5780636bd062041461031b5780636f77926b1461034457806370ef09bd1461038157610166565b80630565e94a1461016b5780632d7788db1461018757806330f6a57d146101b05780633ba30237146101f1578063472159af1461021c5780634cd08d0314610247575b600080fd5b61018560048036038101906101809190614b8d565b610646565b005b34801561019357600080fd5b506101ae60048036038101906101a99190614b8d565b6108cd565b005b3480156101bc57600080fd5b506101d760048036038101906101d29190614b8d565b610b26565b6040516101e89594939291906154fc565b60405180910390f35b3480156101fd57600080fd5b50610206610c8c565b6040516102139190615384565b60405180910390f35b34801561022857600080fd5b50610231610ee1565b60405161023e9190615708565b60405180910390f35b34801561025357600080fd5b5061026e600480360381019061026991906149a0565b610ee7565b005b34801561027c57600080fd5b5061029760048036038101906102929190614b8d565b611172565b005b3480156102a557600080fd5b506102c060048036038101906102bb9190614b8d565b611465565b6040516102d29695949392919061555d565b60405180910390f35b3480156102e757600080fd5b5061030260048036038101906102fd91906148f3565b611663565b60405161031294939291906152e6565b60405180910390f35b34801561032757600080fd5b50610342600480360381019061033d9190614934565b611861565b005b34801561035057600080fd5b5061036b600480360381019061036691906148ca565b611afe565b60405161037891906156e6565b60405180910390f35b34801561038d57600080fd5b506103a860048036038101906103a39190614b8d565b611d7f565b6040516103bb97969594939291906153c8565b60405180910390f35b3480156103d057600080fd5b506103d9611f79565b6040516103e69190615708565b60405180910390f35b3480156103fb57600080fd5b5061041660048036038101906104119190614b8d565b611f7f565b60405161042b9998979695949392919061544c565b60405180910390f35b34801561044057600080fd5b506104496122a5565b6040516104569190615362565b60405180910390f35b34801561046b57600080fd5b5061048660048036038101906104819190614a37565b612653565b005b34801561049457600080fd5b506104af60048036038101906104aa9190614afa565b6129e6565b005b3480156104bd57600080fd5b506104c6612e4a565b6040516104d39190615362565b60405180910390f35b3480156104e857600080fd5b5061050360048036038101906104fe9190614b8d565b6131f8565b005b34801561051157600080fd5b5061052c60048036038101906105279190614b8d565b613949565b005b34801561053a57600080fd5b50610543613bcc565b6040516105509190615340565b60405180910390f35b34801561056557600080fd5b50610580600480360381019061057b9190614b8d565b613d63565b60405161059094939291906155d3565b60405180910390f35b3480156105a557600080fd5b506105c060048036038101906105bb91906148ca565b613eb3565b6040516105cd91906153a6565b60405180910390f35b3480156105e257600080fd5b506105eb613f53565b6040516105f891906153a6565b60405180910390f35b34801561060d57600080fd5b5061062860048036038101906106239190614b8d565b613f90565b60405161063d9998979695949392919061544c565b60405180910390f35b604051602001610655906152d1565b6040516020818303038152906040528051906020012060016000803373ffffffffffffffffffffffffffffffffffffffff1673ffffffffffffffffffffffffffffffffffffffff1681526020019081526020016000206040516106b89190615290565b90815260200160405180910390206003016040516020016106d99190615290565b60405160208183030381529060405280519060200120146106f957600080fd5b60036000828152602001908152602001600020600301339080600181540180825580915050600190039060005260206000200160009091909190916101000a81548173ffffffffffffffffffffffffffffffffffffffff021916908373ffffffffffffffffffffffffffffffffffffffff160217905550346003600083815260200190815260200160002060060160003373ffffffffffffffffffffffffffffffffffffffff1673ffffffffffffffffffffffffffffffffffffffff16815260200190815260200160002060008282546107d39190615871565b92505081905550346003600083815260200190815260200160002060040160008282546108009190615871565b925050819055503460058281548110610842577f4e487b7100000000000000000000000000000000000000000000000000000000600052603260045260246000fd5b906000526020600020906004020160020160008282546108629190615871565b92505081905550600581815481106108a3577f4e487b7100000000000000000000000000000000000000000000000000000000600052603260045260246000fd5b906000526020600020906004020160030160008154809291906108c590615bf6565b919050555050565b6040516020016108dc906152a7565b6040516020818303038152906040528051906020012060016000803373ffffffffffffffffffffffffffffffffffffffff1673ffffffffffffffffffffffffffffffffffffffff16815260200190815260200160002060405161093f9190615290565b90815260200160405180910390206003016040516020016109609190615290565b604051602081830303815290604052805190602001201461098057600080fd5b6007600682815481106109bc577f4e487b7100000000000000000000000000000000000000000000000000000000600052603260045260246000fd5b906000526020600020906009020190806001815401808255809150506001900390600052602060002090600902016000909190919091506000820181600001908054610a0790615b93565b610a12929190614573565b506001820160009054906101000a900473ffffffffffffffffffffffffffffffffffffffff168160010160006101000a81548173ffffffffffffffffffffffffffffffffffffffff021916908373ffffffffffffffffffffffffffffffffffffffff1602179055506002820181600201908054610a8e90615b93565b610a99929190614573565b5060038201548160030155600482015481600401556005820181600501908054610ac290615b93565b610acd929190614573565b506006820181600601908054610ae290615b93565b610aed929190614573565b50600782015481600701556008820181600801908054610b0c90615b93565b610b17929190614573565b505050610b23816142b6565b50565b6003602052806000526040600020600091509050806000018054610b4990615b93565b80601f0160208091040260200160405190810160405280929190818152602001828054610b7590615b93565b8015610bc25780601f10610b9757610100808354040283529160200191610bc2565b820191906000526020600020905b815481529060010190602001808311610ba557829003601f168201915b505050505090806001018054610bd790615b93565b80601f0160208091040260200160405190810160405280929190818152602001828054610c0390615b93565b8015610c505780601f10610c2557610100808354040283529160200191610c50565b820191906000526020600020905b815481529060010190602001808311610c3357829003601f168201915b5050505050908060020160009054906101000a900473ffffffffffffffffffffffffffffffffffffffff16908060040154908060050154905085565b6060600a805480602002602001604051908101604052809291908181526020016000905b82821015610ed857838290600052602060002090600502016040518060c0016040529081600082018054610ce390615b93565b80601f0160208091040260200160405190810160405280929190818152602001828054610d0f90615b93565b8015610d5c5780601f10610d3157610100808354040283529160200191610d5c565b820191906000526020600020905b815481529060010190602001808311610d3f57829003601f168201915b50505050508152602001600182018054610d7590615b93565b80601f0160208091040260200160405190810160405280929190818152602001828054610da190615b93565b8015610dee5780601f10610dc357610100808354040283529160200191610dee565b820191906000526020600020905b815481529060010190602001808311610dd157829003601f168201915b5050505050815260200160028201548152602001600382018054610e1190615b93565b80601f0160208091040260200160405190810160405280929190818152602001828054610e3d90615b93565b8015610e8a5780601f10610e5f57610100808354040283529160200191610e8a565b820191906000526020600020905b815481529060010190602001808311610e6d57829003601f168201915b505050505081526020016004820160009054906101000a900460ff161515151581526020016004820160019054906101000a900460ff16151515158152505081526020019060010190610cb0565b50505050905090565b60045481565b60008060003373ffffffffffffffffffffffffffffffffffffffff1673ffffffffffffffffffffffffffffffffffffffff1681526020019081526020016000208054610f3290615b93565b905014610f74576040517f08c379a0000000000000000000000000000000000000000000000000000000008152600401610f6b90615686565b60405180910390fd5b600073ffffffffffffffffffffffffffffffffffffffff16600184604051610f9c9190615279565b908152602001604051809103902060000160009054906101000a900473ffffffffffffffffffffffffffffffffffffffff1673ffffffffffffffffffffffffffffffffffffffff1614611024576040517f08c379a000000000000000000000000000000000000000000000000000000000815260040161101b90615666565b60405180910390fd5b60405180608001604052803373ffffffffffffffffffffffffffffffffffffffff1681526020018381526020018481526020018281525060018460405161106b9190615279565b908152602001604051809103902060008201518160000160006101000a81548173ffffffffffffffffffffffffffffffffffffffff021916908373ffffffffffffffffffffffffffffffffffffffff16021790555060208201518160010190805190602001906110dc929190614600565b5060408201518160020190805190602001906110f9929190614600565b506060820151816003019080519060200190611116929190614600565b50905050826000803373ffffffffffffffffffffffffffffffffffffffff1673ffffffffffffffffffffffffffffffffffffffff168152602001908152602001600020908051906020019061116c929190614600565b50505050565b604051602001611181906152a7565b6040516020818303038152906040528051906020012060016000803373ffffffffffffffffffffffffffffffffffffffff1673ffffffffffffffffffffffffffffffffffffffff1681526020019081526020016000206040516111e49190615290565b90815260200160405180910390206003016040516020016112059190615290565b604051602081830303815290604052805190602001201461122557600080fd5b60006008600083815260200190815260200160002090506001600a8381548110611278577f4e487b7100000000000000000000000000000000000000000000000000000000600052603260045260246000fd5b906000526020600020906005020160040160006101000a81548160ff02191690831515021790555060036000826005015481526020019081526020016000206004015481600301541115611301576040517f08c379a00000000000000000000000000000000000000000000000000000000081526004016112f890615646565b60405180910390fd5b600260036000836005015481526020019081526020016000206003018054905061132b91906158c7565b816006015411611370576040517f08c379a0000000000000000000000000000000000000000000000000000000008152600401611367906156a6565b60405180910390fd5b60006012600a611380919061594b565b90506001600a84815481106113be577f4e487b7100000000000000000000000000000000000000000000000000000000600052603260045260246000fd5b906000526020600020906005020160040160016101000a81548160ff0219169083151502179055508160010160009054906101000a900473ffffffffffffffffffffffffffffffffffffffff1673ffffffffffffffffffffffffffffffffffffffff166108fc8284600301546114349190615a69565b9081150290604051600060405180830381858888f1935050505015801561145f573d6000803e3d6000fd5b50505050565b600a818154811061147557600080fd5b906000526020600020906005020160009150905080600001805461149890615b93565b80601f01602080910402602001604051908101604052809291908181526020018280546114c490615b93565b80156115115780601f106114e657610100808354040283529160200191611511565b820191906000526020600020905b8154815290600101906020018083116114f457829003601f168201915b50505050509080600101805461152690615b93565b80601f016020809104026020016040519081016040528092919081815260200182805461155290615b93565b801561159f5780601f106115745761010080835404028352916020019161159f565b820191906000526020600020905b81548152906001019060200180831161158257829003601f168201915b5050505050908060020154908060030180546115ba90615b93565b80601f01602080910402602001604051908101604052809291908181526020018280546115e690615b93565b80156116335780601f1061160857610100808354040283529160200191611633565b820191906000526020600020905b81548152906001019060200180831161161657829003601f168201915b5050505050908060040160009054906101000a900460ff16908060040160019054906101000a900460ff16905086565b6001818051602081018201805184825260208301602085012081835280955050505050506000915090508060000160009054906101000a900473ffffffffffffffffffffffffffffffffffffffff16908060010180546116c290615b93565b80601f01602080910402602001604051908101604052809291908181526020018280546116ee90615b93565b801561173b5780601f106117105761010080835404028352916020019161173b565b820191906000526020600020905b81548152906001019060200180831161171e57829003601f168201915b50505050509080600201805461175090615b93565b80601f016020809104026020016040519081016040528092919081815260200182805461177c90615b93565b80156117c95780601f1061179e576101008083540402835291602001916117c9565b820191906000526020600020905b8154815290600101906020018083116117ac57829003601f168201915b5050505050908060030180546117de90615b93565b80601f016020809104026020016040519081016040528092919081815260200182805461180a90615b93565b80156118575780601f1061182c57610100808354040283529160200191611857565b820191906000526020600020905b81548152906001019060200180831161183a57829003601f168201915b5050505050905084565b604051602001611870906152bc565b6040516020818303038152906040528051906020012060016000803373ffffffffffffffffffffffffffffffffffffffff1673ffffffffffffffffffffffffffffffffffffffff1681526020019081526020016000206040516118d39190615290565b90815260200160405180910390206003016040516020016118f49190615290565b604051602081830303815290604052805190602001201461191457600080fd5b600060036000600454815260200190815260200160002090506004600081548092919061194090615bf6565b91905055508181600001908051906020019061195d929190614600565b5082816001019080519060200190611976929190614600565b50338160020160006101000a81548173ffffffffffffffffffffffffffffffffffffffff021916908373ffffffffffffffffffffffffffffffffffffffff160217905550600067ffffffffffffffff8111156119fb577f4e487b7100000000000000000000000000000000000000000000000000000000600052604160045260246000fd5b604051908082528060200260200182016040528015611a295781602001602082028036833780820191505090505b50816003019080519060200190611a41929190614686565b506000816004018190555043816005018190555060006040518060800160405280848152602001858152602001600081526020016000815250905060058190806001815401808255809150506001900390600052602060002090600402016000909190919091506000820151816000019080519060200190611ac4929190614600565b506020820151816001019080519060200190611ae1929190614600565b506040820151816002015560608201518160030155505050505050565b611b06614710565b60016000808473ffffffffffffffffffffffffffffffffffffffff1673ffffffffffffffffffffffffffffffffffffffff168152602001908152602001600020604051611b539190615290565b90815260200160405180910390206040518060800160405290816000820160009054906101000a900473ffffffffffffffffffffffffffffffffffffffff1673ffffffffffffffffffffffffffffffffffffffff1673ffffffffffffffffffffffffffffffffffffffff168152602001600182018054611bd290615b93565b80601f0160208091040260200160405190810160405280929190818152602001828054611bfe90615b93565b8015611c4b5780601f10611c2057610100808354040283529160200191611c4b565b820191906000526020600020905b815481529060010190602001808311611c2e57829003601f168201915b50505050508152602001600282018054611c6490615b93565b80601f0160208091040260200160405190810160405280929190818152602001828054611c9090615b93565b8015611cdd5780601f10611cb257610100808354040283529160200191611cdd565b820191906000526020600020905b815481529060010190602001808311611cc057829003601f168201915b50505050508152602001600382018054611cf690615b93565b80601f0160208091040260200160405190810160405280929190818152602001828054611d2290615b93565b8015611d6f5780601f10611d4457610100808354040283529160200191611d6f565b820191906000526020600020905b815481529060010190602001808311611d5257829003601f168201915b5050505050815250509050919050565b6008602052806000526040600020600091509050806000018054611da290615b93565b80601f0160208091040260200160405190810160405280929190818152602001828054611dce90615b93565b8015611e1b5780601f10611df057610100808354040283529160200191611e1b565b820191906000526020600020905b815481529060010190602001808311611dfe57829003601f168201915b5050505050908060010160009054906101000a900473ffffffffffffffffffffffffffffffffffffffff1690806002018054611e5690615b93565b80601f0160208091040260200160405190810160405280929190818152602001828054611e8290615b93565b8015611ecf5780601f10611ea457610100808354040283529160200191611ecf565b820191906000526020600020905b815481529060010190602001808311611eb257829003601f168201915b505050505090806003015490806004018054611eea90615b93565b80601f0160208091040260200160405190810160405280929190818152602001828054611f1690615b93565b8015611f635780601f10611f3857610100808354040283529160200191611f63565b820191906000526020600020905b815481529060010190602001808311611f4657829003601f168201915b5050505050908060050154908060060154905087565b60095481565b60068181548110611f8f57600080fd5b9060005260206000209060090201600091509050806000018054611fb290615b93565b80601f0160208091040260200160405190810160405280929190818152602001828054611fde90615b93565b801561202b5780601f106120005761010080835404028352916020019161202b565b820191906000526020600020905b81548152906001019060200180831161200e57829003601f168201915b5050505050908060010160009054906101000a900473ffffffffffffffffffffffffffffffffffffffff169080600201805461206690615b93565b80601f016020809104026020016040519081016040528092919081815260200182805461209290615b93565b80156120df5780601f106120b4576101008083540402835291602001916120df565b820191906000526020600020905b8154815290600101906020018083116120c257829003601f168201915b50505050509080600301549080600401549080600501805461210090615b93565b80601f016020809104026020016040519081016040528092919081815260200182805461212c90615b93565b80156121795780601f1061214e57610100808354040283529160200191612179565b820191906000526020600020905b81548152906001019060200180831161215c57829003601f168201915b50505050509080600601805461218e90615b93565b80601f01602080910402602001604051908101604052809291908181526020018280546121ba90615b93565b80156122075780601f106121dc57610100808354040283529160200191612207565b820191906000526020600020905b8154815290600101906020018083116121ea57829003601f168201915b50505050509080600701549080600801805461222290615b93565b80601f016020809104026020016040519081016040528092919081815260200182805461224e90615b93565b801561229b5780601f106122705761010080835404028352916020019161229b565b820191906000526020600020905b81548152906001019060200180831161227e57829003601f168201915b5050505050905089565b60606006805480602002602001604051908101604052809291908181526020016000905b8282101561264a5783829060005260206000209060090201604051806101200160405290816000820180546122fd90615b93565b80601f016020809104026020016040519081016040528092919081815260200182805461232990615b93565b80156123765780601f1061234b57610100808354040283529160200191612376565b820191906000526020600020905b81548152906001019060200180831161235957829003601f168201915b505050505081526020016001820160009054906101000a900473ffffffffffffffffffffffffffffffffffffffff1673ffffffffffffffffffffffffffffffffffffffff1673ffffffffffffffffffffffffffffffffffffffff1681526020016002820180546123e590615b93565b80601f016020809104026020016040519081016040528092919081815260200182805461241190615b93565b801561245e5780601f106124335761010080835404028352916020019161245e565b820191906000526020600020905b81548152906001019060200180831161244157829003601f168201915b50505050508152602001600382015481526020016004820154815260200160058201805461248b90615b93565b80601f01602080910402602001604051908101604052809291908181526020018280546124b790615b93565b80156125045780601f106124d957610100808354040283529160200191612504565b820191906000526020600020905b8154815290600101906020018083116124e757829003601f168201915b5050505050815260200160068201805461251d90615b93565b80601f016020809104026020016040519081016040528092919081815260200182805461254990615b93565b80156125965780601f1061256b57610100808354040283529160200191612596565b820191906000526020600020905b81548152906001019060200180831161257957829003601f168201915b50505050508152602001600782015481526020016008820180546125b990615b93565b80601f01602080910402602001604051908101604052809291908181526020018280546125e590615b93565b80156126325780601f1061260757610100808354040283529160200191612632565b820191906000526020600020905b81548152906001019060200180831161261557829003601f168201915b505050505081525050815260200190600101906122c9565b50505050905090565b60008060003373ffffffffffffffffffffffffffffffffffffffff1673ffffffffffffffffffffffffffffffffffffffff168152602001908152602001600020805461269e90615b93565b9050146126e0576040517f08c379a00000000000000000000000000000000000000000000000000000000081526004016126d790615686565b60405180910390fd5b600073ffffffffffffffffffffffffffffffffffffffff166001856040516127089190615279565b908152602001604051809103902060000160009054906101000a900473ffffffffffffffffffffffffffffffffffffffff1673ffffffffffffffffffffffffffffffffffffffff1614612790576040517f08c379a000000000000000000000000000000000000000000000000000000000815260040161278790615666565b60405180910390fd5b60405180608001604052803373ffffffffffffffffffffffffffffffffffffffff168152602001848152602001858152602001838152506001856040516127d79190615279565b908152602001604051809103902060008201518160000160006101000a81548173ffffffffffffffffffffffffffffffffffffffff021916908373ffffffffffffffffffffffffffffffffffffffff1602179055506020820151816001019080519060200190612848929190614600565b506040820151816002019080519060200190612865929190614600565b506060820151816003019080519060200190612882929190614600565b50905050836000803373ffffffffffffffffffffffffffffffffffffffff1673ffffffffffffffffffffffffffffffffffffffff16815260200190815260200160002090805190602001906128d8929190614600565b506040516020016128e8906152bc565b6040516020818303038152906040528051906020012060016000803373ffffffffffffffffffffffffffffffffffffffff1673ffffffffffffffffffffffffffffffffffffffff16815260200190815260200160002060405161294b9190615290565b908152602001604051809103902060030160405160200161296c9190615290565b604051602081830303815290604052805190602001201461298c57600080fd5b80600260003373ffffffffffffffffffffffffffffffffffffffff1673ffffffffffffffffffffffffffffffffffffffff16815260200190815260200160002090805190602001906129df929190614600565b5050505050565b6040516020016129f5906152bc565b6040516020818303038152906040528051906020012060016000803373ffffffffffffffffffffffffffffffffffffffff1673ffffffffffffffffffffffffffffffffffffffff168152602001908152602001600020604051612a589190615290565b9081526020016040518091039020600301604051602001612a799190615290565b6040516020818303038152906040528051906020012014612a9957600080fd5b60006040518061012001604052808681526020013373ffffffffffffffffffffffffffffffffffffffff1681526020016000803373ffffffffffffffffffffffffffffffffffffffff1673ffffffffffffffffffffffffffffffffffffffff1681526020019081526020016000208054612b1290615b93565b80601f0160208091040260200160405190810160405280929190818152602001828054612b3e90615b93565b8015612b8b5780601f10612b6057610100808354040283529160200191612b8b565b820191906000526020600020905b815481529060010190602001808311612b6e57829003601f168201915b50505050508152602001858152602001438152602001600260003373ffffffffffffffffffffffffffffffffffffffff1673ffffffffffffffffffffffffffffffffffffffff1681526020019081526020016000208054612beb90615b93565b80601f0160208091040260200160405190810160405280929190818152602001828054612c1790615b93565b8015612c645780601f10612c3957610100808354040283529160200191612c64565b820191906000526020600020905b815481529060010190602001808311612c4757829003601f168201915b50505050508152602001600360008681526020019081526020016000206000018054612c8f90615b93565b80601f0160208091040260200160405190810160405280929190818152602001828054612cbb90615b93565b8015612d085780601f10612cdd57610100808354040283529160200191612d08565b820191906000526020600020905b815481529060010190602001808311612ceb57829003601f168201915b5050505050815260200184815260200183815250905060068190806001815401808255809150506001900390600052602060002090600902016000909190919091506000820151816000019080519060200190612d66929190614600565b5060208201518160010160006101000a81548173ffffffffffffffffffffffffffffffffffffffff021916908373ffffffffffffffffffffffffffffffffffffffff1602179055506040820151816002019080519060200190612dca929190614600565b50606082015181600301556080820151816004015560a0820151816005019080519060200190612dfb929190614600565b5060c0820151816006019080519060200190612e18929190614600565b5060e08201518160070155610100820151816008019080519060200190612e40929190614600565b5050505050505050565b60606007805480602002602001604051908101604052809291908181526020016000905b828210156131ef578382906000526020600020906009020160405180610120016040529081600082018054612ea290615b93565b80601f0160208091040260200160405190810160405280929190818152602001828054612ece90615b93565b8015612f1b5780601f10612ef057610100808354040283529160200191612f1b565b820191906000526020600020905b815481529060010190602001808311612efe57829003601f168201915b505050505081526020016001820160009054906101000a900473ffffffffffffffffffffffffffffffffffffffff1673ffffffffffffffffffffffffffffffffffffffff1673ffffffffffffffffffffffffffffffffffffffff168152602001600282018054612f8a90615b93565b80601f0160208091040260200160405190810160405280929190818152602001828054612fb690615b93565b80156130035780601f10612fd857610100808354040283529160200191613003565b820191906000526020600020905b815481529060010190602001808311612fe657829003601f168201915b50505050508152602001600382015481526020016004820154815260200160058201805461303090615b93565b80601f016020809104026020016040519081016040528092919081815260200182805461305c90615b93565b80156130a95780601f1061307e576101008083540402835291602001916130a9565b820191906000526020600020905b81548152906001019060200180831161308c57829003601f168201915b505050505081526020016006820180546130c290615b93565b80601f01602080910402602001604051908101604052809291908181526020018280546130ee90615b93565b801561313b5780601f106131105761010080835404028352916020019161313b565b820191906000526020600020905b81548152906001019060200180831161311e57829003601f168201915b505050505081526020016007820154815260200160088201805461315e90615b93565b80601f016020809104026020016040519081016040528092919081815260200182805461318a90615b93565b80156131d75780601f106131ac576101008083540402835291602001916131d7565b820191906000526020600020905b8154815290600101906020018083116131ba57829003601f168201915b50505050508152505081526020019060010190612e6e565b50505050905090565b604051602001613207906152a7565b6040516020818303038152906040528051906020012060016000803373ffffffffffffffffffffffffffffffffffffffff1673ffffffffffffffffffffffffffffffffffffffff16815260200190815260200160002060405161326a9190615290565b908152602001604051809103902060030160405160200161328b9190615290565b60405160208183030381529060405280519060200120146132ab57600080fd5b60006008600060095481526020019081526020016000209050600960008154809291906132d790615bf6565b919050555060068281548110613316577f4e487b7100000000000000000000000000000000000000000000000000000000600052603260045260246000fd5b90600052602060002090600902016000018160000190805461333790615b93565b61334292919061474e565b506006828154811061337d577f4e487b7100000000000000000000000000000000000000000000000000000000600052603260045260246000fd5b906000526020600020906009020160010160009054906101000a900473ffffffffffffffffffffffffffffffffffffffff168160010160006101000a81548173ffffffffffffffffffffffffffffffffffffffff021916908373ffffffffffffffffffffffffffffffffffffffff1602179055506006828154811061342b577f4e487b7100000000000000000000000000000000000000000000000000000000600052603260045260246000fd5b90600052602060002090600902016005018160020190805461344c90615b93565b61345792919061474e565b5060068281548110613492577f4e487b7100000000000000000000000000000000000000000000000000000000600052603260045260246000fd5b9060005260206000209060090201600301548160030181905550600682815481106134e6577f4e487b7100000000000000000000000000000000000000000000000000000000600052603260045260246000fd5b90600052602060002090600902016006018160040190805461350790615b93565b61351292919061474e565b506006828154811061354d577f4e487b7100000000000000000000000000000000000000000000000000000000600052603260045260246000fd5b90600052602060002090600902016007015481600501819055506000816006018190555060006040518060c00160405280600685815481106135b8577f4e487b7100000000000000000000000000000000000000000000000000000000600052603260045260246000fd5b906000526020600020906009020160000180546135d490615b93565b80601f016020809104026020016040519081016040528092919081815260200182805461360090615b93565b801561364d5780601f106136225761010080835404028352916020019161364d565b820191906000526020600020905b81548152906001019060200180831161363057829003601f168201915b5050505050815260200160068581548110613691577f4e487b7100000000000000000000000000000000000000000000000000000000600052603260045260246000fd5b906000526020600020906009020160050180546136ad90615b93565b80601f01602080910402602001604051908101604052809291908181526020018280546136d990615b93565b80156137265780601f106136fb57610100808354040283529160200191613726565b820191906000526020600020905b81548152906001019060200180831161370957829003601f168201915b505050505081526020016006858154811061376a577f4e487b7100000000000000000000000000000000000000000000000000000000600052603260045260246000fd5b9060005260206000209060090201600301548152602001600685815481106137bb577f4e487b7100000000000000000000000000000000000000000000000000000000600052603260045260246000fd5b906000526020600020906009020160060180546137d790615b93565b80601f016020809104026020016040519081016040528092919081815260200182805461380390615b93565b80156138505780601f1061382557610100808354040283529160200191613850565b820191906000526020600020905b81548152906001019060200180831161383357829003601f168201915b50505050508152602001600015158152602001600015158152509050600a81908060018154018082558091505060019003906000526020600020906005020160009091909190915060008201518160000190805190602001906138b4929190614600565b5060208201518160010190805190602001906138d1929190614600565b506040820151816002015560608201518160030190805190602001906138f8929190614600565b5060808201518160040160006101000a81548160ff02191690831515021790555060a08201518160040160016101000a81548160ff0219169083151502179055505050613944836142b6565b505050565b604051602001613958906152d1565b6040516020818303038152906040528051906020012060016000803373ffffffffffffffffffffffffffffffffffffffff1673ffffffffffffffffffffffffffffffffffffffff1681526020019081526020016000206040516139bb9190615290565b90815260200160405180910390206003016040516020016139dc9190615290565b60405160208183030381529060405280519060200120146139fc57600080fd5b6000600360006008600085815260200190815260200160002060050154815260200190815260200160002060060160003373ffffffffffffffffffffffffffffffffffffffff1673ffffffffffffffffffffffffffffffffffffffff1681526020019081526020016000205411613aa8576040517f08c379a0000000000000000000000000000000000000000000000000000000008152600401613a9f906156c6565b60405180910390fd5b6000600860008381526020019081526020016000209050600015158160070160003373ffffffffffffffffffffffffffffffffffffffff1673ffffffffffffffffffffffffffffffffffffffff16815260200190815260200160002060009054906101000a900460ff16151514613b54576040517f08c379a0000000000000000000000000000000000000000000000000000000008152600401613b4b90615626565b60405180910390fd5b60018160070160003373ffffffffffffffffffffffffffffffffffffffff1673ffffffffffffffffffffffffffffffffffffffff16815260200190815260200160002060006101000a81548160ff021916908315150217905550806006016000815480929190613bc390615bf6565b91905055505050565b60606005805480602002602001604051908101604052809291908181526020016000905b82821015613d5a5783829060005260206000209060040201604051806080016040529081600082018054613c2390615b93565b80601f0160208091040260200160405190810160405280929190818152602001828054613c4f90615b93565b8015613c9c5780601f10613c7157610100808354040283529160200191613c9c565b820191906000526020600020905b815481529060010190602001808311613c7f57829003601f168201915b50505050508152602001600182018054613cb590615b93565b80601f0160208091040260200160405190810160405280929190818152602001828054613ce190615b93565b8015613d2e5780601f10613d0357610100808354040283529160200191613d2e565b820191906000526020600020905b815481529060010190602001808311613d1157829003601f168201915b505050505081526020016002820154815260200160038201548152505081526020019060010190613bf0565b50505050905090565b60058181548110613d7357600080fd5b9060005260206000209060040201600091509050806000018054613d9690615b93565b80601f0160208091040260200160405190810160405280929190818152602001828054613dc290615b93565b8015613e0f5780601f10613de457610100808354040283529160200191613e0f565b820191906000526020600020905b815481529060010190602001808311613df257829003601f168201915b505050505090806001018054613e2490615b93565b80601f0160208091040260200160405190810160405280929190818152602001828054613e5090615b93565b8015613e9d5780601f10613e7257610100808354040283529160200191613e9d565b820191906000526020600020905b815481529060010190602001808311613e8057829003601f168201915b5050505050908060020154908060030154905084565b60006020528060005260406000206000915090508054613ed290615b93565b80601f0160208091040260200160405190810160405280929190818152602001828054613efe90615b93565b8015613f4b5780601f10613f2057610100808354040283529160200191613f4b565b820191906000526020600020905b815481529060010190602001808311613f2e57829003601f168201915b505050505081565b60606040518060400160405280600481526020017f4155435a00000000000000000000000000000000000000000000000000000000815250905090565b60078181548110613fa057600080fd5b9060005260206000209060090201600091509050806000018054613fc390615b93565b80601f0160208091040260200160405190810160405280929190818152602001828054613fef90615b93565b801561403c5780601f106140115761010080835404028352916020019161403c565b820191906000526020600020905b81548152906001019060200180831161401f57829003601f168201915b5050505050908060010160009054906101000a900473ffffffffffffffffffffffffffffffffffffffff169080600201805461407790615b93565b80601f01602080910402602001604051908101604052809291908181526020018280546140a390615b93565b80156140f05780601f106140c5576101008083540402835291602001916140f0565b820191906000526020600020905b8154815290600101906020018083116140d357829003601f168201915b50505050509080600301549080600401549080600501805461411190615b93565b80601f016020809104026020016040519081016040528092919081815260200182805461413d90615b93565b801561418a5780601f1061415f5761010080835404028352916020019161418a565b820191906000526020600020905b81548152906001019060200180831161416d57829003601f168201915b50505050509080600601805461419f90615b93565b80601f01602080910402602001604051908101604052809291908181526020018280546141cb90615b93565b80156142185780601f106141ed57610100808354040283529160200191614218565b820191906000526020600020905b8154815290600101906020018083116141fb57829003601f168201915b50505050509080600701549080600801805461423390615b93565b80601f016020809104026020016040519081016040528092919081815260200182805461425f90615b93565b80156142ac5780601f10614281576101008083540402835291602001916142ac565b820191906000526020600020905b81548152906001019060200180831161428f57829003601f168201915b5050505050905089565b60068054905081106142c757600080fd5b600660016006805490506142db9190615ac3565b81548110614312577f4e487b7100000000000000000000000000000000000000000000000000000000600052603260045260246000fd5b90600052602060002090600902016006828154811061435a577f4e487b7100000000000000000000000000000000000000000000000000000000600052603260045260246000fd5b9060005260206000209060090201600082018160000190805461437c90615b93565b614387929190614573565b506001820160009054906101000a900473ffffffffffffffffffffffffffffffffffffffff168160010160006101000a81548173ffffffffffffffffffffffffffffffffffffffff021916908373ffffffffffffffffffffffffffffffffffffffff160217905550600282018160020190805461440390615b93565b61440e929190614573565b506003820154816003015560048201548160040155600582018160050190805461443790615b93565b614442929190614573565b50600682018160060190805461445790615b93565b614462929190614573565b5060078201548160070155600882018160080190805461448190615b93565b61448c929190614573565b5090505060068054806144c8577f4e487b7100000000000000000000000000000000000000000000000000000000600052603160045260246000fd5b6001900381819060005260206000209060090201600080820160006144ed91906147db565b6001820160006101000a81549073ffffffffffffffffffffffffffffffffffffffff021916905560028201600061452491906147db565b6003820160009055600482016000905560058201600061454491906147db565b60068201600061455491906147db565b600782016000905560088201600061456c91906147db565b5050905550565b82805461457f90615b93565b90600052602060002090601f0160209004810192826145a157600085556145ef565b82601f106145b257805485556145ef565b828001600101855582156145ef57600052602060002091601f016020900482015b828111156145ee5782548255916001019190600101906145d3565b5b5090506145fc919061481b565b5090565b82805461460c90615b93565b90600052602060002090601f01602090048101928261462e5760008555614675565b82601f1061464757805160ff1916838001178555614675565b82800160010185558215614675579182015b82811115614674578251825591602001919060010190614659565b5b509050614682919061481b565b5090565b8280548282559060005260206000209081019282156146ff579160200282015b828111156146fe5782518260006101000a81548173ffffffffffffffffffffffffffffffffffffffff021916908373ffffffffffffffffffffffffffffffffffffffff160217905550916020019190600101906146a6565b5b50905061470c919061481b565b5090565b6040518060800160405280600073ffffffffffffffffffffffffffffffffffffffff1681526020016060815260200160608152602001606081525090565b82805461475a90615b93565b90600052602060002090601f01602090048101928261477c57600085556147ca565b82601f1061478d57805485556147ca565b828001600101855582156147ca57600052602060002091601f016020900482015b828111156147c95782548255916001019190600101906147ae565b5b5090506147d7919061481b565b5090565b5080546147e790615b93565b6000825580601f106147f95750614818565b601f016020900490600052602060002090810190614817919061481b565b5b50565b5b8082111561483457600081600090555060010161481c565b5090565b600061484b61484684615748565b615723565b90508281526020810184848401111561486357600080fd5b61486e848285615b51565b509392505050565b60008135905061488581615e8a565b92915050565b600082601f83011261489c57600080fd5b81356148ac848260208601614838565b91505092915050565b6000813590506148c481615ea1565b92915050565b6000602082840312156148dc57600080fd5b60006148ea84828501614876565b91505092915050565b60006020828403121561490557600080fd5b600082013567ffffffffffffffff81111561491f57600080fd5b61492b8482850161488b565b91505092915050565b6000806040838503121561494757600080fd5b600083013567ffffffffffffffff81111561496157600080fd5b61496d8582860161488b565b925050602083013567ffffffffffffffff81111561498a57600080fd5b6149968582860161488b565b9150509250929050565b6000806000606084860312156149b557600080fd5b600084013567ffffffffffffffff8111156149cf57600080fd5b6149db8682870161488b565b935050602084013567ffffffffffffffff8111156149f857600080fd5b614a048682870161488b565b925050604084013567ffffffffffffffff811115614a2157600080fd5b614a2d8682870161488b565b9150509250925092565b60008060008060808587031215614a4d57600080fd5b600085013567ffffffffffffffff811115614a6757600080fd5b614a738782880161488b565b945050602085013567ffffffffffffffff811115614a9057600080fd5b614a9c8782880161488b565b935050604085013567ffffffffffffffff811115614ab957600080fd5b614ac58782880161488b565b925050606085013567ffffffffffffffff811115614ae257600080fd5b614aee8782880161488b565b91505092959194509250565b60008060008060808587031215614b1057600080fd5b600085013567ffffffffffffffff811115614b2a57600080fd5b614b368782880161488b565b9450506020614b47878288016148b5565b9350506040614b58878288016148b5565b925050606085013567ffffffffffffffff811115614b7557600080fd5b614b818782880161488b565b91505092959194509250565b600060208284031215614b9f57600080fd5b6000614bad848285016148b5565b91505092915050565b6000614bc28383615008565b905092915050565b6000614bd68383615072565b905092915050565b6000614bea83836151c4565b905092915050565b614bfb81615b09565b82525050565b614c0a81615b09565b82525050565b614c1981615af7565b82525050565b614c2881615af7565b82525050565b6000614c39826157be565b614c438185615811565b935083602082028501614c5585615779565b8060005b85811015614c915784840389528151614c728582614bb6565b9450614c7d836157ea565b925060208a01995050600181019050614c59565b50829750879550505050505092915050565b6000614cae826157c9565b614cb88185615822565b935083602082028501614cca85615789565b8060005b85811015614d065784840389528151614ce78582614bca565b9450614cf2836157f7565b925060208a01995050600181019050614cce565b50829750879550505050505092915050565b6000614d23826157d4565b614d2d8185615833565b935083602082028501614d3f85615799565b8060005b85811015614d7b5784840389528151614d5c8582614bde565b9450614d6783615804565b925060208a01995050600181019050614d43565b50829750879550505050505092915050565b614d9681615b1b565b82525050565b614da581615b1b565b82525050565b6000614db6826157df565b614dc08185615844565b9350614dd0818560208601615b60565b614dd981615cfb565b840191505092915050565b6000614def826157df565b614df98185615855565b9350614e09818560208601615b60565b614e1281615cfb565b840191505092915050565b6000614e28826157df565b614e328185615866565b9350614e42818560208601615b60565b80840191505092915050565b60008154614e5b81615b93565b614e658186615866565b94506001821660008114614e805760018114614e9157614ec4565b60ff19831686528186019350614ec4565b614e9a856157a9565b60005b83811015614ebc57815481890152600182019150602081019050614e9d565b838801955050505b50505092915050565b6000614eda600983615855565b9150614ee582615d19565b602082019050919050565b6000614efd600a83615855565b9150614f0882615d42565b602082019050919050565b6000614f20600e83615855565b9150614f2b82615d6b565b602082019050919050565b6000614f43600b83615855565b9150614f4e82615d94565b602082019050919050565b6000614f66600b83615855565b9150614f7182615dbd565b602082019050919050565b6000614f89600983615866565b9150614f9482615de6565b600982019050919050565b6000614fac601183615855565b9150614fb782615e0f565b602082019050919050565b6000614fcf600b83615866565b9150614fda82615e38565b600b82019050919050565b6000614ff2600583615866565b9150614ffd82615e61565b600582019050919050565b600060808301600083015184820360008601526150258282614dab565b9150506020830151848203602086015261503f8282614dab565b9150506040830151615054604086018261525b565b506060830151615067606086018261525b565b508091505092915050565b60006101208301600083015184820360008601526150908282614dab565b91505060208301516150a56020860182614bf2565b50604083015184820360408601526150bd8282614dab565b91505060608301516150d2606086018261525b565b5060808301516150e5608086018261525b565b5060a083015184820360a08601526150fd8282614dab565b91505060c083015184820360c08601526151178282614dab565b91505060e083015161512c60e086018261525b565b506101008301518482036101008601526151468282614dab565b9150508091505092915050565b600060808301600083015161516b6000860182614c10565b50602083015184820360208601526151838282614dab565b9150506040830151848203604086015261519d8282614dab565b915050606083015184820360608601526151b78282614dab565b9150508091505092915050565b600060c08301600083015184820360008601526151e18282614dab565b915050602083015184820360208601526151fb8282614dab565b9150506040830151615210604086018261525b565b50606083015184820360608601526152288282614dab565b915050608083015161523d6080860182614d8d565b5060a083015161525060a0860182614d8d565b508091505092915050565b61526481615b47565b82525050565b61527381615b47565b82525050565b60006152858284614e1d565b915081905092915050565b600061529c8284614e4e565b915081905092915050565b60006152b282614f7c565b9150819050919050565b60006152c782614fc2565b9150819050919050565b60006152dc82614fe5565b9150819050919050565b60006080820190506152fb6000830187614c1f565b818103602083015261530d8186614de4565b905081810360408301526153218185614de4565b905081810360608301526153358184614de4565b905095945050505050565b6000602082019050818103600083015261535a8184614c2e565b905092915050565b6000602082019050818103600083015261537c8184614ca3565b905092915050565b6000602082019050818103600083015261539e8184614d18565b905092915050565b600060208201905081810360008301526153c08184614de4565b905092915050565b600060e08201905081810360008301526153e2818a614de4565b90506153f16020830189614c01565b81810360408301526154038188614de4565b9050615412606083018761526a565b81810360808301526154248186614de4565b905061543360a083018561526a565b61544060c083018461526a565b98975050505050505050565b6000610120820190508181036000830152615467818c614de4565b9050615476602083018b614c01565b8181036040830152615488818a614de4565b9050615497606083018961526a565b6154a4608083018861526a565b81810360a08301526154b68187614de4565b905081810360c08301526154ca8186614de4565b90506154d960e083018561526a565b8181036101008301526154ec8184614de4565b90509a9950505050505050505050565b600060a08201905081810360008301526155168188614de4565b9050818103602083015261552a8187614de4565b90506155396040830186614c1f565b615546606083018561526a565b615553608083018461526a565b9695505050505050565b600060c08201905081810360008301526155778189614de4565b9050818103602083015261558b8188614de4565b905061559a604083018761526a565b81810360608301526155ac8186614de4565b90506155bb6080830185614d9c565b6155c860a0830184614d9c565b979650505050505050565b600060808201905081810360008301526155ed8187614de4565b905081810360208301526156018186614de4565b9050615610604083018561526a565b61561d606083018461526a565b95945050505050565b6000602082019050818103600083015261563f81614ecd565b9050919050565b6000602082019050818103600083015261565f81614ef0565b9050919050565b6000602082019050818103600083015261567f81614f13565b9050919050565b6000602082019050818103600083015261569f81614f36565b9050919050565b600060208201905081810360008301526156bf81614f59565b9050919050565b600060208201905081810360008301526156df81614f9f565b9050919050565b600060208201905081810360008301526157008184615153565b905092915050565b600060208201905061571d600083018461526a565b92915050565b600061572d61573e565b90506157398282615bc5565b919050565b6000604051905090565b600067ffffffffffffffff82111561576357615762615ccc565b5b61576c82615cfb565b9050602081019050919050565b6000819050602082019050919050565b6000819050602082019050919050565b6000819050602082019050919050565b60008190508160005260206000209050919050565b600081519050919050565b600081519050919050565b600081519050919050565b600081519050919050565b6000602082019050919050565b6000602082019050919050565b6000602082019050919050565b600082825260208201905092915050565b600082825260208201905092915050565b600082825260208201905092915050565b600082825260208201905092915050565b600082825260208201905092915050565b600081905092915050565b600061587c82615b47565b915061588783615b47565b9250827fffffffffffffffffffffffffffffffffffffffffffffffffffffffffffffffff038211156158bc576158bb615c3f565b5b828201905092915050565b60006158d282615b47565b91506158dd83615b47565b9250826158ed576158ec615c6e565b5b828204905092915050565b6000808291508390505b60018511156159425780860481111561591e5761591d615c3f565b5b600185161561592d5780820291505b808102905061593b85615d0c565b9450615902565b94509492505050565b600061595682615b47565b915061596183615b47565b925061598e7fffffffffffffffffffffffffffffffffffffffffffffffffffffffffffffffff8484615996565b905092915050565b6000826159a65760019050615a62565b816159b45760009050615a62565b81600181146159ca57600281146159d457615a03565b6001915050615a62565b60ff8411156159e6576159e5615c3f565b5b8360020a9150848211156159fd576159fc615c3f565b5b50615a62565b5060208310610133831016604e8410600b8410161715615a385782820a905083811115615a3357615a32615c3f565b5b615a62565b615a4584848460016158f8565b92509050818404811115615a5c57615a5b615c3f565b5b81810290505b9392505050565b6000615a7482615b47565b9150615a7f83615b47565b9250817fffffffffffffffffffffffffffffffffffffffffffffffffffffffffffffffff0483118215151615615ab857615ab7615c3f565b5b828202905092915050565b6000615ace82615b47565b9150615ad983615b47565b925082821015615aec57615aeb615c3f565b5b828203905092915050565b6000615b0282615b27565b9050919050565b6000615b1482615b27565b9050919050565b60008115159050919050565b600073ffffffffffffffffffffffffffffffffffffffff82169050919050565b6000819050919050565b82818337600083830152505050565b60005b83811015615b7e578082015181840152602081019050615b63565b83811115615b8d576000848401525b50505050565b60006002820490506001821680615bab57607f821691505b60208210811415615bbf57615bbe615c9d565b5b50919050565b615bce82615cfb565b810181811067ffffffffffffffff82111715615bed57615bec615ccc565b5b80604052505050565b6000615c0182615b47565b91507fffffffffffffffffffffffffffffffffffffffffffffffffffffffffffffffff821415615c3457615c33615c3f565b5b600182019050919050565b7f4e487b7100000000000000000000000000000000000000000000000000000000600052601160045260246000fd5b7f4e487b7100000000000000000000000000000000000000000000000000000000600052601260045260246000fd5b7f4e487b7100000000000000000000000000000000000000000000000000000000600052602260045260246000fd5b7f4e487b7100000000000000000000000000000000000000000000000000000000600052604160045260246000fd5b6000601f19601f8301169050919050565b60008160011c9050919050565b7f596f7520766f7465640000000000000000000000000000000000000000000000600082015250565b7f4e6f2062616c616e636500000000000000000000000000000000000000000000600082015250565b7f557365726e616d652074616b656e000000000000000000000000000000000000600082015250565b7f5573657220657869737473000000000000000000000000000000000000000000600082015250565b7f4e6f204d616a6f72697479000000000000000000000000000000000000000000600082015250565b7f76616c696461746f720000000000000000000000000000000000000000000000600082015250565b7f596f7520646964276e7420646f6e617465000000000000000000000000000000600082015250565b7f62656e6566696369617279000000000000000000000000000000000000000000600082015250565b7f646f6e6f72000000000000000000000000000000000000000000000000000000600082015250565b615e9381615af7565b8114615e9e57600080fd5b50565b615eaa81615b47565b8114615eb557600080fd5b5056fea264697066735822122007e498ae75a68378f491644fcdebeb46a266412dd6fc1d3ce02eb79338940eca64736f6c63430008040033",
  "linkReferences": {},
  "deployedLinkReferences": {}
}