{
  "_format": "hh-sol-artifact-1",
  "contractName": "Charity",
  "sourceName": "contracts/CIP.sol",
  "abi": [
    {
      "inputs": [
        {
          "internalType": "string",
          "name": "d",
          "type": "string"
        },
        {
          "internalType": "string",
          "name": "t",
          "type": "string"
        }
      ],
      "name": "createProject",
      "outputs": [],
      "stateMutability": "nonpayable",
      "type": "function"
    },
    {
      "inputs": [],
      "name": "getProj",
      "outputs": [
        {
          "components": [
            {
              "internalType": "string",
              "name": "title",
              "type": "string"
            },
            {
              "internalType": "string",
              "name": "description",
              "type": "string"
            },
            {
              "internalType": "address",
              "name": "creator",
              "type": "address"
            }
          ],
          "internalType": "struct Charity.Project",
          "name": "",
          "type": "tuple"
        }
      ],
      "stateMutability": "view",
      "type": "function"
    },
    {
      "inputs": [
        {
          "internalType": "address",
          "name": "_wallet",
          "type": "address"
        }
      ],
      "name": "getUser",
      "outputs": [
        {
          "components": [
            {
              "internalType": "address",
              "name": "wallet",
              "type": "address"
            },
            {
              "internalType": "string",
              "name": "name",
              "type": "string"
            },
            {
              "internalType": "string",
              "name": "username",
              "type": "string"
            },
            {
              "internalType": "string",
              "name": "usertype",
              "type": "string"
            }
          ],
          "internalType": "struct Charity.User",
          "name": "",
          "type": "tuple"
        }
      ],
      "stateMutability": "view",
      "type": "function"
    },
    {
      "inputs": [
        {
          "internalType": "uint256",
          "name": "",
          "type": "uint256"
        }
      ],
      "name": "projects",
      "outputs": [
        {
          "internalType": "string",
          "name": "title",
          "type": "string"
        },
        {
          "internalType": "string",
          "name": "description",
          "type": "string"
        },
        {
          "internalType": "address",
          "name": "creator",
          "type": "address"
        }
      ],
      "stateMutability": "view",
      "type": "function"
    },
    {
      "inputs": [
        {
          "internalType": "string",
          "name": "_username",
          "type": "string"
        },
        {
          "internalType": "string",
          "name": "_name",
          "type": "string"
        },
        {
          "internalType": "string",
          "name": "_usertype",
          "type": "string"
        }
      ],
      "name": "register",
      "outputs": [],
      "stateMutability": "nonpayable",
      "type": "function"
    },
    {
      "inputs": [
        {
          "internalType": "address",
          "name": "",
          "type": "address"
        }
      ],
      "name": "usernames",
      "outputs": [
        {
          "internalType": "string",
          "name": "",
          "type": "string"
        }
      ],
      "stateMutability": "view",
      "type": "function"
    },
    {
      "inputs": [
        {
          "internalType": "string",
          "name": "",
          "type": "string"
        }
      ],
      "name": "users",
      "outputs": [
        {
          "internalType": "address",
          "name": "wallet",
          "type": "address"
        },
        {
          "internalType": "string",
          "name": "name",
          "type": "string"
        },
        {
          "internalType": "string",
          "name": "username",
          "type": "string"
        },
        {
          "internalType": "string",
          "name": "usertype",
          "type": "string"
        }
      ],
      "stateMutability": "view",
      "type": "function"
    }
  ],
  "bytecode": "0x608060405234801561001057600080fd5b50611859806100206000396000f3fe608060405234801561001057600080fd5b506004361061007d5760003560e01c80636bd062041161005b5780636bd06204146101035780636f77926b1461011f578063b21604911461014f578063ee91877c1461016d5761007d565b8063107046bd146100825780634cd08d03146100b4578063689e1c03146100d0575b600080fd5b61009c6004803603810190610097919061113f565b61019d565b6040516100ab93929190611498565b60405180910390f35b6100ce60048036038101906100c991906110a8565b610307565b005b6100ea60048036038101906100e59190610ffb565b610592565b6040516100fa949392919061141c565b60405180910390f35b61011d6004803603810190610118919061103c565b610790565b005b61013960048036038101906101349190610fd2565b61092c565b604051610146919061153f565b60405180910390f35b610157610bad565b604051610164919061151d565b60405180910390f35b61018760048036038101906101829190610fd2565b610d88565b6040516101949190611476565b60405180910390f35b600281815481106101ad57600080fd5b90600052602060002090600302016000915090508060000180546101d090611682565b80601f01602080910402602001604051908101604052809291908181526020018280546101fc90611682565b80156102495780601f1061021e57610100808354040283529160200191610249565b820191906000526020600020905b81548152906001019060200180831161022c57829003601f168201915b50505050509080600101805461025e90611682565b80601f016020809104026020016040519081016040528092919081815260200182805461028a90611682565b80156102d75780601f106102ac576101008083540402835291602001916102d7565b820191906000526020600020905b8154815290600101906020018083116102ba57829003601f168201915b5050505050908060020160009054906101000a900473ffffffffffffffffffffffffffffffffffffffff16905083565b60008060003373ffffffffffffffffffffffffffffffffffffffff1673ffffffffffffffffffffffffffffffffffffffff168152602001908152602001600020805461035290611682565b905014610394576040517f08c379a000000000000000000000000000000000000000000000000000000000815260040161038b906114fd565b60405180910390fd5b600073ffffffffffffffffffffffffffffffffffffffff166001846040516103bc91906113d9565b908152602001604051809103902060000160009054906101000a900473ffffffffffffffffffffffffffffffffffffffff1673ffffffffffffffffffffffffffffffffffffffff1614610444576040517f08c379a000000000000000000000000000000000000000000000000000000000815260040161043b906114dd565b60405180910390fd5b60405180608001604052803373ffffffffffffffffffffffffffffffffffffffff1681526020018381526020018481526020018281525060018460405161048b91906113d9565b908152602001604051809103902060008201518160000160006101000a81548173ffffffffffffffffffffffffffffffffffffffff021916908373ffffffffffffffffffffffffffffffffffffffff16021790555060208201518160010190805190602001906104fc929190610e28565b506040820151816002019080519060200190610519929190610e28565b506060820151816003019080519060200190610536929190610e28565b50905050826000803373ffffffffffffffffffffffffffffffffffffffff1673ffffffffffffffffffffffffffffffffffffffff168152602001908152602001600020908051906020019061058c929190610e28565b50505050565b6001818051602081018201805184825260208301602085012081835280955050505050506000915090508060000160009054906101000a900473ffffffffffffffffffffffffffffffffffffffff16908060010180546105f190611682565b80601f016020809104026020016040519081016040528092919081815260200182805461061d90611682565b801561066a5780601f1061063f5761010080835404028352916020019161066a565b820191906000526020600020905b81548152906001019060200180831161064d57829003601f168201915b50505050509080600201805461067f90611682565b80601f01602080910402602001604051908101604052809291908181526020018280546106ab90611682565b80156106f85780601f106106cd576101008083540402835291602001916106f8565b820191906000526020600020905b8154815290600101906020018083116106db57829003601f168201915b50505050509080600301805461070d90611682565b80601f016020809104026020016040519081016040528092919081815260200182805461073990611682565b80156107865780601f1061075b57610100808354040283529160200191610786565b820191906000526020600020905b81548152906001019060200180831161076957829003601f168201915b5050505050905084565b60405160200161079f90611407565b6040516020818303038152906040528051906020012060016000803373ffffffffffffffffffffffffffffffffffffffff1673ffffffffffffffffffffffffffffffffffffffff16815260200190815260200160002060405161080291906113f0565b908152602001604051809103902060030160405160200161082391906113f0565b604051602081830303815290604052805190602001201461084357600080fd5b600060405180606001604052808381526020018481526020013373ffffffffffffffffffffffffffffffffffffffff168152509050600281908060018154018082558091505060019003906000526020600020906003020160009091909190915060008201518160000190805190602001906108c0929190610e28565b5060208201518160010190805190602001906108dd929190610e28565b5060408201518160020160006101000a81548173ffffffffffffffffffffffffffffffffffffffff021916908373ffffffffffffffffffffffffffffffffffffffff1602179055505050505050565b610934610eae565b60016000808473ffffffffffffffffffffffffffffffffffffffff1673ffffffffffffffffffffffffffffffffffffffff16815260200190815260200160002060405161098191906113f0565b90815260200160405180910390206040518060800160405290816000820160009054906101000a900473ffffffffffffffffffffffffffffffffffffffff1673ffffffffffffffffffffffffffffffffffffffff1673ffffffffffffffffffffffffffffffffffffffff168152602001600182018054610a0090611682565b80601f0160208091040260200160405190810160405280929190818152602001828054610a2c90611682565b8015610a795780601f10610a4e57610100808354040283529160200191610a79565b820191906000526020600020905b815481529060010190602001808311610a5c57829003601f168201915b50505050508152602001600282018054610a9290611682565b80601f0160208091040260200160405190810160405280929190818152602001828054610abe90611682565b8015610b0b5780601f10610ae057610100808354040283529160200191610b0b565b820191906000526020600020905b815481529060010190602001808311610aee57829003601f168201915b50505050508152602001600382018054610b2490611682565b80601f0160208091040260200160405190810160405280929190818152602001828054610b5090611682565b8015610b9d5780601f10610b7257610100808354040283529160200191610b9d565b820191906000526020600020905b815481529060010190602001808311610b8057829003601f168201915b5050505050815250509050919050565b610bb5610eec565b6002600081548110610bf0577f4e487b7100000000000000000000000000000000000000000000000000000000600052603260045260246000fd5b9060005260206000209060030201604051806060016040529081600082018054610c1990611682565b80601f0160208091040260200160405190810160405280929190818152602001828054610c4590611682565b8015610c925780601f10610c6757610100808354040283529160200191610c92565b820191906000526020600020905b815481529060010190602001808311610c7557829003601f168201915b50505050508152602001600182018054610cab90611682565b80601f0160208091040260200160405190810160405280929190818152602001828054610cd790611682565b8015610d245780601f10610cf957610100808354040283529160200191610d24565b820191906000526020600020905b815481529060010190602001808311610d0757829003601f168201915b505050505081526020016002820160009054906101000a900473ffffffffffffffffffffffffffffffffffffffff1673ffffffffffffffffffffffffffffffffffffffff1673ffffffffffffffffffffffffffffffffffffffff1681525050905090565b60006020528060005260406000206000915090508054610da790611682565b80601f0160208091040260200160405190810160405280929190818152602001828054610dd390611682565b8015610e205780601f10610df557610100808354040283529160200191610e20565b820191906000526020600020905b815481529060010190602001808311610e0357829003601f168201915b505050505081565b828054610e3490611682565b90600052602060002090601f016020900481019282610e565760008555610e9d565b82601f10610e6f57805160ff1916838001178555610e9d565b82800160010185558215610e9d579182015b82811115610e9c578251825591602001919060010190610e81565b5b509050610eaa9190610f23565b5090565b6040518060800160405280600073ffffffffffffffffffffffffffffffffffffffff1681526020016060815260200160608152602001606081525090565b60405180606001604052806060815260200160608152602001600073ffffffffffffffffffffffffffffffffffffffff1681525090565b5b80821115610f3c576000816000905550600101610f24565b5090565b6000610f53610f4e84611586565b611561565b905082815260208101848484011115610f6b57600080fd5b610f76848285611640565b509392505050565b600081359050610f8d816117f5565b92915050565b600082601f830112610fa457600080fd5b8135610fb4848260208601610f40565b91505092915050565b600081359050610fcc8161180c565b92915050565b600060208284031215610fe457600080fd5b6000610ff284828501610f7e565b91505092915050565b60006020828403121561100d57600080fd5b600082013567ffffffffffffffff81111561102757600080fd5b61103384828501610f93565b91505092915050565b6000806040838503121561104f57600080fd5b600083013567ffffffffffffffff81111561106957600080fd5b61107585828601610f93565b925050602083013567ffffffffffffffff81111561109257600080fd5b61109e85828601610f93565b9150509250929050565b6000806000606084860312156110bd57600080fd5b600084013567ffffffffffffffff8111156110d757600080fd5b6110e386828701610f93565b935050602084013567ffffffffffffffff81111561110057600080fd5b61110c86828701610f93565b925050604084013567ffffffffffffffff81111561112957600080fd5b61113586828701610f93565b9150509250925092565b60006020828403121561115157600080fd5b600061115f84828501610fbd565b91505092915050565b61117181611604565b82525050565b61118081611604565b82525050565b6000611191826115cc565b61119b81856115d7565b93506111ab81856020860161164f565b6111b481611743565b840191505092915050565b60006111ca826115cc565b6111d481856115e8565b93506111e481856020860161164f565b6111ed81611743565b840191505092915050565b6000611203826115cc565b61120d81856115f9565b935061121d81856020860161164f565b80840191505092915050565b6000815461123681611682565b61124081866115f9565b9450600182166000811461125b576001811461126c5761129f565b60ff1983168652818601935061129f565b611275856115b7565b60005b8381101561129757815481890152600182019150602081019050611278565b838801955050505b50505092915050565b60006112b56026836115e8565b91506112c082611754565b604082019050919050565b60006112d86013836115e8565b91506112e3826117a3565b602082019050919050565b60006112fb600b836115f9565b9150611306826117cc565b600b82019050919050565b6000606083016000830151848203600086015261132e8282611186565b915050602083015184820360208601526113488282611186565b915050604083015161135d6040860182611168565b508091505092915050565b60006080830160008301516113806000860182611168565b50602083015184820360208601526113988282611186565b915050604083015184820360408601526113b28282611186565b915050606083015184820360608601526113cc8282611186565b9150508091505092915050565b60006113e582846111f8565b915081905092915050565b60006113fc8284611229565b915081905092915050565b6000611412826112ee565b9150819050919050565b60006080820190506114316000830187611177565b818103602083015261144381866111bf565b9050818103604083015261145781856111bf565b9050818103606083015261146b81846111bf565b905095945050505050565b6000602082019050818103600083015261149081846111bf565b905092915050565b600060608201905081810360008301526114b281866111bf565b905081810360208301526114c681856111bf565b90506114d56040830184611177565b949350505050565b600060208201905081810360008301526114f6816112a8565b9050919050565b60006020820190508181036000830152611516816112cb565b9050919050565b600060208201905081810360008301526115378184611311565b905092915050565b600060208201905081810360008301526115598184611368565b905092915050565b600061156b61157c565b905061157782826116b4565b919050565b6000604051905090565b600067ffffffffffffffff8211156115a1576115a0611714565b5b6115aa82611743565b9050602081019050919050565b60008190508160005260206000209050919050565b600081519050919050565b600082825260208201905092915050565b600082825260208201905092915050565b600081905092915050565b600061160f82611616565b9050919050565b600073ffffffffffffffffffffffffffffffffffffffff82169050919050565b6000819050919050565b82818337600083830152505050565b60005b8381101561166d578082015181840152602081019050611652565b8381111561167c576000848401525b50505050565b6000600282049050600182168061169a57607f821691505b602082108114156116ae576116ad6116e5565b5b50919050565b6116bd82611743565b810181811067ffffffffffffffff821117156116dc576116db611714565b5b80604052505050565b7f4e487b7100000000000000000000000000000000000000000000000000000000600052602260045260246000fd5b7f4e487b7100000000000000000000000000000000000000000000000000000000600052604160045260246000fd5b6000601f19601f8301169050919050565b7f557365726e616d6520697320616c72656164792074616b656e2c20547279206160008201527f6e6f746865720000000000000000000000000000000000000000000000000000602082015250565b7f5573657220616c72656164792065786973747300000000000000000000000000600082015250565b7f62656e6566696369617279000000000000000000000000000000000000000000600082015250565b6117fe81611604565b811461180957600080fd5b50565b61181581611636565b811461182057600080fd5b5056fea26469706673582212209c524be19c5e13ba23fc3219537380f3d50762235889ac4e23413cae6716011964736f6c63430008040033",
  "linkReferences": {},
  "deployedLinkReferences": {}
}