{
  "_format": "hh-sol-artifact-1",
  "contractName": "Charity",
  "sourceName": "contracts/CIP.sol",
  "abi": [
    {
      "inputs": [
        {
          "internalType": "uint256",
          "name": "reqId",
          "type": "uint256"
        }
      ],
      "name": "approveRequest",
      "outputs": [],
      "stateMutability": "nonpayable",
      "type": "function"
    },
    {
      "inputs": [
        {
          "internalType": "string",
          "name": "d",
          "type": "string"
        },
        {
          "internalType": "string",
          "name": "t",
          "type": "string"
        }
      ],
      "name": "createProject",
      "outputs": [],
      "stateMutability": "nonpayable",
      "type": "function"
    },
    {
      "inputs": [
        {
          "internalType": "string",
          "name": "r",
          "type": "string"
        },
        {
          "internalType": "uint256",
          "name": "amount",
          "type": "uint256"
        },
        {
          "internalType": "uint256",
          "name": "projId",
          "type": "uint256"
        },
        {
          "internalType": "string",
          "name": "phno",
          "type": "string"
        }
      ],
      "name": "createRequest",
      "outputs": [],
      "stateMutability": "nonpayable",
      "type": "function"
    },
    {
      "inputs": [],
      "name": "getProjects",
      "outputs": [
        {
          "components": [
            {
              "internalType": "string",
              "name": "title",
              "type": "string"
            },
            {
              "internalType": "string",
              "name": "description",
              "type": "string"
            },
            {
              "internalType": "address",
              "name": "creator",
              "type": "address"
            }
          ],
          "internalType": "struct Charity.Project[]",
          "name": "",
          "type": "tuple[]"
        }
      ],
      "stateMutability": "view",
      "type": "function"
    },
    {
      "inputs": [],
      "name": "getRequests",
      "outputs": [
        {
          "components": [
            {
              "internalType": "string",
              "name": "reason",
              "type": "string"
            },
            {
              "internalType": "string",
              "name": "requestor",
              "type": "string"
            },
            {
              "internalType": "uint256",
              "name": "amount",
              "type": "uint256"
            },
            {
              "internalType": "uint256",
              "name": "reqId",
              "type": "uint256"
            },
            {
              "internalType": "string",
              "name": "reqLink",
              "type": "string"
            },
            {
              "internalType": "bool",
              "name": "verified",
              "type": "bool"
            },
            {
              "components": [
                {
                  "internalType": "string",
                  "name": "title",
                  "type": "string"
                },
                {
                  "internalType": "string",
                  "name": "description",
                  "type": "string"
                },
                {
                  "internalType": "address",
                  "name": "creator",
                  "type": "address"
                }
              ],
              "internalType": "struct Charity.Project",
              "name": "proj",
              "type": "tuple"
            },
            {
              "internalType": "string",
              "name": "phno",
              "type": "string"
            }
          ],
          "internalType": "struct Charity.Request[]",
          "name": "",
          "type": "tuple[]"
        }
      ],
      "stateMutability": "view",
      "type": "function"
    },
    {
      "inputs": [
        {
          "internalType": "address",
          "name": "_wallet",
          "type": "address"
        }
      ],
      "name": "getUser",
      "outputs": [
        {
          "components": [
            {
              "internalType": "address",
              "name": "wallet",
              "type": "address"
            },
            {
              "internalType": "string",
              "name": "name",
              "type": "string"
            },
            {
              "internalType": "string",
              "name": "username",
              "type": "string"
            },
            {
              "internalType": "string",
              "name": "usertype",
              "type": "string"
            }
          ],
          "internalType": "struct Charity.User",
          "name": "",
          "type": "tuple"
        }
      ],
      "stateMutability": "view",
      "type": "function"
    },
    {
      "inputs": [],
      "name": "getValidatorSecret",
      "outputs": [
        {
          "internalType": "string",
          "name": "",
          "type": "string"
        }
      ],
      "stateMutability": "pure",
      "type": "function"
    },
    {
      "inputs": [
        {
          "internalType": "uint256",
          "name": "",
          "type": "uint256"
        }
      ],
      "name": "projects",
      "outputs": [
        {
          "internalType": "string",
          "name": "title",
          "type": "string"
        },
        {
          "internalType": "string",
          "name": "description",
          "type": "string"
        },
        {
          "internalType": "address",
          "name": "creator",
          "type": "address"
        }
      ],
      "stateMutability": "view",
      "type": "function"
    },
    {
      "inputs": [
        {
          "internalType": "string",
          "name": "_username",
          "type": "string"
        },
        {
          "internalType": "string",
          "name": "_name",
          "type": "string"
        },
        {
          "internalType": "string",
          "name": "_usertype",
          "type": "string"
        }
      ],
      "name": "register",
      "outputs": [],
      "stateMutability": "nonpayable",
      "type": "function"
    },
    {
      "inputs": [
        {
          "internalType": "string",
          "name": "_username",
          "type": "string"
        },
        {
          "internalType": "string",
          "name": "_name",
          "type": "string"
        },
        {
          "internalType": "string",
          "name": "_usertype",
          "type": "string"
        },
        {
          "internalType": "string",
          "name": "link",
          "type": "string"
        }
      ],
      "name": "registerB",
      "outputs": [],
      "stateMutability": "nonpayable",
      "type": "function"
    },
    {
      "inputs": [
        {
          "internalType": "uint256",
          "name": "reqId",
          "type": "uint256"
        }
      ],
      "name": "rejectRequest",
      "outputs": [],
      "stateMutability": "nonpayable",
      "type": "function"
    },
    {
      "inputs": [
        {
          "internalType": "uint256",
          "name": "",
          "type": "uint256"
        }
      ],
      "name": "requests",
      "outputs": [
        {
          "internalType": "string",
          "name": "reason",
          "type": "string"
        },
        {
          "internalType": "string",
          "name": "requestor",
          "type": "string"
        },
        {
          "internalType": "uint256",
          "name": "amount",
          "type": "uint256"
        },
        {
          "internalType": "uint256",
          "name": "reqId",
          "type": "uint256"
        },
        {
          "internalType": "string",
          "name": "reqLink",
          "type": "string"
        },
        {
          "internalType": "bool",
          "name": "verified",
          "type": "bool"
        },
        {
          "components": [
            {
              "internalType": "string",
              "name": "title",
              "type": "string"
            },
            {
              "internalType": "string",
              "name": "description",
              "type": "string"
            },
            {
              "internalType": "address",
              "name": "creator",
              "type": "address"
            }
          ],
          "internalType": "struct Charity.Project",
          "name": "proj",
          "type": "tuple"
        },
        {
          "internalType": "string",
          "name": "phno",
          "type": "string"
        }
      ],
      "stateMutability": "view",
      "type": "function"
    },
    {
      "inputs": [
        {
          "internalType": "address",
          "name": "",
          "type": "address"
        }
      ],
      "name": "usernames",
      "outputs": [
        {
          "internalType": "string",
          "name": "",
          "type": "string"
        }
      ],
      "stateMutability": "view",
      "type": "function"
    },
    {
      "inputs": [
        {
          "internalType": "string",
          "name": "",
          "type": "string"
        }
      ],
      "name": "users",
      "outputs": [
        {
          "internalType": "address",
          "name": "wallet",
          "type": "address"
        },
        {
          "internalType": "string",
          "name": "name",
          "type": "string"
        },
        {
          "internalType": "string",
          "name": "username",
          "type": "string"
        },
        {
          "internalType": "string",
          "name": "usertype",
          "type": "string"
        }
      ],
      "stateMutability": "view",
      "type": "function"
    }
  ],
  "bytecode": "0x608060405234801561001057600080fd5b50613703806100206000396000f3fe608060405234801561001057600080fd5b50600436106100ea5760003560e01c80638813ce121161008c578063d7d1bbdb11610066578063d7d1bbdb14610265578063dcc6012814610281578063ee91877c1461029f578063f97cbe23146102cf576100ea565b80638813ce121461020f578063b78c89ff1461022d578063bb32661314610249576100ea565b8063689e1c03116100c8578063689e1c03146101595780636bd062041461018c5780636f77926b146101a857806381d12c58146101d8576100ea565b8063107046bd146100ef5780632d7788db146101215780634cd08d031461013d575b600080fd5b61010960048036038101906101049190612b73565b6102ed565b604051610118939291906131b9565b60405180910390f35b61013b60048036038101906101369190612b73565b610457565b005b61015760048036038101906101529190612986565b610516565b005b610173600480360381019061016e91906128d9565b6107a1565b60405161018394939291906130f9565b60405180910390f35b6101a660048036038101906101a1919061291a565b61099f565b005b6101c260048036038101906101bd91906128b0565b610b3b565b6040516101cf91906132df565b60405180910390f35b6101f260048036038101906101ed9190612b73565b610dbc565b6040516102069897969594939291906131fe565b60405180910390f35b6102176111c5565b6040516102249190613175565b60405180910390f35b61024760048036038101906102429190612a1d565b61162a565b005b610263600480360381019061025e9190612ae0565b6119bd565b005b61027f600480360381019061027a9190612b73565b611f73565b005b61028961208d565b6040516102969190613153565b60405180910390f35b6102b960048036038101906102b491906128b0565b612266565b6040516102c69190613197565b60405180910390f35b6102d7612306565b6040516102e49190613197565b60405180910390f35b600381815481106102fd57600080fd5b9060005260206000209060030201600091509050806000018054610320906134d4565b80601f016020809104026020016040519081016040528092919081815260200182805461034c906134d4565b80156103995780601f1061036e57610100808354040283529160200191610399565b820191906000526020600020905b81548152906001019060200180831161037c57829003601f168201915b5050505050908060010180546103ae906134d4565b80601f01602080910402602001604051908101604052809291908181526020018280546103da906134d4565b80156104275780601f106103fc57610100808354040283529160200191610427565b820191906000526020600020905b81548152906001019060200180831161040a57829003601f168201915b5050505050908060020160009054906101000a900473ffffffffffffffffffffffffffffffffffffffff16905083565b604051602001610466906130cf565b6040516020818303038152906040528051906020012060016000803373ffffffffffffffffffffffffffffffffffffffff1673ffffffffffffffffffffffffffffffffffffffff1681526020019081526020016000206040516104c991906130b8565b90815260200160405180910390206003016040516020016104ea91906130b8565b604051602081830303815290604052805190602001201461050a57600080fd5b61051381612343565b50565b60008060003373ffffffffffffffffffffffffffffffffffffffff1673ffffffffffffffffffffffffffffffffffffffff1681526020019081526020016000208054610561906134d4565b9050146105a3576040517f08c379a000000000000000000000000000000000000000000000000000000000815260040161059a906132bf565b60405180910390fd5b600073ffffffffffffffffffffffffffffffffffffffff166001846040516105cb91906130a1565b908152602001604051809103902060000160009054906101000a900473ffffffffffffffffffffffffffffffffffffffff1673ffffffffffffffffffffffffffffffffffffffff1614610653576040517f08c379a000000000000000000000000000000000000000000000000000000000815260040161064a9061329f565b60405180910390fd5b60405180608001604052803373ffffffffffffffffffffffffffffffffffffffff1681526020018381526020018481526020018281525060018460405161069a91906130a1565b908152602001604051809103902060008201518160000160006101000a81548173ffffffffffffffffffffffffffffffffffffffff021916908373ffffffffffffffffffffffffffffffffffffffff160217905550602082015181600101908051906020019061070b929190612670565b506040820151816002019080519060200190610728929190612670565b506060820151816003019080519060200190610745929190612670565b50905050826000803373ffffffffffffffffffffffffffffffffffffffff1673ffffffffffffffffffffffffffffffffffffffff168152602001908152602001600020908051906020019061079b929190612670565b50505050565b6001818051602081018201805184825260208301602085012081835280955050505050506000915090508060000160009054906101000a900473ffffffffffffffffffffffffffffffffffffffff1690806001018054610800906134d4565b80601f016020809104026020016040519081016040528092919081815260200182805461082c906134d4565b80156108795780601f1061084e57610100808354040283529160200191610879565b820191906000526020600020905b81548152906001019060200180831161085c57829003601f168201915b50505050509080600201805461088e906134d4565b80601f01602080910402602001604051908101604052809291908181526020018280546108ba906134d4565b80156109075780601f106108dc57610100808354040283529160200191610907565b820191906000526020600020905b8154815290600101906020018083116108ea57829003601f168201915b50505050509080600301805461091c906134d4565b80601f0160208091040260200160405190810160405280929190818152602001828054610948906134d4565b80156109955780601f1061096a57610100808354040283529160200191610995565b820191906000526020600020905b81548152906001019060200180831161097857829003601f168201915b5050505050905084565b6040516020016109ae906130e4565b6040516020818303038152906040528051906020012060016000803373ffffffffffffffffffffffffffffffffffffffff1673ffffffffffffffffffffffffffffffffffffffff168152602001908152602001600020604051610a1191906130b8565b9081526020016040518091039020600301604051602001610a3291906130b8565b6040516020818303038152906040528051906020012014610a5257600080fd5b600060405180606001604052808381526020018481526020013373ffffffffffffffffffffffffffffffffffffffff16815250905060038190806001815401808255809150506001900390600052602060002090600302016000909190919091506000820151816000019080519060200190610acf929190612670565b506020820151816001019080519060200190610aec929190612670565b5060408201518160020160006101000a81548173ffffffffffffffffffffffffffffffffffffffff021916908373ffffffffffffffffffffffffffffffffffffffff1602179055505050505050565b610b436126f6565b60016000808473ffffffffffffffffffffffffffffffffffffffff1673ffffffffffffffffffffffffffffffffffffffff168152602001908152602001600020604051610b9091906130b8565b90815260200160405180910390206040518060800160405290816000820160009054906101000a900473ffffffffffffffffffffffffffffffffffffffff1673ffffffffffffffffffffffffffffffffffffffff1673ffffffffffffffffffffffffffffffffffffffff168152602001600182018054610c0f906134d4565b80601f0160208091040260200160405190810160405280929190818152602001828054610c3b906134d4565b8015610c885780601f10610c5d57610100808354040283529160200191610c88565b820191906000526020600020905b815481529060010190602001808311610c6b57829003601f168201915b50505050508152602001600282018054610ca1906134d4565b80601f0160208091040260200160405190810160405280929190818152602001828054610ccd906134d4565b8015610d1a5780601f10610cef57610100808354040283529160200191610d1a565b820191906000526020600020905b815481529060010190602001808311610cfd57829003601f168201915b50505050508152602001600382018054610d33906134d4565b80601f0160208091040260200160405190810160405280929190818152602001828054610d5f906134d4565b8015610dac5780601f10610d8157610100808354040283529160200191610dac565b820191906000526020600020905b815481529060010190602001808311610d8f57829003601f168201915b5050505050815250509050919050565b60048181548110610dcc57600080fd5b90600052602060002090600a0201600091509050806000018054610def906134d4565b80601f0160208091040260200160405190810160405280929190818152602001828054610e1b906134d4565b8015610e685780601f10610e3d57610100808354040283529160200191610e68565b820191906000526020600020905b815481529060010190602001808311610e4b57829003601f168201915b505050505090806001018054610e7d906134d4565b80601f0160208091040260200160405190810160405280929190818152602001828054610ea9906134d4565b8015610ef65780601f10610ecb57610100808354040283529160200191610ef6565b820191906000526020600020905b815481529060010190602001808311610ed957829003601f168201915b505050505090806002015490806003015490806004018054610f17906134d4565b80601f0160208091040260200160405190810160405280929190818152602001828054610f43906134d4565b8015610f905780601f10610f6557610100808354040283529160200191610f90565b820191906000526020600020905b815481529060010190602001808311610f7357829003601f168201915b5050505050908060050160009054906101000a900460ff169080600601604051806060016040529081600082018054610fc8906134d4565b80601f0160208091040260200160405190810160405280929190818152602001828054610ff4906134d4565b80156110415780601f1061101657610100808354040283529160200191611041565b820191906000526020600020905b81548152906001019060200180831161102457829003601f168201915b5050505050815260200160018201805461105a906134d4565b80601f0160208091040260200160405190810160405280929190818152602001828054611086906134d4565b80156110d35780601f106110a8576101008083540402835291602001916110d3565b820191906000526020600020905b8154815290600101906020018083116110b657829003601f168201915b505050505081526020016002820160009054906101000a900473ffffffffffffffffffffffffffffffffffffffff1673ffffffffffffffffffffffffffffffffffffffff1673ffffffffffffffffffffffffffffffffffffffff168152505090806009018054611142906134d4565b80601f016020809104026020016040519081016040528092919081815260200182805461116e906134d4565b80156111bb5780601f10611190576101008083540402835291602001916111bb565b820191906000526020600020905b81548152906001019060200180831161119e57829003601f168201915b5050505050905088565b60606004805480602002602001604051908101604052809291908181526020016000905b8282101561162157838290600052602060002090600a02016040518061010001604052908160008201805461121d906134d4565b80601f0160208091040260200160405190810160405280929190818152602001828054611249906134d4565b80156112965780601f1061126b57610100808354040283529160200191611296565b820191906000526020600020905b81548152906001019060200180831161127957829003601f168201915b505050505081526020016001820180546112af906134d4565b80601f01602080910402602001604051908101604052809291908181526020018280546112db906134d4565b80156113285780601f106112fd57610100808354040283529160200191611328565b820191906000526020600020905b81548152906001019060200180831161130b57829003601f168201915b505050505081526020016002820154815260200160038201548152602001600482018054611355906134d4565b80601f0160208091040260200160405190810160405280929190818152602001828054611381906134d4565b80156113ce5780601f106113a3576101008083540402835291602001916113ce565b820191906000526020600020905b8154815290600101906020018083116113b157829003601f168201915b505050505081526020016005820160009054906101000a900460ff1615151515815260200160068201604051806060016040529081600082018054611412906134d4565b80601f016020809104026020016040519081016040528092919081815260200182805461143e906134d4565b801561148b5780601f106114605761010080835404028352916020019161148b565b820191906000526020600020905b81548152906001019060200180831161146e57829003601f168201915b505050505081526020016001820180546114a4906134d4565b80601f01602080910402602001604051908101604052809291908181526020018280546114d0906134d4565b801561151d5780601f106114f25761010080835404028352916020019161151d565b820191906000526020600020905b81548152906001019060200180831161150057829003601f168201915b505050505081526020016002820160009054906101000a900473ffffffffffffffffffffffffffffffffffffffff1673ffffffffffffffffffffffffffffffffffffffff1673ffffffffffffffffffffffffffffffffffffffff16815250508152602001600982018054611590906134d4565b80601f01602080910402602001604051908101604052809291908181526020018280546115bc906134d4565b80156116095780601f106115de57610100808354040283529160200191611609565b820191906000526020600020905b8154815290600101906020018083116115ec57829003601f168201915b505050505081525050815260200190600101906111e9565b50505050905090565b60008060003373ffffffffffffffffffffffffffffffffffffffff1673ffffffffffffffffffffffffffffffffffffffff1681526020019081526020016000208054611675906134d4565b9050146116b7576040517f08c379a00000000000000000000000000000000000000000000000000000000081526004016116ae906132bf565b60405180910390fd5b600073ffffffffffffffffffffffffffffffffffffffff166001856040516116df91906130a1565b908152602001604051809103902060000160009054906101000a900473ffffffffffffffffffffffffffffffffffffffff1673ffffffffffffffffffffffffffffffffffffffff1614611767576040517f08c379a000000000000000000000000000000000000000000000000000000000815260040161175e9061329f565b60405180910390fd5b60405180608001604052803373ffffffffffffffffffffffffffffffffffffffff168152602001848152602001858152602001838152506001856040516117ae91906130a1565b908152602001604051809103902060008201518160000160006101000a81548173ffffffffffffffffffffffffffffffffffffffff021916908373ffffffffffffffffffffffffffffffffffffffff160217905550602082015181600101908051906020019061181f929190612670565b50604082015181600201908051906020019061183c929190612670565b506060820151816003019080519060200190611859929190612670565b50905050836000803373ffffffffffffffffffffffffffffffffffffffff1673ffffffffffffffffffffffffffffffffffffffff16815260200190815260200160002090805190602001906118af929190612670565b506040516020016118bf906130e4565b6040516020818303038152906040528051906020012060016000803373ffffffffffffffffffffffffffffffffffffffff1673ffffffffffffffffffffffffffffffffffffffff16815260200190815260200160002060405161192291906130b8565b908152602001604051809103902060030160405160200161194391906130b8565b604051602081830303815290604052805190602001201461196357600080fd5b80600260003373ffffffffffffffffffffffffffffffffffffffff1673ffffffffffffffffffffffffffffffffffffffff16815260200190815260200160002090805190602001906119b6929190612670565b5050505050565b6040516020016119cc906130e4565b6040516020818303038152906040528051906020012060016000803373ffffffffffffffffffffffffffffffffffffffff1673ffffffffffffffffffffffffffffffffffffffff168152602001908152602001600020604051611a2f91906130b8565b9081526020016040518091039020600301604051602001611a5091906130b8565b6040516020818303038152906040528051906020012014611a7057600080fd5b60006040518061010001604052808681526020016000803373ffffffffffffffffffffffffffffffffffffffff1673ffffffffffffffffffffffffffffffffffffffff1681526020019081526020016000208054611acd906134d4565b80601f0160208091040260200160405190810160405280929190818152602001828054611af9906134d4565b8015611b465780601f10611b1b57610100808354040283529160200191611b46565b820191906000526020600020905b815481529060010190602001808311611b2957829003601f168201915b50505050508152602001858152602001438152602001600260003373ffffffffffffffffffffffffffffffffffffffff1673ffffffffffffffffffffffffffffffffffffffff1681526020019081526020016000208054611ba6906134d4565b80601f0160208091040260200160405190810160405280929190818152602001828054611bd2906134d4565b8015611c1f5780601f10611bf457610100808354040283529160200191611c1f565b820191906000526020600020905b815481529060010190602001808311611c0257829003601f168201915b5050505050815260200160001515815260200160038581548110611c6c577f4e487b7100000000000000000000000000000000000000000000000000000000600052603260045260246000fd5b9060005260206000209060030201604051806060016040529081600082018054611c95906134d4565b80601f0160208091040260200160405190810160405280929190818152602001828054611cc1906134d4565b8015611d0e5780601f10611ce357610100808354040283529160200191611d0e565b820191906000526020600020905b815481529060010190602001808311611cf157829003601f168201915b50505050508152602001600182018054611d27906134d4565b80601f0160208091040260200160405190810160405280929190818152602001828054611d53906134d4565b8015611da05780601f10611d7557610100808354040283529160200191611da0565b820191906000526020600020905b815481529060010190602001808311611d8357829003601f168201915b505050505081526020016002820160009054906101000a900473ffffffffffffffffffffffffffffffffffffffff1673ffffffffffffffffffffffffffffffffffffffff1673ffffffffffffffffffffffffffffffffffffffff1681525050815260200183815250905060048190806001815401808255809150506001900390600052602060002090600a02016000909190919091506000820151816000019080519060200190611e52929190612670565b506020820151816001019080519060200190611e6f929190612670565b5060408201518160020155606082015181600301556080820151816004019080519060200190611ea0929190612670565b5060a08201518160050160006101000a81548160ff02191690831515021790555060c0820151816006016000820151816000019080519060200190611ee6929190612670565b506020820151816001019080519060200190611f03929190612670565b5060408201518160020160006101000a81548173ffffffffffffffffffffffffffffffffffffffff021916908373ffffffffffffffffffffffffffffffffffffffff160217905550505060e0820151816009019080519060200190611f69929190612670565b5050505050505050565b604051602001611f82906130cf565b6040516020818303038152906040528051906020012060016000803373ffffffffffffffffffffffffffffffffffffffff1673ffffffffffffffffffffffffffffffffffffffff168152602001908152602001600020604051611fe591906130b8565b908152602001604051809103902060030160405160200161200691906130b8565b604051602081830303815290604052805190602001201461202657600080fd5b600160048281548110612062577f4e487b7100000000000000000000000000000000000000000000000000000000600052603260045260246000fd5b90600052602060002090600a020160050160006101000a81548160ff02191690831515021790555050565b60606003805480602002602001604051908101604052809291908181526020016000905b8282101561225d57838290600052602060002090600302016040518060600160405290816000820180546120e4906134d4565b80601f0160208091040260200160405190810160405280929190818152602001828054612110906134d4565b801561215d5780601f106121325761010080835404028352916020019161215d565b820191906000526020600020905b81548152906001019060200180831161214057829003601f168201915b50505050508152602001600182018054612176906134d4565b80601f01602080910402602001604051908101604052809291908181526020018280546121a2906134d4565b80156121ef5780601f106121c4576101008083540402835291602001916121ef565b820191906000526020600020905b8154815290600101906020018083116121d257829003601f168201915b505050505081526020016002820160009054906101000a900473ffffffffffffffffffffffffffffffffffffffff1673ffffffffffffffffffffffffffffffffffffffff1673ffffffffffffffffffffffffffffffffffffffff1681525050815260200190600101906120b1565b50505050905090565b60006020528060005260406000206000915090508054612285906134d4565b80601f01602080910402602001604051908101604052809291908181526020018280546122b1906134d4565b80156122fe5780601f106122d3576101008083540402835291602001916122fe565b820191906000526020600020905b8154815290600101906020018083116122e157829003601f168201915b505050505081565b60606040518060400160405280600481526020017f4155435a00000000000000000000000000000000000000000000000000000000815250905090565b600480549050811061235457600080fd5b600460016004805490506123689190613416565b8154811061239f577f4e487b7100000000000000000000000000000000000000000000000000000000600052603260045260246000fd5b90600052602060002090600a0201600482815481106123e7577f4e487b7100000000000000000000000000000000000000000000000000000000600052603260045260246000fd5b90600052602060002090600a02016000820181600001908054612409906134d4565b612414929190612734565b506001820181600101908054612429906134d4565b612434929190612734565b506002820154816002015560038201548160030155600482018160040190805461245d906134d4565b612468929190612734565b506005820160009054906101000a900460ff168160050160006101000a81548160ff021916908315150217905550600682018160060160008201816000019080546124b2906134d4565b6124bd929190612734565b5060018201816001019080546124d2906134d4565b6124dd929190612734565b506002820160009054906101000a900473ffffffffffffffffffffffffffffffffffffffff168160020160006101000a81548173ffffffffffffffffffffffffffffffffffffffff021916908373ffffffffffffffffffffffffffffffffffffffff1602179055505050600982018160090190805461255b906134d4565b612566929190612734565b5090505060048054806125a2577f4e487b7100000000000000000000000000000000000000000000000000000000600052603160045260246000fd5b60019003818190600052602060002090600a0201600080820160006125c791906127c1565b6001820160006125d791906127c1565b600282016000905560038201600090556004820160006125f791906127c1565b6005820160006101000a81549060ff0219169055600682016000808201600061262091906127c1565b60018201600061263091906127c1565b6002820160006101000a81549073ffffffffffffffffffffffffffffffffffffffff0219169055505060098201600061266991906127c1565b5050905550565b82805461267c906134d4565b90600052602060002090601f01602090048101928261269e57600085556126e5565b82601f106126b757805160ff19168380011785556126e5565b828001600101855582156126e5579182015b828111156126e45782518255916020019190600101906126c9565b5b5090506126f29190612801565b5090565b6040518060800160405280600073ffffffffffffffffffffffffffffffffffffffff1681526020016060815260200160608152602001606081525090565b828054612740906134d4565b90600052602060002090601f01602090048101928261276257600085556127b0565b82601f1061277357805485556127b0565b828001600101855582156127b057600052602060002091601f016020900482015b828111156127af578254825591600101919060010190612794565b5b5090506127bd9190612801565b5090565b5080546127cd906134d4565b6000825580601f106127df57506127fe565b601f0160209004906000526020600020908101906127fd9190612801565b5b50565b5b8082111561281a576000816000905550600101612802565b5090565b600061283161282c84613326565b613301565b90508281526020810184848401111561284957600080fd5b612854848285613492565b509392505050565b60008135905061286b8161369f565b92915050565b600082601f83011261288257600080fd5b813561289284826020860161281e565b91505092915050565b6000813590506128aa816136b6565b92915050565b6000602082840312156128c257600080fd5b60006128d08482850161285c565b91505092915050565b6000602082840312156128eb57600080fd5b600082013567ffffffffffffffff81111561290557600080fd5b61291184828501612871565b91505092915050565b6000806040838503121561292d57600080fd5b600083013567ffffffffffffffff81111561294757600080fd5b61295385828601612871565b925050602083013567ffffffffffffffff81111561297057600080fd5b61297c85828601612871565b9150509250929050565b60008060006060848603121561299b57600080fd5b600084013567ffffffffffffffff8111156129b557600080fd5b6129c186828701612871565b935050602084013567ffffffffffffffff8111156129de57600080fd5b6129ea86828701612871565b925050604084013567ffffffffffffffff811115612a0757600080fd5b612a1386828701612871565b9150509250925092565b60008060008060808587031215612a3357600080fd5b600085013567ffffffffffffffff811115612a4d57600080fd5b612a5987828801612871565b945050602085013567ffffffffffffffff811115612a7657600080fd5b612a8287828801612871565b935050604085013567ffffffffffffffff811115612a9f57600080fd5b612aab87828801612871565b925050606085013567ffffffffffffffff811115612ac857600080fd5b612ad487828801612871565b91505092959194509250565b60008060008060808587031215612af657600080fd5b600085013567ffffffffffffffff811115612b1057600080fd5b612b1c87828801612871565b9450506020612b2d8782880161289b565b9350506040612b3e8782880161289b565b925050606085013567ffffffffffffffff811115612b5b57600080fd5b612b6787828801612871565b91505092959194509250565b600060208284031215612b8557600080fd5b6000612b938482850161289b565b91505092915050565b6000612ba88383612e98565b905092915050565b6000612bbc8383612f46565b905092915050565b612bcd8161344a565b82525050565b612bdc8161344a565b82525050565b6000612bed8261338c565b612bf781856133c7565b935083602082028501612c0985613357565b8060005b85811015612c455784840389528151612c268582612b9c565b9450612c31836133ad565b925060208a01995050600181019050612c0d565b50829750879550505050505092915050565b6000612c6282613397565b612c6c81856133d8565b935083602082028501612c7e85613367565b8060005b85811015612cba5784840389528151612c9b8582612bb0565b9450612ca6836133ba565b925060208a01995050600181019050612c82565b50829750879550505050505092915050565b612cd58161345c565b82525050565b612ce48161345c565b82525050565b6000612cf5826133a2565b612cff81856133e9565b9350612d0f8185602086016134a1565b612d18816135c4565b840191505092915050565b6000612d2e826133a2565b612d3881856133fa565b9350612d488185602086016134a1565b612d51816135c4565b840191505092915050565b6000612d67826133a2565b612d71818561340b565b9350612d818185602086016134a1565b80840191505092915050565b60008154612d9a816134d4565b612da4818661340b565b94506001821660008114612dbf5760018114612dd057612e03565b60ff19831686528186019350612e03565b612dd985613377565b60005b83811015612dfb57815481890152600182019150602081019050612ddc565b838801955050505b50505092915050565b6000612e196026836133fa565b9150612e24826135d5565b604082019050919050565b6000612e3c6013836133fa565b9150612e4782613624565b602082019050919050565b6000612e5f60098361340b565b9150612e6a8261364d565b600982019050919050565b6000612e82600b8361340b565b9150612e8d82613676565b600b82019050919050565b60006060830160008301518482036000860152612eb58282612cea565b91505060208301518482036020860152612ecf8282612cea565b9150506040830151612ee46040860182612bc4565b508091505092915050565b60006060830160008301518482036000860152612f0c8282612cea565b91505060208301518482036020860152612f268282612cea565b9150506040830151612f3b6040860182612bc4565b508091505092915050565b6000610100830160008301518482036000860152612f648282612cea565b91505060208301518482036020860152612f7e8282612cea565b9150506040830151612f936040860182613083565b506060830151612fa66060860182613083565b5060808301518482036080860152612fbe8282612cea565b91505060a0830151612fd360a0860182612ccc565b5060c083015184820360c0860152612feb8282612e98565b91505060e083015184820360e08601526130058282612cea565b9150508091505092915050565b600060808301600083015161302a6000860182612bc4565b50602083015184820360208601526130428282612cea565b9150506040830151848203604086015261305c8282612cea565b915050606083015184820360608601526130768282612cea565b9150508091505092915050565b61308c81613488565b82525050565b61309b81613488565b82525050565b60006130ad8284612d5c565b915081905092915050565b60006130c48284612d8d565b915081905092915050565b60006130da82612e52565b9150819050919050565b60006130ef82612e75565b9150819050919050565b600060808201905061310e6000830187612bd3565b81810360208301526131208186612d23565b905081810360408301526131348185612d23565b905081810360608301526131488184612d23565b905095945050505050565b6000602082019050818103600083015261316d8184612be2565b905092915050565b6000602082019050818103600083015261318f8184612c57565b905092915050565b600060208201905081810360008301526131b18184612d23565b905092915050565b600060608201905081810360008301526131d38186612d23565b905081810360208301526131e78185612d23565b90506131f66040830184612bd3565b949350505050565b6000610100820190508181036000830152613219818b612d23565b9050818103602083015261322d818a612d23565b905061323c6040830189613092565b6132496060830188613092565b818103608083015261325b8187612d23565b905061326a60a0830186612cdb565b81810360c083015261327c8185612eef565b905081810360e08301526132908184612d23565b90509998505050505050505050565b600060208201905081810360008301526132b881612e0c565b9050919050565b600060208201905081810360008301526132d881612e2f565b9050919050565b600060208201905081810360008301526132f98184613012565b905092915050565b600061330b61331c565b90506133178282613506565b919050565b6000604051905090565b600067ffffffffffffffff82111561334157613340613595565b5b61334a826135c4565b9050602081019050919050565b6000819050602082019050919050565b6000819050602082019050919050565b60008190508160005260206000209050919050565b600081519050919050565b600081519050919050565b600081519050919050565b6000602082019050919050565b6000602082019050919050565b600082825260208201905092915050565b600082825260208201905092915050565b600082825260208201905092915050565b600082825260208201905092915050565b600081905092915050565b600061342182613488565b915061342c83613488565b92508282101561343f5761343e613537565b5b828203905092915050565b600061345582613468565b9050919050565b60008115159050919050565b600073ffffffffffffffffffffffffffffffffffffffff82169050919050565b6000819050919050565b82818337600083830152505050565b60005b838110156134bf5780820151818401526020810190506134a4565b838111156134ce576000848401525b50505050565b600060028204905060018216806134ec57607f821691505b60208210811415613500576134ff613566565b5b50919050565b61350f826135c4565b810181811067ffffffffffffffff8211171561352e5761352d613595565b5b80604052505050565b7f4e487b7100000000000000000000000000000000000000000000000000000000600052601160045260246000fd5b7f4e487b7100000000000000000000000000000000000000000000000000000000600052602260045260246000fd5b7f4e487b7100000000000000000000000000000000000000000000000000000000600052604160045260246000fd5b6000601f19601f8301169050919050565b7f557365726e616d6520697320616c72656164792074616b656e2c20547279206160008201527f6e6f746865720000000000000000000000000000000000000000000000000000602082015250565b7f5573657220616c72656164792065786973747300000000000000000000000000600082015250565b7f76616c696461746f720000000000000000000000000000000000000000000000600082015250565b7f62656e6566696369617279000000000000000000000000000000000000000000600082015250565b6136a88161344a565b81146136b357600080fd5b50565b6136bf81613488565b81146136ca57600080fd5b5056fea2646970667358221220578a70aa108bc29628da2fa2bcfca28fd8630d1e0ed645c634c6b57624f40a9564736f6c63430008040033",
  "linkReferences": {},
  "deployedLinkReferences": {}
}