{
    "_format": "hh-sol-artifact-1",
    "contractName": "Charity",
    "sourceName": "contracts/CIP.sol",
    "abi": [
        {
            "inputs": [
                {
                    "internalType": "address",
                    "name": "_wallet",
                    "type": "address"
                }
            ],
            "name": "getUser",
            "outputs": [
                {
                    "components": [
                        {
                            "internalType": "address",
                            "name": "wallet",
                            "type": "address"
                        },
                        {
                            "internalType": "string",
                            "name": "name",
                            "type": "string"
                        },
                        {
                            "internalType": "string",
                            "name": "username",
                            "type": "string"
                        },
                        {
                            "internalType": "string",
                            "name": "usertype",
                            "type": "string"
                        },
                        {
                            "internalType": "bytes32",
                            "name": "password",
                            "type": "bytes32"
                        }
                    ],
                    "internalType": "struct Charity.User",
                    "name": "",
                    "type": "tuple"
                }
            ],
            "stateMutability": "view",
            "type": "function"
        },
        {
            "inputs": [
                {
                    "internalType": "string",
                    "name": "_username",
                    "type": "string"
                },
                {
                    "internalType": "string",
                    "name": "_name",
                    "type": "string"
                },
                {
                    "internalType": "string",
                    "name": "_usertype",
                    "type": "string"
                },
                {
                    "internalType": "string",
                    "name": "_password",
                    "type": "string"
                }
            ],
            "name": "register",
            "outputs": [],
            "stateMutability": "nonpayable",
            "type": "function"
        },
        {
            "inputs": [
                {
                    "internalType": "address",
                    "name": "",
                    "type": "address"
                }
            ],
            "name": "usernames",
            "outputs": [
                {
                    "internalType": "string",
                    "name": "",
                    "type": "string"
                }
            ],
            "stateMutability": "view",
            "type": "function"
        },
        {
            "inputs": [
                {
                    "internalType": "string",
                    "name": "",
                    "type": "string"
                }
            ],
            "name": "users",
            "outputs": [
                {
                    "internalType": "address",
                    "name": "wallet",
                    "type": "address"
                },
                {
                    "internalType": "string",
                    "name": "name",
                    "type": "string"
                },
                {
                    "internalType": "string",
                    "name": "username",
                    "type": "string"
                },
                {
                    "internalType": "string",
                    "name": "usertype",
                    "type": "string"
                },
                {
                    "internalType": "bytes32",
                    "name": "password",
                    "type": "bytes32"
                }
            ],
            "stateMutability": "view",
            "type": "function"
        }
    ],
    "bytecode": "0x608060405234801561001057600080fd5b50611181806100206000396000f3fe608060405234801561001057600080fd5b506004361061004c5760003560e01c80630e24c52c14610051578063689e1c031461006d5780636f77926b146100a1578063ee91877c146100d1575b600080fd5b61006b60048036038101906100669190610ac4565b610101565b005b61008760048036038101906100829190610a83565b6103c3565b604051610098959493929190610ddd565b60405180910390f35b6100bb60048036038101906100b69190610a5a565b6105c7565b6040516100c89190610ea7565b60405180910390f35b6100eb60048036038101906100e69190610a5a565b610852565b6040516100f89190610e45565b60405180910390f35b60008060003373ffffffffffffffffffffffffffffffffffffffff1673ffffffffffffffffffffffffffffffffffffffff168152602001908152602001600020805461014c90610fea565b90501461018e576040517f08c379a000000000000000000000000000000000000000000000000000000000815260040161018590610e87565b60405180910390fd5b600073ffffffffffffffffffffffffffffffffffffffff166001856040516101b69190610daf565b908152602001604051809103902060000160009054906101000a900473ffffffffffffffffffffffffffffffffffffffff1673ffffffffffffffffffffffffffffffffffffffff161461023e576040517f08c379a000000000000000000000000000000000000000000000000000000000815260040161023590610e67565b60405180910390fd5b6040518060a001604052803373ffffffffffffffffffffffffffffffffffffffff168152602001848152602001858152602001838152602001826040516020016102889190610daf565b604051602081830303815290604052805190602001208152506001856040516102b19190610daf565b908152602001604051809103902060008201518160000160006101000a81548173ffffffffffffffffffffffffffffffffffffffff021916908373ffffffffffffffffffffffffffffffffffffffff16021790555060208201518160010190805190602001906103229291906108f2565b50604082015181600201908051906020019061033f9291906108f2565b50606082015181600301908051906020019061035c9291906108f2565b5060808201518160040155905050836000803373ffffffffffffffffffffffffffffffffffffffff1673ffffffffffffffffffffffffffffffffffffffff16815260200190815260200160002090805190602001906103bc9291906108f2565b5050505050565b6001818051602081018201805184825260208301602085012081835280955050505050506000915090508060000160009054906101000a900473ffffffffffffffffffffffffffffffffffffffff169080600101805461042290610fea565b80601f016020809104026020016040519081016040528092919081815260200182805461044e90610fea565b801561049b5780601f106104705761010080835404028352916020019161049b565b820191906000526020600020905b81548152906001019060200180831161047e57829003601f168201915b5050505050908060020180546104b090610fea565b80601f01602080910402602001604051908101604052809291908181526020018280546104dc90610fea565b80156105295780601f106104fe57610100808354040283529160200191610529565b820191906000526020600020905b81548152906001019060200180831161050c57829003601f168201915b50505050509080600301805461053e90610fea565b80601f016020809104026020016040519081016040528092919081815260200182805461056a90610fea565b80156105b75780601f1061058c576101008083540402835291602001916105b7565b820191906000526020600020905b81548152906001019060200180831161059a57829003601f168201915b5050505050908060040154905085565b6105cf610978565b60016000808473ffffffffffffffffffffffffffffffffffffffff1673ffffffffffffffffffffffffffffffffffffffff16815260200190815260200160002060405161061c9190610dc6565b90815260200160405180910390206040518060a00160405290816000820160009054906101000a900473ffffffffffffffffffffffffffffffffffffffff1673ffffffffffffffffffffffffffffffffffffffff1673ffffffffffffffffffffffffffffffffffffffff16815260200160018201805461069b90610fea565b80601f01602080910402602001604051908101604052809291908181526020018280546106c790610fea565b80156107145780601f106106e957610100808354040283529160200191610714565b820191906000526020600020905b8154815290600101906020018083116106f757829003601f168201915b5050505050815260200160028201805461072d90610fea565b80601f016020809104026020016040519081016040528092919081815260200182805461075990610fea565b80156107a65780601f1061077b576101008083540402835291602001916107a6565b820191906000526020600020905b81548152906001019060200180831161078957829003601f168201915b505050505081526020016003820180546107bf90610fea565b80601f01602080910402602001604051908101604052809291908181526020018280546107eb90610fea565b80156108385780601f1061080d57610100808354040283529160200191610838565b820191906000526020600020905b81548152906001019060200180831161081b57829003601f168201915b505050505081526020016004820154815250509050919050565b6000602052806000526040600020600091509050805461087190610fea565b80601f016020809104026020016040519081016040528092919081815260200182805461089d90610fea565b80156108ea5780601f106108bf576101008083540402835291602001916108ea565b820191906000526020600020905b8154815290600101906020018083116108cd57829003601f168201915b505050505081565b8280546108fe90610fea565b90600052602060002090601f0160209004810192826109205760008555610967565b82601f1061093957805160ff1916838001178555610967565b82800160010185558215610967579182015b8281111561096657825182559160200191906001019061094b565b5b50905061097491906109c0565b5090565b6040518060a00160405280600073ffffffffffffffffffffffffffffffffffffffff168152602001606081526020016060815260200160608152602001600080191681525090565b5b808211156109d95760008160009055506001016109c1565b5090565b60006109f06109eb84610eee565b610ec9565b905082815260208101848484011115610a0857600080fd5b610a13848285610fa8565b509392505050565b600081359050610a2a81611134565b92915050565b600082601f830112610a4157600080fd5b8135610a518482602086016109dd565b91505092915050565b600060208284031215610a6c57600080fd5b6000610a7a84828501610a1b565b91505092915050565b600060208284031215610a9557600080fd5b600082013567ffffffffffffffff811115610aaf57600080fd5b610abb84828501610a30565b91505092915050565b60008060008060808587031215610ada57600080fd5b600085013567ffffffffffffffff811115610af457600080fd5b610b0087828801610a30565b945050602085013567ffffffffffffffff811115610b1d57600080fd5b610b2987828801610a30565b935050604085013567ffffffffffffffff811115610b4657600080fd5b610b5287828801610a30565b925050606085013567ffffffffffffffff811115610b6f57600080fd5b610b7b87828801610a30565b91505092959194509250565b610b9081610f6c565b82525050565b610b9f81610f6c565b82525050565b610bae81610f7e565b82525050565b610bbd81610f7e565b82525050565b6000610bce82610f34565b610bd88185610f3f565b9350610be8818560208601610fb7565b610bf1816110ab565b840191505092915050565b6000610c0782610f34565b610c118185610f50565b9350610c21818560208601610fb7565b610c2a816110ab565b840191505092915050565b6000610c4082610f34565b610c4a8185610f61565b9350610c5a818560208601610fb7565b80840191505092915050565b60008154610c7381610fea565b610c7d8186610f61565b94506001821660008114610c985760018114610ca957610cdc565b60ff19831686528186019350610cdc565b610cb285610f1f565b60005b83811015610cd457815481890152600182019150602081019050610cb5565b838801955050505b50505092915050565b6000610cf2602683610f50565b9150610cfd826110bc565b604082019050919050565b6000610d15601383610f50565b9150610d208261110b565b602082019050919050565b600060a083016000830151610d436000860182610b87565b5060208301518482036020860152610d5b8282610bc3565b91505060408301518482036040860152610d758282610bc3565b91505060608301518482036060860152610d8f8282610bc3565b9150506080830151610da46080860182610ba5565b508091505092915050565b6000610dbb8284610c35565b915081905092915050565b6000610dd28284610c66565b915081905092915050565b600060a082019050610df26000830188610b96565b8181036020830152610e048187610bfc565b90508181036040830152610e188186610bfc565b90508181036060830152610e2c8185610bfc565b9050610e3b6080830184610bb4565b9695505050505050565b60006020820190508181036000830152610e5f8184610bfc565b905092915050565b60006020820190508181036000830152610e8081610ce5565b9050919050565b60006020820190508181036000830152610ea081610d08565b9050919050565b60006020820190508181036000830152610ec18184610d2b565b905092915050565b6000610ed3610ee4565b9050610edf828261101c565b919050565b6000604051905090565b600067ffffffffffffffff821115610f0957610f0861107c565b5b610f12826110ab565b9050602081019050919050565b60008190508160005260206000209050919050565b600081519050919050565b600082825260208201905092915050565b600082825260208201905092915050565b600081905092915050565b6000610f7782610f88565b9050919050565b6000819050919050565b600073ffffffffffffffffffffffffffffffffffffffff82169050919050565b82818337600083830152505050565b60005b83811015610fd5578082015181840152602081019050610fba565b83811115610fe4576000848401525b50505050565b6000600282049050600182168061100257607f821691505b602082108114156110165761101561104d565b5b50919050565b611025826110ab565b810181811067ffffffffffffffff821117156110445761104361107c565b5b80604052505050565b7f4e487b7100000000000000000000000000000000000000000000000000000000600052602260045260246000fd5b7f4e487b7100000000000000000000000000000000000000000000000000000000600052604160045260246000fd5b6000601f19601f8301169050919050565b7f557365726e616d6520697320616c72656164792074616b656e2c20547279206160008201527f6e6f746865720000000000000000000000000000000000000000000000000000602082015250565b7f5573657220616c72656164792065786973747300000000000000000000000000600082015250565b61113d81610f6c565b811461114857600080fd5b5056fea264697066735822122083e5eb1b5e5c428adf466f90847bc74fb4833426bbdb2b70730d816c23d0c89164736f6c63430008040033",
    "linkReferences": {},
    "deployedLinkReferences": {}
}